{
  "_format": "hh-sol-artifact-1",
  "contractName": "RevenueDistributor",
  "sourceName": "contracts/RevenueDistributor.sol",
  "abi": [
    {
      "inputs": [
        {
          "internalType": "address",
          "name": "_projectRegistry",
          "type": "address"
        },
        {
          "internalType": "address payable",
          "name": "_assetToken",
          "type": "address"
        }
      ],
      "stateMutability": "nonpayable",
      "type": "constructor"
    },
    {
      "inputs": [],
      "name": "AlreadyClaimed",
      "type": "error"
    },
    {
      "inputs": [],
      "name": "InsufficientBalance",
      "type": "error"
    },
    {
      "inputs": [],
      "name": "InvalidAmount",
      "type": "error"
    },
    {
      "inputs": [],
      "name": "InvalidDistribution",
      "type": "error"
    },
    {
      "inputs": [],
      "name": "InvalidFeePercentage",
      "type": "error"
    },
    {
      "inputs": [],
      "name": "InvalidFeeRecipient",
      "type": "error"
    },
    {
      "inputs": [],
      "name": "InvalidProject",
      "type": "error"
    },
    {
      "inputs": [],
      "name": "InvestorNotVerified",
      "type": "error"
    },
    {
      "inputs": [],
      "name": "NoRevenue",
      "type": "error"
    },
    {
      "inputs": [],
      "name": "NotApproved",
      "type": "error"
    },
    {
      "inputs": [],
      "name": "NotProjectOwner",
      "type": "error"
    },
    {
      "inputs": [],
      "name": "TransferFailed",
      "type": "error"
    },
    {
      "anonymous": false,
      "inputs": [
        {
          "indexed": true,
          "internalType": "address",
          "name": "investor",
          "type": "address"
        },
        {
          "indexed": true,
          "internalType": "address",
          "name": "claimer",
          "type": "address"
        },
        {
          "indexed": false,
          "internalType": "bool",
          "name": "approved",
          "type": "bool"
        }
      ],
      "name": "ClaimerApproved",
      "type": "event"
    },
    {
      "anonymous": false,
      "inputs": [
        {
          "indexed": true,
          "internalType": "uint256",
          "name": "projectId",
          "type": "uint256"
        },
        {
          "indexed": false,
          "internalType": "uint256",
          "name": "distributionFee",
          "type": "uint256"
        },
        {
          "indexed": false,
          "internalType": "address",
          "name": "feeRecipient",
          "type": "address"
        }
      ],
      "name": "FeesUpdated",
      "type": "event"
    },
    {
      "anonymous": false,
      "inputs": [
        {
          "indexed": true,
          "internalType": "uint256",
          "name": "projectId",
          "type": "uint256"
        },
        {
          "indexed": false,
          "internalType": "uint256",
          "name": "amount",
          "type": "uint256"
        }
      ],
      "name": "MinDistributionAmountUpdated",
      "type": "event"
    },
    {
      "anonymous": false,
      "inputs": [
        {
          "indexed": true,
          "internalType": "address",
          "name": "previousOwner",
          "type": "address"
        },
        {
          "indexed": true,
          "internalType": "address",
          "name": "newOwner",
          "type": "address"
        }
      ],
      "name": "OwnershipTransferred",
      "type": "event"
    },
    {
      "anonymous": false,
      "inputs": [
        {
          "indexed": false,
          "internalType": "address",
          "name": "account",
          "type": "address"
        }
      ],
      "name": "Paused",
      "type": "event"
    },
    {
      "anonymous": false,
      "inputs": [
        {
          "indexed": true,
          "internalType": "uint256",
          "name": "distributionId",
          "type": "uint256"
        },
        {
          "indexed": true,
          "internalType": "address",
          "name": "investor",
          "type": "address"
        },
        {
          "indexed": false,
          "internalType": "uint256",
          "name": "amount",
          "type": "uint256"
        }
      ],
      "name": "RevenueClaimed",
      "type": "event"
    },
    {
      "anonymous": false,
      "inputs": [
        {
          "indexed": true,
          "internalType": "uint256",
          "name": "distributionId",
          "type": "uint256"
        },
        {
          "indexed": true,
          "internalType": "uint256",
          "name": "projectId",
          "type": "uint256"
        },
        {
          "indexed": false,
          "internalType": "uint256",
          "name": "amount",
          "type": "uint256"
        }
      ],
      "name": "RevenueDistributed",
      "type": "event"
    },
    {
      "anonymous": false,
      "inputs": [
        {
          "indexed": false,
          "internalType": "address",
          "name": "account",
          "type": "address"
        }
      ],
      "name": "Unpaused",
      "type": "event"
    },
    {
      "inputs": [
        {
          "internalType": "address",
          "name": "claimer",
          "type": "address"
        },
        {
          "internalType": "bool",
          "name": "approved",
          "type": "bool"
        }
      ],
      "name": "approve",
      "outputs": [],
      "stateMutability": "nonpayable",
      "type": "function"
    },
    {
      "inputs": [
        {
          "internalType": "address",
          "name": "",
          "type": "address"
        },
        {
          "internalType": "address",
          "name": "",
          "type": "address"
        }
      ],
      "name": "approvedClaimers",
      "outputs": [
        {
          "internalType": "bool",
          "name": "",
          "type": "bool"
        }
      ],
      "stateMutability": "view",
      "type": "function"
    },
    {
      "inputs": [],
      "name": "assetToken",
      "outputs": [
        {
          "internalType": "contract AssetToken",
          "name": "",
          "type": "address"
        }
      ],
      "stateMutability": "view",
      "type": "function"
    },
    {
      "inputs": [
        {
          "internalType": "uint256",
          "name": "distributionId",
          "type": "uint256"
        },
        {
          "internalType": "address",
          "name": "investor",
          "type": "address"
        }
      ],
      "name": "calculateShare",
      "outputs": [
        {
          "internalType": "uint256",
          "name": "",
          "type": "uint256"
        }
      ],
      "stateMutability": "view",
      "type": "function"
    },
    {
      "inputs": [
        {
          "internalType": "uint256",
          "name": "distributionId",
          "type": "uint256"
        }
      ],
      "name": "claimRevenue",
      "outputs": [],
      "stateMutability": "nonpayable",
      "type": "function"
    },
    {
      "inputs": [
        {
          "internalType": "uint256",
          "name": "distributionId",
          "type": "uint256"
        },
        {
          "internalType": "address",
          "name": "investor",
          "type": "address"
        }
      ],
      "name": "claimRevenueFor",
      "outputs": [],
      "stateMutability": "nonpayable",
      "type": "function"
    },
    {
      "inputs": [],
      "name": "distributionCount",
      "outputs": [
        {
          "internalType": "uint256",
          "name": "",
          "type": "uint256"
        }
      ],
      "stateMutability": "view",
      "type": "function"
    },
    {
      "inputs": [
        {
          "internalType": "uint256",
          "name": "",
          "type": "uint256"
        }
      ],
      "name": "distributions",
      "outputs": [
        {
          "internalType": "uint256",
          "name": "id",
          "type": "uint256"
        },
        {
          "internalType": "uint256",
          "name": "projectId",
          "type": "uint256"
        },
        {
          "internalType": "uint256",
          "name": "amount",
          "type": "uint256"
        },
        {
          "internalType": "uint256",
          "name": "timestamp",
          "type": "uint256"
        }
      ],
      "stateMutability": "view",
      "type": "function"
    },
    {
      "inputs": [
        {
          "internalType": "uint256",
          "name": "distributionId",
          "type": "uint256"
        }
      ],
      "name": "getDistributionDetails",
      "outputs": [
        {
          "internalType": "uint256",
          "name": "id",
          "type": "uint256"
        },
        {
          "internalType": "uint256",
          "name": "projectId",
          "type": "uint256"
        },
        {
          "internalType": "uint256",
          "name": "amount",
          "type": "uint256"
        },
        {
          "internalType": "uint256",
          "name": "timestamp",
          "type": "uint256"
        }
      ],
      "stateMutability": "view",
      "type": "function"
    },
    {
      "inputs": [
        {
          "internalType": "uint256",
          "name": "distributionId",
          "type": "uint256"
        },
        {
          "internalType": "address",
          "name": "investor",
          "type": "address"
        }
      ],
      "name": "hasClaimedRevenue",
      "outputs": [
        {
          "internalType": "bool",
          "name": "",
          "type": "bool"
        }
      ],
      "stateMutability": "view",
      "type": "function"
    },
    {
      "inputs": [
        {
          "internalType": "uint256",
          "name": "",
          "type": "uint256"
        }
      ],
      "name": "minDistributionAmount",
      "outputs": [
        {
          "internalType": "uint256",
          "name": "",
          "type": "uint256"
        }
      ],
      "stateMutability": "view",
      "type": "function"
    },
    {
      "inputs": [],
      "name": "owner",
      "outputs": [
        {
          "internalType": "address",
          "name": "",
          "type": "address"
        }
      ],
      "stateMutability": "view",
      "type": "function"
    },
    {
      "inputs": [],
      "name": "pause",
      "outputs": [],
      "stateMutability": "nonpayable",
      "type": "function"
    },
    {
      "inputs": [],
      "name": "paused",
      "outputs": [
        {
          "internalType": "bool",
          "name": "",
          "type": "bool"
        }
      ],
      "stateMutability": "view",
      "type": "function"
    },
    {
      "inputs": [
        {
          "internalType": "uint256",
          "name": "projectId",
          "type": "uint256"
        }
      ],
      "name": "processDistributions",
      "outputs": [],
      "stateMutability": "nonpayable",
      "type": "function"
    },
    {
      "inputs": [
        {
          "internalType": "uint256",
          "name": "",
          "type": "uint256"
        }
      ],
      "name": "projectFees",
      "outputs": [
        {
          "internalType": "uint256",
          "name": "distributionFee",
          "type": "uint256"
        },
        {
          "internalType": "address",
          "name": "feeRecipient",
          "type": "address"
        }
      ],
      "stateMutability": "view",
      "type": "function"
    },
    {
      "inputs": [],
      "name": "projectRegistry",
      "outputs": [
        {
          "internalType": "contract ProjectRegistry",
          "name": "",
          "type": "address"
        }
      ],
      "stateMutability": "view",
      "type": "function"
    },
    {
      "inputs": [
        {
          "internalType": "uint256",
          "name": "projectId",
          "type": "uint256"
        }
      ],
      "name": "receiveRevenue",
      "outputs": [],
      "stateMutability": "payable",
      "type": "function"
    },
    {
      "inputs": [],
      "name": "renounceOwnership",
      "outputs": [],
      "stateMutability": "nonpayable",
      "type": "function"
    },
    {
      "inputs": [
        {
          "internalType": "uint256",
          "name": "projectId",
          "type": "uint256"
        },
        {
          "internalType": "uint256",
          "name": "amount",
          "type": "uint256"
        }
      ],
      "name": "setMinDistributionAmount",
      "outputs": [],
      "stateMutability": "nonpayable",
      "type": "function"
    },
    {
      "inputs": [
        {
          "internalType": "uint256",
          "name": "projectId",
          "type": "uint256"
        },
        {
          "internalType": "uint256",
          "name": "distributionFee",
          "type": "uint256"
        },
        {
          "internalType": "address",
          "name": "feeRecipient",
          "type": "address"
        }
      ],
      "name": "setProjectFees",
      "outputs": [],
      "stateMutability": "nonpayable",
      "type": "function"
    },
    {
      "inputs": [
        {
          "internalType": "address",
          "name": "newOwner",
          "type": "address"
        }
      ],
      "name": "transferOwnership",
      "outputs": [],
      "stateMutability": "nonpayable",
      "type": "function"
    },
    {
      "inputs": [],
      "name": "unpause",
      "outputs": [],
      "stateMutability": "nonpayable",
      "type": "function"
    },
    {
      "stateMutability": "payable",
      "type": "receive"
    }
  ],
  "bytecode": "0x60806040523480156200001157600080fd5b5060405162001c9c38038062001c9c8339810160408190526200003491620000eb565b6200003f3362000082565b6000805460ff60a01b1916905560018055600280546001600160a01b039384166001600160a01b031991821617909155600380549290931691161790556200012a565b600080546001600160a01b038381166001600160a01b0319831681178455604051919092169283917f8be0079c531659141344cd1fd0a4f28419497f9722a3daafe3b4186f6b6457e09190a35050565b6001600160a01b0381168114620000e857600080fd5b50565b60008060408385031215620000ff57600080fd5b82516200010c81620000d2565b60208401519092506200011f81620000d2565b809150509250929050565b611b62806200013a6000396000f3fe6080604052600436106101445760003560e01c80635c975abb116100b6578063b0e808a41161006f578063b0e808a414610443578063bd4ebf3714610463578063c2a1448514610476578063c65c3d9514610496578063e07f3fe1146104ac578063f2fde38b146104d957600080fd5b80635c975abb1461036b578063715018a61461038a578063766868db1461039f5780638456cb59146103cd5780638da5cb5b146103e2578063964d04a31461040057600080fd5b80633d140d21116101085780633d140d21146102745780633f4ba83a146102945780634487d3df146102a9578063476de4d31461030b5780635737dfe11461032b5780635a33d8dc1461034b57600080fd5b806307a300d9146101505780631083f761146101725780631509ced8146101af5780631cb536ed146101fa578063314a37fb1461021a57600080fd5b3661014b57005b600080fd5b34801561015c57600080fd5b5061017061016b36600461162f565b6104f9565b005b34801561017e57600080fd5b50600354610192906001600160a01b031681565b6040516001600160a01b0390911681526020015b60405180910390f35b3480156101bb57600080fd5b506101ea6101ca366004611668565b600760209081526000928352604080842090915290825290205460ff1681565b60405190151581526020016101a6565b34801561020657600080fd5b506101706102153660046116a1565b6105d2565b34801561022657600080fd5b506102576102353660046116a1565b600560205260009081526040902080546001909101546001600160a01b031682565b604080519283526001600160a01b039091166020830152016101a6565b34801561028057600080fd5b5061017061028f3660046116c8565b610960565b3480156102a057600080fd5b506101706109cc565b3480156102b557600080fd5b506102eb6102c43660046116a1565b60046020526000908152604090208054600182015460028301546003909301549192909184565b6040805194855260208501939093529183015260608201526080016101a6565b34801561031757600080fd5b506101706103263660046116f6565b6109de565b34801561033757600080fd5b506101ea6103463660046116f6565b610d6b565b34801561035757600080fd5b50600254610192906001600160a01b031681565b34801561037757600080fd5b50600054600160a01b900460ff166101ea565b34801561039657600080fd5b50610170610d9a565b3480156103ab57600080fd5b506103bf6103ba3660046116f6565b610dac565b6040519081526020016101a6565b3480156103d957600080fd5b50610170610ef4565b3480156103ee57600080fd5b506000546001600160a01b0316610192565b34801561040c57600080fd5b506102eb61041b3660046116a1565b6000908152600460205260409020805460018201546002830154600390930154919390929190565b34801561044f57600080fd5b5061017061045e3660046116a1565b610f04565b6101706104713660046116a1565b6110ac565b34801561048257600080fd5b5061017061049136600461171b565b6112ed565b3480156104a257600080fd5b506103bf60085481565b3480156104b857600080fd5b506103bf6104c73660046116a1565b60066020526000908152604090205481565b3480156104e557600080fd5b506101706104f436600461173d565b611367565b6105016113e2565b6103e88211156105245760405163390edff560e11b815260040160405180910390fd5b6001600160a01b03811661054b57604051630ed1b8b360e31b815260040160405180910390fd5b6040805180820182528381526001600160a01b0383811660208084018281526000898152600583528690209451855551600190940180546001600160a01b031916949093169390931790915582518581529182015284917f660e7095066fd91b05cfad0851f3cefa62b4a62de319c3c13ef7db8982e78501910160405180910390a2505050565b6105da61143c565b6105e2611489565b60008181526004602052604090208054821461061157604051630d16b83360e31b815260040160405180910390fd5b33803b15610655575032600081815260076020908152604080832033845290915290205460ff166106555760405163c19f17a960e01b815260040160405180910390fd5b6001600160a01b038116600090815260048301602052604090205460ff161561069157604051630c8d9eab60e31b815260040160405180910390fd5b600254604051632a5bb1b760e11b81526001600160a01b038381166004830152909116906354b7636e90602401602060405180830381865afa1580156106db573d6000803e3d6000fd5b505050506040513d601f19601f820116820180604052508101906106ff9190611761565b61071c5760405163eda5389560e01b815260040160405180910390fd5b600354604080516318160ddd60e01b815290516000926001600160a01b0316916318160ddd9160048083019260209291908290030181865afa158015610766573d6000803e3d6000fd5b505050506040513d601f19601f8201168201806040525081019061078a919061177e565b9050806000036107ad57604051632fa2a9bf60e21b815260040160405180910390fd5b6003546040516370a0823160e01b81526001600160a01b03848116600483015260009216906370a0823190602401602060405180830381865afa1580156107f8573d6000803e3d6000fd5b505050506040513d601f19601f8201168201806040525081019061081c919061177e565b90508060000361083f5760405163d55eb96360e01b815260040160405180910390fd5b60008282866002015461085291906117ad565b61085c91906117c4565b90508060000361087f5760405163d55eb96360e01b815260040160405180910390fd5b6001600160a01b0384166000818152600487016020526040808220805460ff191660011790555190919083908381818185875af1925050503d80600081146108e3576040519150601f19603f3d011682016040523d82523d6000602084013e6108e8565b606091505b505090508061090a576040516312171d8360e31b815260040160405180910390fd5b846001600160a01b0316877fb9e8470097faa00e83252475f2ee4b69007b0bb2405268ebec248676998a21b38460405161094691815260200190565b60405180910390a350505050505061095d60018055565b50565b3360008181526007602090815260408083206001600160a01b03871680855290835292819020805460ff191686151590811790915590519081529192917f9f38c81c1e9cacacd0164ea32b7ef77030a477aa51fb25be746c93ee9181887e910160405180910390a35050565b6109d46113e2565b6109dc6114e2565b565b6109e661143c565b6109ee611489565b600082815260046020526040902080548314610a1d57604051630d16b83360e31b815260040160405180910390fd5b6001600160a01b038216600090815260076020908152604080832033845290915290205460ff16610a615760405163c19f17a960e01b815260040160405180910390fd5b6001600160a01b038216600090815260048201602052604090205460ff1615610a9d57604051630c8d9eab60e31b815260040160405180910390fd5b600254604051632a5bb1b760e11b81526001600160a01b038481166004830152909116906354b7636e90602401602060405180830381865afa158015610ae7573d6000803e3d6000fd5b505050506040513d601f19601f82011682018060405250810190610b0b9190611761565b610b285760405163eda5389560e01b815260040160405180910390fd5b600354604080516318160ddd60e01b815290516000926001600160a01b0316916318160ddd9160048083019260209291908290030181865afa158015610b72573d6000803e3d6000fd5b505050506040513d601f19601f82011682018060405250810190610b96919061177e565b905080600003610bb957604051632fa2a9bf60e21b815260040160405180910390fd5b6003546040516370a0823160e01b81526001600160a01b03858116600483015260009216906370a0823190602401602060405180830381865afa158015610c04573d6000803e3d6000fd5b505050506040513d601f19601f82011682018060405250810190610c28919061177e565b905080600003610c4b5760405163d55eb96360e01b815260040160405180910390fd5b600082828560020154610c5e91906117ad565b610c6891906117c4565b905080600003610c8b5760405163d55eb96360e01b815260040160405180910390fd5b6001600160a01b0385166000908152600485016020526040808220805460ff1916600117905551339083908381818185875af1925050503d8060008114610cee576040519150601f19603f3d011682016040523d82523d6000602084013e610cf3565b606091505b5050905080610d15576040516312171d8360e31b815260040160405180910390fd5b856001600160a01b0316877fb9e8470097faa00e83252475f2ee4b69007b0bb2405268ebec248676998a21b384604051610d5191815260200190565b60405180910390a35050505050610d6760018055565b5050565b60008281526004602081815260408084206001600160a01b0386168552909201905290205460ff165b92915050565b610da26113e2565b6109dc6000611537565b600082815260046020526040812080548414610ddb57604051630d16b83360e31b815260040160405180910390fd5b600354604080516318160ddd60e01b815290516000926001600160a01b0316916318160ddd9160048083019260209291908290030181865afa158015610e25573d6000803e3d6000fd5b505050506040513d601f19601f82011682018060405250810190610e49919061177e565b905080600003610e5e57600092505050610d94565b6003546040516370a0823160e01b81526001600160a01b03868116600483015260009216906370a0823190602401602060405180830381865afa158015610ea9573d6000803e3d6000fd5b505050506040513d601f19601f82011682018060405250810190610ecd919061177e565b905081818460020154610ee091906117ad565b610eea91906117c4565b9695505050505050565b610efc6113e2565b6109dc611587565b610f0c61143c565b610f14611489565b600254604051635f8439e360e01b81526004810183905260009182916001600160a01b0390911690635f8439e390602401600060405180830381865afa158015610f62573d6000803e3d6000fd5b505050506040513d6000823e601f3d908101601f19168201604052610f8a91908101906119ed565b919350909150600190508260a001516003811115610faa57610faa611aea565b14610fc857604051632fa2a9bf60e21b815260040160405180910390fd5b81606001516001600160a01b0316336001600160a01b031614610ffe57604051637c2411e960e01b815260040160405180910390fd5b47600081900361102157604051631e9acf1760e31b815260040160405180910390fd5b600880546000918261103283611b00565b90915550600081815260046020526040908190208281556001810188905560028101859055426003820155905191925090869083907f6215b003e186dbc79e3bd07b486dc69758f50dab026e5d485d4a945d56015447906110969087815260200190565b60405180910390a3505050505061095d60018055565b6110b461143c565b6110bc611489565b346000036110dd5760405163d55eb96360e01b815260040160405180910390fd5b600254604051635f8439e360e01b81526004810183905260009182916001600160a01b0390911690635f8439e390602401600060405180830381865afa15801561112b573d6000803e3d6000fd5b505050506040513d6000823e601f3d908101601f1916820160405261115391908101906119ed565b919350909150600190508260a00151600381111561117357611173611aea565b1461119157604051632fa2a9bf60e21b815260040160405180910390fd5b60088054600091826111a283611b00565b90915550600081815260046020908152604080832084815560018082018a905589855260058452828520835180850190945280548085529101546001600160a01b0316938301939093529394509190612710906111ff90346117ad565b61120991906117c4565b90506112158134611b19565b6002840155426003840155801580159061123b575060208201516001600160a01b031615155b156112ba57600082602001516001600160a01b03168260405160006040518083038185875af1925050503d8060008114611291576040519150601f19603f3d011682016040523d82523d6000602084013e611296565b606091505b50509050806112b8576040516312171d8360e31b815260040160405180910390fd5b505b86847f6215b003e186dbc79e3bd07b486dc69758f50dab026e5d485d4a945d560154473460405161094691815260200190565b6112f56113e2565b806000036113165760405163162908e360e11b815260040160405180910390fd5b600082815260066020526040908190208290555182907f3ed3c95bab7efd0ace27d48873faeb1b6e21aec077992bbe3c432c805bc5fae99061135b9084815260200190565b60405180910390a25050565b61136f6113e2565b6001600160a01b0381166113d95760405162461bcd60e51b815260206004820152602660248201527f4f776e61626c653a206e6577206f776e657220697320746865207a65726f206160448201526564647265737360d01b60648201526084015b60405180910390fd5b61095d81611537565b6000546001600160a01b031633146109dc5760405162461bcd60e51b815260206004820181905260248201527f4f776e61626c653a2063616c6c6572206973206e6f7420746865206f776e657260448201526064016113d0565b600054600160a01b900460ff16156109dc5760405162461bcd60e51b815260206004820152601060248201526f14185d5cd8589b194e881c185d5cd95960821b60448201526064016113d0565b6002600154036114db5760405162461bcd60e51b815260206004820152601f60248201527f5265656e7472616e637947756172643a207265656e7472616e742063616c6c0060448201526064016113d0565b6002600155565b6114ea6115ca565b6000805460ff60a01b191690557f5db9ee0a495bf2e6ff9c91a7834c1ba4fdd244a5e8aa4e537bd38aeae4b073aa335b6040516001600160a01b03909116815260200160405180910390a1565b600080546001600160a01b038381166001600160a01b0319831681178455604051919092169283917f8be0079c531659141344cd1fd0a4f28419497f9722a3daafe3b4186f6b6457e09190a35050565b61158f61143c565b6000805460ff60a01b1916600160a01b1790557f62e78cea01bee320cd4e420270b5ea74000d11b0c9f74754ebdbfc544b05a25861151a3390565b600054600160a01b900460ff166109dc5760405162461bcd60e51b815260206004820152601460248201527314185d5cd8589b194e881b9bdd081c185d5cd95960621b60448201526064016113d0565b6001600160a01b038116811461095d57600080fd5b60008060006060848603121561164457600080fd5b8335925060208401359150604084013561165d8161161a565b809150509250925092565b6000806040838503121561167b57600080fd5b82356116868161161a565b915060208301356116968161161a565b809150509250929050565b6000602082840312156116b357600080fd5b5035919050565b801515811461095d57600080fd5b600080604083850312156116db57600080fd5b82356116e68161161a565b91506020830135611696816116ba565b6000806040838503121561170957600080fd5b8235915060208301356116968161161a565b6000806040838503121561172e57600080fd5b50508035926020909101359150565b60006020828403121561174f57600080fd5b813561175a8161161a565b9392505050565b60006020828403121561177357600080fd5b815161175a816116ba565b60006020828403121561179057600080fd5b5051919050565b634e487b7160e01b600052601160045260246000fd5b8082028115828204841417610d9457610d94611797565b6000826117e157634e487b7160e01b600052601260045260246000fd5b500490565b634e487b7160e01b600052604160045260246000fd5b60405160c0810167ffffffffffffffff8111828210171561181f5761181f6117e6565b60405290565b604051601f8201601f1916810167ffffffffffffffff8111828210171561184e5761184e6117e6565b604052919050565b600082601f83011261186757600080fd5b815167ffffffffffffffff811115611881576118816117e6565b6020611895601f8301601f19168201611825565b82815285828487010111156118a957600080fd5b60005b838110156118c75785810183015182820184015282016118ac565b506000928101909101919091529392505050565b80516118e68161161a565b919050565b8051600481106118e657600080fd5b600060a0828403121561190c57600080fd5b60405160a0810181811067ffffffffffffffff8211171561192f5761192f6117e6565b806040525080915082518152602083015160208201526040830151604082015260608301516060820152608083015160808201525092915050565b60006060828403121561197c57600080fd5b6040516060810167ffffffffffffffff82821081831117156119a0576119a06117e6565b816040528293508451835260208501519150808211156119bf57600080fd5b506119cc85828601611856565b60208301525060408301516119e08161161a565b6040919091015292915050565b600080600060e08486031215611a0257600080fd5b835167ffffffffffffffff80821115611a1a57600080fd5b9085019060c08288031215611a2e57600080fd5b611a366117fc565b82518152602083015182811115611a4c57600080fd5b611a5889828601611856565b602083015250604083015182811115611a7057600080fd5b611a7c89828601611856565b604083015250611a8e606084016118db565b606082015260808301516080820152611aa960a084016118eb565b60a08201529450611abd87602088016118fa565b935060c0860151915080821115611ad357600080fd5b50611ae08682870161196a565b9150509250925092565b634e487b7160e01b600052602160045260246000fd5b600060018201611b1257611b12611797565b5060010190565b81810381811115610d9457610d9461179756fea2646970667358221220fb5830e29460bd5f28d2d4b544a9b5a01ec0bcc4f560202f864856e3b438928c64736f6c63430008140033",
  "linkReferences": {},
  "deployedLinkReferences": {}
}