{
  "_format": "hh-sol-artifact-1",
  "contractName": "RevenueDistributor",
  "sourceName": "contracts/RevenueDistributor.sol",
  "abi": [
    {
      "inputs": [
        {
          "internalType": "address",
          "name": "_projectRegistry",
          "type": "address"
        },
        {
          "internalType": "address payable",
          "name": "_assetToken",
          "type": "address"
        }
      ],
      "stateMutability": "nonpayable",
      "type": "constructor"
    },
    {
      "inputs": [],
      "name": "AlreadyClaimed",
      "type": "error"
    },
    {
      "inputs": [],
      "name": "InsufficientBalance",
      "type": "error"
    },
    {
      "inputs": [],
      "name": "InvalidAmount",
      "type": "error"
    },
    {
      "inputs": [],
      "name": "InvalidDistribution",
      "type": "error"
    },
    {
      "inputs": [],
      "name": "InvalidFeePercentage",
      "type": "error"
    },
    {
      "inputs": [],
      "name": "InvalidFeeRecipient",
      "type": "error"
    },
    {
      "inputs": [],
      "name": "InvalidProject",
      "type": "error"
    },
    {
      "inputs": [],
      "name": "InvestorNotVerified",
      "type": "error"
    },
    {
      "inputs": [],
      "name": "NoRevenue",
      "type": "error"
    },
    {
      "inputs": [],
      "name": "NotProjectOwner",
      "type": "error"
    },
    {
      "inputs": [],
      "name": "TransferFailed",
      "type": "error"
    },
    {
      "anonymous": false,
      "inputs": [
        {
          "indexed": true,
          "internalType": "uint256",
          "name": "projectId",
          "type": "uint256"
        },
        {
          "indexed": false,
          "internalType": "uint256",
          "name": "distributionFee",
          "type": "uint256"
        },
        {
          "indexed": false,
          "internalType": "address",
          "name": "feeRecipient",
          "type": "address"
        }
      ],
      "name": "FeesUpdated",
      "type": "event"
    },
    {
      "anonymous": false,
      "inputs": [
        {
          "indexed": true,
          "internalType": "uint256",
          "name": "projectId",
          "type": "uint256"
        },
        {
          "indexed": false,
          "internalType": "uint256",
          "name": "amount",
          "type": "uint256"
        }
      ],
      "name": "MinDistributionAmountUpdated",
      "type": "event"
    },
    {
      "anonymous": false,
      "inputs": [
        {
          "indexed": true,
          "internalType": "address",
          "name": "previousOwner",
          "type": "address"
        },
        {
          "indexed": true,
          "internalType": "address",
          "name": "newOwner",
          "type": "address"
        }
      ],
      "name": "OwnershipTransferred",
      "type": "event"
    },
    {
      "anonymous": false,
      "inputs": [
        {
          "indexed": false,
          "internalType": "address",
          "name": "account",
          "type": "address"
        }
      ],
      "name": "Paused",
      "type": "event"
    },
    {
      "anonymous": false,
      "inputs": [
        {
          "indexed": true,
          "internalType": "uint256",
          "name": "distributionId",
          "type": "uint256"
        },
        {
          "indexed": true,
          "internalType": "address",
          "name": "investor",
          "type": "address"
        },
        {
          "indexed": false,
          "internalType": "uint256",
          "name": "amount",
          "type": "uint256"
        }
      ],
      "name": "RevenueClaimed",
      "type": "event"
    },
    {
      "anonymous": false,
      "inputs": [
        {
          "indexed": true,
          "internalType": "uint256",
          "name": "distributionId",
          "type": "uint256"
        },
        {
          "indexed": true,
          "internalType": "uint256",
          "name": "projectId",
          "type": "uint256"
        },
        {
          "indexed": false,
          "internalType": "uint256",
          "name": "amount",
          "type": "uint256"
        }
      ],
      "name": "RevenueDistributed",
      "type": "event"
    },
    {
      "anonymous": false,
      "inputs": [
        {
          "indexed": false,
          "internalType": "address",
          "name": "account",
          "type": "address"
        }
      ],
      "name": "Unpaused",
      "type": "event"
    },
    {
      "inputs": [],
      "name": "assetToken",
      "outputs": [
        {
          "internalType": "contract AssetToken",
          "name": "",
          "type": "address"
        }
      ],
      "stateMutability": "view",
      "type": "function"
    },
    {
      "inputs": [
        {
          "internalType": "uint256",
          "name": "distributionId",
          "type": "uint256"
        },
        {
          "internalType": "address",
          "name": "investor",
          "type": "address"
        }
      ],
      "name": "calculateShare",
      "outputs": [
        {
          "internalType": "uint256",
          "name": "",
          "type": "uint256"
        }
      ],
      "stateMutability": "view",
      "type": "function"
    },
    {
      "inputs": [
        {
          "internalType": "uint256",
          "name": "distributionId",
          "type": "uint256"
        }
      ],
      "name": "claimRevenue",
      "outputs": [],
      "stateMutability": "nonpayable",
      "type": "function"
    },
    {
      "inputs": [],
      "name": "distributionCount",
      "outputs": [
        {
          "internalType": "uint256",
          "name": "",
          "type": "uint256"
        }
      ],
      "stateMutability": "view",
      "type": "function"
    },
    {
      "inputs": [
        {
          "internalType": "uint256",
          "name": "",
          "type": "uint256"
        }
      ],
      "name": "distributions",
      "outputs": [
        {
          "internalType": "uint256",
          "name": "id",
          "type": "uint256"
        },
        {
          "internalType": "uint256",
          "name": "projectId",
          "type": "uint256"
        },
        {
          "internalType": "uint256",
          "name": "amount",
          "type": "uint256"
        },
        {
          "internalType": "uint256",
          "name": "timestamp",
          "type": "uint256"
        }
      ],
      "stateMutability": "view",
      "type": "function"
    },
    {
      "inputs": [
        {
          "internalType": "uint256",
          "name": "distributionId",
          "type": "uint256"
        }
      ],
      "name": "getDistributionDetails",
      "outputs": [
        {
          "internalType": "uint256",
          "name": "id",
          "type": "uint256"
        },
        {
          "internalType": "uint256",
          "name": "projectId",
          "type": "uint256"
        },
        {
          "internalType": "uint256",
          "name": "amount",
          "type": "uint256"
        },
        {
          "internalType": "uint256",
          "name": "timestamp",
          "type": "uint256"
        }
      ],
      "stateMutability": "view",
      "type": "function"
    },
    {
      "inputs": [
        {
          "internalType": "uint256",
          "name": "distributionId",
          "type": "uint256"
        },
        {
          "internalType": "address",
          "name": "investor",
          "type": "address"
        }
      ],
      "name": "hasClaimedRevenue",
      "outputs": [
        {
          "internalType": "bool",
          "name": "",
          "type": "bool"
        }
      ],
      "stateMutability": "view",
      "type": "function"
    },
    {
      "inputs": [
        {
          "internalType": "uint256",
          "name": "",
          "type": "uint256"
        }
      ],
      "name": "minDistributionAmount",
      "outputs": [
        {
          "internalType": "uint256",
          "name": "",
          "type": "uint256"
        }
      ],
      "stateMutability": "view",
      "type": "function"
    },
    {
      "inputs": [],
      "name": "owner",
      "outputs": [
        {
          "internalType": "address",
          "name": "",
          "type": "address"
        }
      ],
      "stateMutability": "view",
      "type": "function"
    },
    {
      "inputs": [],
      "name": "pause",
      "outputs": [],
      "stateMutability": "nonpayable",
      "type": "function"
    },
    {
      "inputs": [],
      "name": "paused",
      "outputs": [
        {
          "internalType": "bool",
          "name": "",
          "type": "bool"
        }
      ],
      "stateMutability": "view",
      "type": "function"
    },
    {
      "inputs": [
        {
          "internalType": "uint256",
          "name": "projectId",
          "type": "uint256"
        }
      ],
      "name": "processDistributions",
      "outputs": [],
      "stateMutability": "nonpayable",
      "type": "function"
    },
    {
      "inputs": [
        {
          "internalType": "uint256",
          "name": "",
          "type": "uint256"
        }
      ],
      "name": "projectFees",
      "outputs": [
        {
          "internalType": "uint256",
          "name": "distributionFee",
          "type": "uint256"
        },
        {
          "internalType": "address",
          "name": "feeRecipient",
          "type": "address"
        }
      ],
      "stateMutability": "view",
      "type": "function"
    },
    {
      "inputs": [],
      "name": "projectRegistry",
      "outputs": [
        {
          "internalType": "contract ProjectRegistry",
          "name": "",
          "type": "address"
        }
      ],
      "stateMutability": "view",
      "type": "function"
    },
    {
      "inputs": [
        {
          "internalType": "uint256",
          "name": "projectId",
          "type": "uint256"
        }
      ],
      "name": "receiveRevenue",
      "outputs": [],
      "stateMutability": "payable",
      "type": "function"
    },
    {
      "inputs": [],
      "name": "renounceOwnership",
      "outputs": [],
      "stateMutability": "nonpayable",
      "type": "function"
    },
    {
      "inputs": [
        {
          "internalType": "uint256",
          "name": "projectId",
          "type": "uint256"
        },
        {
          "internalType": "uint256",
          "name": "amount",
          "type": "uint256"
        }
      ],
      "name": "setMinDistributionAmount",
      "outputs": [],
      "stateMutability": "nonpayable",
      "type": "function"
    },
    {
      "inputs": [
        {
          "internalType": "uint256",
          "name": "projectId",
          "type": "uint256"
        },
        {
          "internalType": "uint256",
          "name": "distributionFee",
          "type": "uint256"
        },
        {
          "internalType": "address",
          "name": "feeRecipient",
          "type": "address"
        }
      ],
      "name": "setProjectFees",
      "outputs": [],
      "stateMutability": "nonpayable",
      "type": "function"
    },
    {
      "inputs": [
        {
          "internalType": "address",
          "name": "newOwner",
          "type": "address"
        }
      ],
      "name": "transferOwnership",
      "outputs": [],
      "stateMutability": "nonpayable",
      "type": "function"
    },
    {
      "inputs": [],
      "name": "unpause",
      "outputs": [],
      "stateMutability": "nonpayable",
      "type": "function"
    },
    {
      "stateMutability": "payable",
      "type": "receive"
    }
  ],
  "bytecode": "0x60806040523480156200001157600080fd5b506040516200184c3803806200184c8339810160408190526200003491620000eb565b6200003f3362000082565b6000805460ff60a01b1916905560018055600280546001600160a01b039384166001600160a01b031991821617909155600380549290931691161790556200012a565b600080546001600160a01b038381166001600160a01b0319831681178455604051919092169283917f8be0079c531659141344cd1fd0a4f28419497f9722a3daafe3b4186f6b6457e09190a35050565b6001600160a01b0381168114620000e857600080fd5b50565b60008060408385031215620000ff57600080fd5b82516200010c81620000d2565b60208401519092506200011f81620000d2565b809150509250929050565b611712806200013a6000396000f3fe6080604052600436106101235760003560e01c8063766868db116100a0578063bd4ebf3711610064578063bd4ebf37146103c7578063c2a14485146103da578063c65c3d95146103fa578063e07f3fe114610410578063f2fde38b1461043d57600080fd5b8063766868db146103035780638456cb59146103315780638da5cb5b14610346578063964d04a314610364578063b0e808a4146103a757600080fd5b80634487d3df116100e75780634487d3df1461021d5780635737dfe11461027f5780635a33d8dc146102af5780635c975abb146102cf578063715018a6146102ee57600080fd5b806307a300d91461012f5780631083f761146101515780631cb536ed1461018e578063314a37fb146101ae5780633f4ba83a1461020857600080fd5b3661012a57005b600080fd5b34801561013b57600080fd5b5061014f61014a366004611244565b61045d565b005b34801561015d57600080fd5b50600354610171906001600160a01b031681565b6040516001600160a01b0390911681526020015b60405180910390f35b34801561019a57600080fd5b5061014f6101a936600461127d565b610536565b3480156101ba57600080fd5b506101eb6101c936600461127d565b600560205260009081526040902080546001909101546001600160a01b031682565b604080519283526001600160a01b03909116602083015201610185565b34801561021457600080fd5b5061014f6108e5565b34801561022957600080fd5b5061025f61023836600461127d565b60046020526000908152604090208054600182015460028301546003909301549192909184565b604080519485526020850193909352918301526060820152608001610185565b34801561028b57600080fd5b5061029f61029a366004611296565b6108f7565b6040519015158152602001610185565b3480156102bb57600080fd5b50600254610171906001600160a01b031681565b3480156102db57600080fd5b50600054600160a01b900460ff1661029f565b3480156102fa57600080fd5b5061014f610926565b34801561030f57600080fd5b5061032361031e366004611296565b610938565b604051908152602001610185565b34801561033d57600080fd5b5061014f610b09565b34801561035257600080fd5b506000546001600160a01b0316610171565b34801561037057600080fd5b5061025f61037f36600461127d565b6000908152600460205260409020805460018201546002830154600390930154919390929190565b3480156103b357600080fd5b5061014f6103c236600461127d565b610b19565b61014f6103d536600461127d565b610cc1565b3480156103e657600080fd5b5061014f6103f53660046112c6565b610f02565b34801561040657600080fd5b5061032360075481565b34801561041c57600080fd5b5061032361042b36600461127d565b60066020526000908152604090205481565b34801561044957600080fd5b5061014f6104583660046112e8565b610f7c565b610465610ff7565b6103e88211156104885760405163390edff560e11b815260040160405180910390fd5b6001600160a01b0381166104af57604051630ed1b8b360e31b815260040160405180910390fd5b6040805180820182528381526001600160a01b0383811660208084018281526000898152600583528690209451855551600190940180546001600160a01b031916949093169390931790915582518581529182015284917f660e7095066fd91b05cfad0851f3cefa62b4a62de319c3c13ef7db8982e78501910160405180910390a2505050565b61053e611051565b61054661109e565b60008181526004602052604090208054821461057557604051630d16b83360e31b815260040160405180910390fd5b33600090815260048201602052604090205460ff16156105a857604051630c8d9eab60e31b815260040160405180910390fd5b600254604051632a5bb1b760e11b81523360048201526001600160a01b03909116906354b7636e90602401602060405180830381865afa1580156105f0573d6000803e3d6000fd5b505050506040513d601f19601f82011682018060405250810190610614919061130c565b6106315760405163eda5389560e01b815260040160405180910390fd5b6002546001820154604051635f8439e360e01b815260048101919091526000916001600160a01b031690635f8439e390602401600060405180830381865afa158015610681573d6000803e3d6000fd5b505050506040513d6000823e601f3d908101601f191682016040526106a99190810190611535565b925050506000600360009054906101000a90046001600160a01b03166001600160a01b03166318160ddd6040518163ffffffff1660e01b8152600401602060405180830381865afa158015610702573d6000803e3d6000fd5b505050506040513d601f19601f820116820180604052508101906107269190611632565b90508060000361074957604051632fa2a9bf60e21b815260040160405180910390fd5b6003546040516370a0823160e01b81523360048201526000916001600160a01b0316906370a0823190602401602060405180830381865afa158015610792573d6000803e3d6000fd5b505050506040513d601f19601f820116820180604052508101906107b69190611632565b9050806000036107d95760405163d55eb96360e01b815260040160405180910390fd5b6000828286600201546107ec9190611661565b6107f69190611678565b9050806000036108195760405163d55eb96360e01b815260040160405180910390fd5b336000818152600487016020526040808220805460ff191660011790555190919083908381818185875af1925050503d8060008114610874576040519150601f19603f3d011682016040523d82523d6000602084013e610879565b606091505b505090508061089b576040516312171d8360e31b815260040160405180910390fd5b604051828152339088907fb9e8470097faa00e83252475f2ee4b69007b0bb2405268ebec248676998a21b3906020015b60405180910390a35050505050506108e260018055565b50565b6108ed610ff7565b6108f56110f7565b565b60008281526004602081815260408084206001600160a01b0386168552909201905290205460ff165b92915050565b61092e610ff7565b6108f5600061114c565b60008281526004602052604081208054841461096757604051630d16b83360e31b815260040160405180910390fd5b6002546001820154604051635f8439e360e01b815260048101919091526000916001600160a01b031690635f8439e390602401600060405180830381865afa1580156109b7573d6000803e3d6000fd5b505050506040513d6000823e601f3d908101601f191682016040526109df9190810190611535565b925050506000600360009054906101000a90046001600160a01b03166001600160a01b03166318160ddd6040518163ffffffff1660e01b8152600401602060405180830381865afa158015610a38573d6000803e3d6000fd5b505050506040513d601f19601f82011682018060405250810190610a5c9190611632565b905080600003610a725760009350505050610920565b6003546040516370a0823160e01b81526001600160a01b03878116600483015260009216906370a0823190602401602060405180830381865afa158015610abd573d6000803e3d6000fd5b505050506040513d601f19601f82011682018060405250810190610ae19190611632565b905081818560020154610af49190611661565b610afe9190611678565b979650505050505050565b610b11610ff7565b6108f561119c565b610b21611051565b610b2961109e565b600254604051635f8439e360e01b81526004810183905260009182916001600160a01b0390911690635f8439e390602401600060405180830381865afa158015610b77573d6000803e3d6000fd5b505050506040513d6000823e601f3d908101601f19168201604052610b9f9190810190611535565b919350909150600190508260a001516003811115610bbf57610bbf61169a565b14610bdd57604051632fa2a9bf60e21b815260040160405180910390fd5b81606001516001600160a01b0316336001600160a01b031614610c1357604051637c2411e960e01b815260040160405180910390fd5b476000819003610c3657604051631e9acf1760e31b815260040160405180910390fd5b6007805460009182610c47836116b0565b90915550600081815260046020526040908190208281556001810188905560028101859055426003820155905191925090869083907f6215b003e186dbc79e3bd07b486dc69758f50dab026e5d485d4a945d5601544790610cab9087815260200190565b60405180910390a350505050506108e260018055565b610cc9611051565b610cd161109e565b34600003610cf25760405163d55eb96360e01b815260040160405180910390fd5b600254604051635f8439e360e01b81526004810183905260009182916001600160a01b0390911690635f8439e390602401600060405180830381865afa158015610d40573d6000803e3d6000fd5b505050506040513d6000823e601f3d908101601f19168201604052610d689190810190611535565b919350909150600190508260a001516003811115610d8857610d8861169a565b14610da657604051632fa2a9bf60e21b815260040160405180910390fd5b6007805460009182610db7836116b0565b90915550600081815260046020908152604080832084815560018082018a905589855260058452828520835180850190945280548085529101546001600160a01b031693830193909352939450919061271090610e149034611661565b610e1e9190611678565b9050610e2a81346116c9565b60028401554260038401558015801590610e50575060208201516001600160a01b031615155b15610ecf57600082602001516001600160a01b03168260405160006040518083038185875af1925050503d8060008114610ea6576040519150601f19603f3d011682016040523d82523d6000602084013e610eab565b606091505b5050905080610ecd576040516312171d8360e31b815260040160405180910390fd5b505b86847f6215b003e186dbc79e3bd07b486dc69758f50dab026e5d485d4a945d56015447346040516108cb91815260200190565b610f0a610ff7565b80600003610f2b5760405163162908e360e11b815260040160405180910390fd5b600082815260066020526040908190208290555182907f3ed3c95bab7efd0ace27d48873faeb1b6e21aec077992bbe3c432c805bc5fae990610f709084815260200190565b60405180910390a25050565b610f84610ff7565b6001600160a01b038116610fee5760405162461bcd60e51b815260206004820152602660248201527f4f776e61626c653a206e6577206f776e657220697320746865207a65726f206160448201526564647265737360d01b60648201526084015b60405180910390fd5b6108e28161114c565b6000546001600160a01b031633146108f55760405162461bcd60e51b815260206004820181905260248201527f4f776e61626c653a2063616c6c6572206973206e6f7420746865206f776e65726044820152606401610fe5565b600054600160a01b900460ff16156108f55760405162461bcd60e51b815260206004820152601060248201526f14185d5cd8589b194e881c185d5cd95960821b6044820152606401610fe5565b6002600154036110f05760405162461bcd60e51b815260206004820152601f60248201527f5265656e7472616e637947756172643a207265656e7472616e742063616c6c006044820152606401610fe5565b6002600155565b6110ff6111df565b6000805460ff60a01b191690557f5db9ee0a495bf2e6ff9c91a7834c1ba4fdd244a5e8aa4e537bd38aeae4b073aa335b6040516001600160a01b03909116815260200160405180910390a1565b600080546001600160a01b038381166001600160a01b0319831681178455604051919092169283917f8be0079c531659141344cd1fd0a4f28419497f9722a3daafe3b4186f6b6457e09190a35050565b6111a4611051565b6000805460ff60a01b1916600160a01b1790557f62e78cea01bee320cd4e420270b5ea74000d11b0c9f74754ebdbfc544b05a25861112f3390565b600054600160a01b900460ff166108f55760405162461bcd60e51b815260206004820152601460248201527314185d5cd8589b194e881b9bdd081c185d5cd95960621b6044820152606401610fe5565b6001600160a01b03811681146108e257600080fd5b60008060006060848603121561125957600080fd5b833592506020840135915060408401356112728161122f565b809150509250925092565b60006020828403121561128f57600080fd5b5035919050565b600080604083850312156112a957600080fd5b8235915060208301356112bb8161122f565b809150509250929050565b600080604083850312156112d957600080fd5b50508035926020909101359150565b6000602082840312156112fa57600080fd5b81356113058161122f565b9392505050565b60006020828403121561131e57600080fd5b8151801515811461130557600080fd5b634e487b7160e01b600052604160045260246000fd5b60405160c0810167ffffffffffffffff811182821017156113675761136761132e565b60405290565b604051601f8201601f1916810167ffffffffffffffff811182821017156113965761139661132e565b604052919050565b600082601f8301126113af57600080fd5b815167ffffffffffffffff8111156113c9576113c961132e565b60206113dd601f8301601f1916820161136d565b82815285828487010111156113f157600080fd5b60005b8381101561140f5785810183015182820184015282016113f4565b506000928101909101919091529392505050565b805161142e8161122f565b919050565b80516004811061142e57600080fd5b600060a0828403121561145457600080fd5b60405160a0810181811067ffffffffffffffff821117156114775761147761132e565b806040525080915082518152602083015160208201526040830151604082015260608301516060820152608083015160808201525092915050565b6000606082840312156114c457600080fd5b6040516060810167ffffffffffffffff82821081831117156114e8576114e861132e565b8160405282935084518352602085015191508082111561150757600080fd5b506115148582860161139e565b60208301525060408301516115288161122f565b6040919091015292915050565b600080600060e0848603121561154a57600080fd5b835167ffffffffffffffff8082111561156257600080fd5b9085019060c0828803121561157657600080fd5b61157e611344565b8251815260208301518281111561159457600080fd5b6115a08982860161139e565b6020830152506040830151828111156115b857600080fd5b6115c48982860161139e565b6040830152506115d660608401611423565b6060820152608083015160808201526115f160a08401611433565b60a082015294506116058760208801611442565b935060c086015191508082111561161b57600080fd5b50611628868287016114b2565b9150509250925092565b60006020828403121561164457600080fd5b5051919050565b634e487b7160e01b600052601160045260246000fd5b80820281158282048414176109205761092061164b565b60008261169557634e487b7160e01b600052601260045260246000fd5b500490565b634e487b7160e01b600052602160045260246000fd5b6000600182016116c2576116c261164b565b5060010190565b818103818111156109205761092061164b56fea2646970667358221220bfb85f7517f6f8a7e7f98f010c7d8c07a22d0cf663715a0bd74203d07a0e33ea64736f6c63430008140033",
  "linkReferences": {},
  "deployedLinkReferences": {}
}