{
  "_format": "hh-sol-artifact-1",
  "contractName": "RevenueDistributor",
  "sourceName": "contracts/RevenueDistributor.sol",
  "abi": [
    {
      "inputs": [
        {
          "internalType": "address",
          "name": "_assetToken",
          "type": "address"
        },
        {
          "internalType": "address",
          "name": "_investmentManager",
          "type": "address"
        }
      ],
      "stateMutability": "nonpayable",
      "type": "constructor"
    },
    {
      "anonymous": false,
      "inputs": [
        {
          "indexed": true,
          "internalType": "uint256",
          "name": "projectId",
          "type": "uint256"
        },
        {
          "indexed": false,
          "internalType": "uint256",
          "name": "distributionId",
          "type": "uint256"
        }
      ],
      "name": "DistributionCompleted",
      "type": "event"
    },
    {
      "anonymous": false,
      "inputs": [
        {
          "indexed": true,
          "internalType": "address",
          "name": "previousOwner",
          "type": "address"
        },
        {
          "indexed": true,
          "internalType": "address",
          "name": "newOwner",
          "type": "address"
        }
      ],
      "name": "OwnershipTransferred",
      "type": "event"
    },
    {
      "anonymous": false,
      "inputs": [
        {
          "indexed": false,
          "internalType": "address",
          "name": "account",
          "type": "address"
        }
      ],
      "name": "Paused",
      "type": "event"
    },
    {
      "anonymous": false,
      "inputs": [
        {
          "indexed": true,
          "internalType": "uint256",
          "name": "projectId",
          "type": "uint256"
        },
        {
          "indexed": true,
          "internalType": "address",
          "name": "investor",
          "type": "address"
        },
        {
          "indexed": false,
          "internalType": "uint256",
          "name": "amount",
          "type": "uint256"
        }
      ],
      "name": "RevenueClaimed",
      "type": "event"
    },
    {
      "anonymous": false,
      "inputs": [
        {
          "indexed": true,
          "internalType": "uint256",
          "name": "projectId",
          "type": "uint256"
        },
        {
          "indexed": false,
          "internalType": "uint256",
          "name": "amount",
          "type": "uint256"
        }
      ],
      "name": "RevenueReceived",
      "type": "event"
    },
    {
      "anonymous": false,
      "inputs": [
        {
          "indexed": false,
          "internalType": "address",
          "name": "account",
          "type": "address"
        }
      ],
      "name": "Unpaused",
      "type": "event"
    },
    {
      "inputs": [],
      "name": "assetToken",
      "outputs": [
        {
          "internalType": "contract AssetToken",
          "name": "",
          "type": "address"
        }
      ],
      "stateMutability": "view",
      "type": "function"
    },
    {
      "inputs": [
        {
          "internalType": "uint256",
          "name": "projectId",
          "type": "uint256"
        },
        {
          "internalType": "uint256",
          "name": "distributionId",
          "type": "uint256"
        }
      ],
      "name": "claimRevenue",
      "outputs": [],
      "stateMutability": "nonpayable",
      "type": "function"
    },
    {
      "inputs": [
        {
          "internalType": "uint256",
          "name": "",
          "type": "uint256"
        },
        {
          "internalType": "address",
          "name": "",
          "type": "address"
        }
      ],
      "name": "claimedDistributions",
      "outputs": [
        {
          "internalType": "bool",
          "name": "",
          "type": "bool"
        }
      ],
      "stateMutability": "view",
      "type": "function"
    },
    {
      "inputs": [
        {
          "internalType": "uint256",
          "name": "projectId",
          "type": "uint256"
        },
        {
          "internalType": "uint256",
          "name": "distributionId",
          "type": "uint256"
        }
      ],
      "name": "distributeRevenue",
      "outputs": [],
      "stateMutability": "nonpayable",
      "type": "function"
    },
    {
      "inputs": [
        {
          "internalType": "uint256",
          "name": "projectId",
          "type": "uint256"
        },
        {
          "internalType": "uint256",
          "name": "distributionId",
          "type": "uint256"
        }
      ],
      "name": "getDistributionDetails",
      "outputs": [
        {
          "internalType": "uint256",
          "name": "amount",
          "type": "uint256"
        },
        {
          "internalType": "uint256",
          "name": "timestamp",
          "type": "uint256"
        },
        {
          "internalType": "bool",
          "name": "completed",
          "type": "bool"
        }
      ],
      "stateMutability": "view",
      "type": "function"
    },
    {
      "inputs": [],
      "name": "investmentManager",
      "outputs": [
        {
          "internalType": "contract InvestmentManager",
          "name": "",
          "type": "address"
        }
      ],
      "stateMutability": "view",
      "type": "function"
    },
    {
      "inputs": [],
      "name": "owner",
      "outputs": [
        {
          "internalType": "address",
          "name": "",
          "type": "address"
        }
      ],
      "stateMutability": "view",
      "type": "function"
    },
    {
      "inputs": [],
      "name": "paused",
      "outputs": [
        {
          "internalType": "bool",
          "name": "",
          "type": "bool"
        }
      ],
      "stateMutability": "view",
      "type": "function"
    },
    {
      "inputs": [
        {
          "internalType": "uint256",
          "name": "",
          "type": "uint256"
        },
        {
          "internalType": "uint256",
          "name": "",
          "type": "uint256"
        }
      ],
      "name": "projectDistributions",
      "outputs": [
        {
          "internalType": "uint256",
          "name": "projectId",
          "type": "uint256"
        },
        {
          "internalType": "uint256",
          "name": "amount",
          "type": "uint256"
        },
        {
          "internalType": "uint256",
          "name": "timestamp",
          "type": "uint256"
        },
        {
          "internalType": "bool",
          "name": "completed",
          "type": "bool"
        }
      ],
      "stateMutability": "view",
      "type": "function"
    },
    {
      "inputs": [
        {
          "internalType": "uint256",
          "name": "projectId",
          "type": "uint256"
        },
        {
          "internalType": "uint256",
          "name": "amount",
          "type": "uint256"
        }
      ],
      "name": "receiveRevenue",
      "outputs": [],
      "stateMutability": "payable",
      "type": "function"
    },
    {
      "inputs": [],
      "name": "renounceOwnership",
      "outputs": [],
      "stateMutability": "nonpayable",
      "type": "function"
    },
    {
      "inputs": [
        {
          "internalType": "address",
          "name": "newOwner",
          "type": "address"
        }
      ],
      "name": "transferOwnership",
      "outputs": [],
      "stateMutability": "nonpayable",
      "type": "function"
    }
  ],
  "bytecode": "0x608060405234801561001057600080fd5b50604051610dbb380380610dbb83398101604081905261002f916100e2565b61003833610076565b6000805460ff60a01b19169055600180546001600160a01b039384166001600160a01b03199182161790915560028054929093169116179055610115565b600080546001600160a01b038381166001600160a01b0319831681178455604051919092169283917f8be0079c531659141344cd1fd0a4f28419497f9722a3daafe3b4186f6b6457e09190a35050565b80516001600160a01b03811681146100dd57600080fd5b919050565b600080604083850312156100f557600080fd5b6100fe836100c6565b915061010c602084016100c6565b90509250929050565b610c97806101246000396000f3fe6080604052600436106100a75760003560e01c80635c975abb116100645780635c975abb146101ca578063715018a6146101f557806379c5eea51461020a5780638da5cb5b14610245578063e6fb2bf314610263578063f2fde38b1461027657600080fd5b806309e7d0c4146100ac5780631083f761146100ce57806344d6b2a51461010b5780634ae699ef146101485780634b31bb10146101685780634eeeb8ed14610188575b600080fd5b3480156100b857600080fd5b506100cc6100c7366004610b22565b610296565b005b3480156100da57600080fd5b506001546100ee906001600160a01b031681565b6040516001600160a01b0390911681526020015b60405180910390f35b34801561011757600080fd5b5061012b610126366004610b22565b610589565b604080519384526020840192909252151590820152606001610102565b34801561015457600080fd5b506100cc610163366004610b22565b610631565b34801561017457600080fd5b506002546100ee906001600160a01b031681565b34801561019457600080fd5b506101a86101a3366004610b22565b610807565b6040805194855260208501939093529183015215156060820152608001610102565b3480156101d657600080fd5b50600054600160a01b900460ff165b6040519015158152602001610102565b34801561020157600080fd5b506100cc610850565b34801561021657600080fd5b506101e5610225366004610b60565b600460209081526000928352604080842090915290825290205460ff1681565b34801561025157600080fd5b506000546001600160a01b03166100ee565b6100cc610271366004610b22565b610864565b34801561028257600080fd5b506100cc610291366004610b8c565b6109b2565b61029e610a2b565b60008281526003602052604090205481106102d45760405162461bcd60e51b81526004016102cb90610bae565b60405180910390fd5b60008281526003602052604081208054839081106102f4576102f4610be5565b60009182526020909120600490910201600381015490915060ff1661035b5760405162461bcd60e51b815260206004820152601a60248201527f446973747269627574696f6e206e6f7420636f6d706c6574656400000000000060448201526064016102cb565b600083815260046020908152604080832033845290915290205460ff16156103b75760405162461bcd60e51b815260206004820152600f60248201526e105b1c9958591e4818db185a5b5959608a1b60448201526064016102cb565b6001546040516370a0823160e01b81523360048201526000916001600160a01b0316906370a0823190602401602060405180830381865afa158015610400573d6000803e3d6000fd5b505050506040513d601f19601f820116820180604052508101906104249190610bfb565b90506000811161046b5760405162461bcd60e51b81526020600482015260126024820152714e6f20746f6b656e7320746f20636c61696d60701b60448201526064016102cb565b600154604080516318160ddd60e01b815290516000926001600160a01b0316916318160ddd9160048083019260209291908290030181865afa1580156104b5573d6000803e3d6000fd5b505050506040513d601f19601f820116820180604052508101906104d99190610bfb565b90506000818385600101546104ee9190610c14565b6104f89190610c3f565b6000878152600460209081526040808320338085529252808320805460ff19166001179055519293509183156108fc0291849190818181858888f19350505050158015610549573d6000803e3d6000fd5b50604051818152339087907fb9e8470097faa00e83252475f2ee4b69007b0bb2405268ebec248676998a21b39060200160405180910390a3505050505050565b6000828152600360205260408120548190819084106105ba5760405162461bcd60e51b81526004016102cb90610bae565b60008581526003602052604081208054869081106105da576105da610be5565b60009182526020918290206040805160808101825260049390930290910180548352600181015493830184905260028101549183018290526003015460ff1615156060909201829052919891975095509350505050565b610639610a78565b610641610a2b565b600082815260036020526040902054811061066e5760405162461bcd60e51b81526004016102cb90610bae565b600082815260036020526040812080548390811061068e5761068e610be5565b60009182526020909120600490910201600381015490915060ff16156106f65760405162461bcd60e51b815260206004820152601e60248201527f446973747269627574696f6e20616c726561647920636f6d706c65746564000060448201526064016102cb565b600154604080516318160ddd60e01b815290516000926001600160a01b0316916318160ddd9160048083019260209291908290030181865afa158015610740573d6000803e3d6000fd5b505050506040513d601f19601f820116820180604052508101906107649190610bfb565b9050600081116107b65760405162461bcd60e51b815260206004820152601860248201527f4e6f20746f6b656e7320696e2063697263756c6174696f6e000000000000000060448201526064016102cb565b60038201805460ff1916600117905560405184907fa76cbfc09533de04eef23d411f10ce3c25168d471d093020e88721008c67dfae906107f99086815260200190565b60405180910390a250505050565b6003602052816000526040600020818154811061082357600080fd5b60009182526020909120600490910201805460018201546002830154600390930154919450925060ff1684565b610858610a78565b6108626000610ad2565b565b61086c610a2b565b600081116108bc5760405162461bcd60e51b815260206004820152601d60248201527f416d6f756e74206d7573742062652067726561746572207468616e203000000060448201526064016102cb565b80341461090b5760405162461bcd60e51b815260206004820152601860248201527f496e636f7272656374207061796d656e7420616d6f756e74000000000000000060448201526064016102cb565b600082815260036020818152604080842080548251608081018452888152808501888152428286019081526060830189815260018086018755958a52988790209251600485029093019283559051938201939093559151600283015594519301805460ff191693151593909317909255905183815284917ff213ae9678e29ddf71cfd6bb58204207ac2f5a37f62a198ca6bc86737f015868910160405180910390a2505050565b6109ba610a78565b6001600160a01b038116610a1f5760405162461bcd60e51b815260206004820152602660248201527f4f776e61626c653a206e6577206f776e657220697320746865207a65726f206160448201526564647265737360d01b60648201526084016102cb565b610a2881610ad2565b50565b600054600160a01b900460ff16156108625760405162461bcd60e51b815260206004820152601060248201526f14185d5cd8589b194e881c185d5cd95960821b60448201526064016102cb565b6000546001600160a01b031633146108625760405162461bcd60e51b815260206004820181905260248201527f4f776e61626c653a2063616c6c6572206973206e6f7420746865206f776e657260448201526064016102cb565b600080546001600160a01b038381166001600160a01b0319831681178455604051919092169283917f8be0079c531659141344cd1fd0a4f28419497f9722a3daafe3b4186f6b6457e09190a35050565b60008060408385031215610b3557600080fd5b50508035926020909101359150565b80356001600160a01b0381168114610b5b57600080fd5b919050565b60008060408385031215610b7357600080fd5b82359150610b8360208401610b44565b90509250929050565b600060208284031215610b9e57600080fd5b610ba782610b44565b9392505050565b60208082526017908201527f496e76616c696420646973747269627574696f6e204944000000000000000000604082015260600190565b634e487b7160e01b600052603260045260246000fd5b600060208284031215610c0d57600080fd5b5051919050565b8082028115828204841417610c3957634e487b7160e01b600052601160045260246000fd5b92915050565b600082610c5c57634e487b7160e01b600052601260045260246000fd5b50049056fea26469706673582212207b35703456239166d73d77aea4ac308abff2de84f3322bb29ce358297afb6b3464736f6c63430008140033",
  "linkReferences": {},
  "deployedLinkReferences": {}
}