{
  "_format": "hh-sol-artifact-1",
  "contractName": "ProjectRegistry",
  "sourceName": "blockchain/contracts/ProjectRegistry.sol",
  "abi": [
    {
      "inputs": [],
      "stateMutability": "nonpayable",
      "type": "constructor"
    },
    {
      "anonymous": false,
      "inputs": [
        {
          "indexed": true,
          "internalType": "address",
          "name": "investor",
          "type": "address"
        }
      ],
      "name": "KYCVerified",
      "type": "event"
    },
    {
      "anonymous": false,
      "inputs": [
        {
          "indexed": true,
          "internalType": "address",
          "name": "previousOwner",
          "type": "address"
        },
        {
          "indexed": true,
          "internalType": "address",
          "name": "newOwner",
          "type": "address"
        }
      ],
      "name": "OwnershipTransferred",
      "type": "event"
    },
    {
      "anonymous": false,
      "inputs": [
        {
          "indexed": false,
          "internalType": "address",
          "name": "account",
          "type": "address"
        }
      ],
      "name": "Paused",
      "type": "event"
    },
    {
      "anonymous": false,
      "inputs": [
        {
          "indexed": true,
          "internalType": "uint256",
          "name": "projectId",
          "type": "uint256"
        },
        {
          "indexed": false,
          "internalType": "string",
          "name": "name",
          "type": "string"
        },
        {
          "indexed": false,
          "internalType": "address",
          "name": "owner",
          "type": "address"
        }
      ],
      "name": "ProjectRegistered",
      "type": "event"
    },
    {
      "anonymous": false,
      "inputs": [
        {
          "indexed": true,
          "internalType": "uint256",
          "name": "projectId",
          "type": "uint256"
        },
        {
          "indexed": false,
          "internalType": "enum ProjectRegistry.ProjectStatus",
          "name": "status",
          "type": "uint8"
        }
      ],
      "name": "ProjectStatusUpdated",
      "type": "event"
    },
    {
      "anonymous": false,
      "inputs": [
        {
          "indexed": false,
          "internalType": "address",
          "name": "account",
          "type": "address"
        }
      ],
      "name": "Unpaused",
      "type": "event"
    },
    {
      "inputs": [
        {
          "internalType": "uint256",
          "name": "projectId",
          "type": "uint256"
        }
      ],
      "name": "getProjectDetails",
      "outputs": [
        {
          "internalType": "uint256",
          "name": "id",
          "type": "uint256"
        },
        {
          "internalType": "string",
          "name": "name",
          "type": "string"
        },
        {
          "internalType": "uint256",
          "name": "capacity",
          "type": "uint256"
        },
        {
          "internalType": "string",
          "name": "location",
          "type": "string"
        },
        {
          "internalType": "uint256",
          "name": "totalInvestment",
          "type": "uint256"
        },
        {
          "internalType": "uint256",
          "name": "currentInvestment",
          "type": "uint256"
        },
        {
          "internalType": "enum ProjectRegistry.ProjectStatus",
          "name": "status",
          "type": "uint8"
        },
        {
          "internalType": "address",
          "name": "owner",
          "type": "address"
        },
        {
          "internalType": "uint256",
          "name": "createdAt",
          "type": "uint256"
        }
      ],
      "stateMutability": "view",
      "type": "function"
    },
    {
      "inputs": [
        {
          "internalType": "address",
          "name": "investor",
          "type": "address"
        }
      ],
      "name": "isKYCVerified",
      "outputs": [
        {
          "internalType": "bool",
          "name": "",
          "type": "bool"
        }
      ],
      "stateMutability": "view",
      "type": "function"
    },
    {
      "inputs": [
        {
          "internalType": "address",
          "name": "",
          "type": "address"
        }
      ],
      "name": "kycVerified",
      "outputs": [
        {
          "internalType": "bool",
          "name": "",
          "type": "bool"
        }
      ],
      "stateMutability": "view",
      "type": "function"
    },
    {
      "inputs": [],
      "name": "owner",
      "outputs": [
        {
          "internalType": "address",
          "name": "",
          "type": "address"
        }
      ],
      "stateMutability": "view",
      "type": "function"
    },
    {
      "inputs": [],
      "name": "pause",
      "outputs": [],
      "stateMutability": "nonpayable",
      "type": "function"
    },
    {
      "inputs": [],
      "name": "paused",
      "outputs": [
        {
          "internalType": "bool",
          "name": "",
          "type": "bool"
        }
      ],
      "stateMutability": "view",
      "type": "function"
    },
    {
      "inputs": [],
      "name": "projectCount",
      "outputs": [
        {
          "internalType": "uint256",
          "name": "",
          "type": "uint256"
        }
      ],
      "stateMutability": "view",
      "type": "function"
    },
    {
      "inputs": [
        {
          "internalType": "uint256",
          "name": "",
          "type": "uint256"
        }
      ],
      "name": "projects",
      "outputs": [
        {
          "internalType": "uint256",
          "name": "id",
          "type": "uint256"
        },
        {
          "internalType": "string",
          "name": "name",
          "type": "string"
        },
        {
          "internalType": "uint256",
          "name": "capacity",
          "type": "uint256"
        },
        {
          "internalType": "string",
          "name": "location",
          "type": "string"
        },
        {
          "internalType": "uint256",
          "name": "totalInvestment",
          "type": "uint256"
        },
        {
          "internalType": "uint256",
          "name": "currentInvestment",
          "type": "uint256"
        },
        {
          "internalType": "enum ProjectRegistry.ProjectStatus",
          "name": "status",
          "type": "uint8"
        },
        {
          "internalType": "address",
          "name": "owner",
          "type": "address"
        },
        {
          "internalType": "uint256",
          "name": "createdAt",
          "type": "uint256"
        }
      ],
      "stateMutability": "view",
      "type": "function"
    },
    {
      "inputs": [
        {
          "internalType": "string",
          "name": "name",
          "type": "string"
        },
        {
          "internalType": "uint256",
          "name": "capacity",
          "type": "uint256"
        },
        {
          "internalType": "string",
          "name": "location",
          "type": "string"
        }
      ],
      "name": "registerProject",
      "outputs": [],
      "stateMutability": "nonpayable",
      "type": "function"
    },
    {
      "inputs": [],
      "name": "renounceOwnership",
      "outputs": [],
      "stateMutability": "nonpayable",
      "type": "function"
    },
    {
      "inputs": [
        {
          "internalType": "address",
          "name": "newOwner",
          "type": "address"
        }
      ],
      "name": "transferOwnership",
      "outputs": [],
      "stateMutability": "nonpayable",
      "type": "function"
    },
    {
      "inputs": [],
      "name": "unpause",
      "outputs": [],
      "stateMutability": "nonpayable",
      "type": "function"
    },
    {
      "inputs": [
        {
          "internalType": "uint256",
          "name": "projectId",
          "type": "uint256"
        },
        {
          "internalType": "enum ProjectRegistry.ProjectStatus",
          "name": "status",
          "type": "uint8"
        }
      ],
      "name": "updateProjectStatus",
      "outputs": [],
      "stateMutability": "nonpayable",
      "type": "function"
    },
    {
      "inputs": [
        {
          "internalType": "address",
          "name": "investor",
          "type": "address"
        }
      ],
      "name": "verifyKYC",
      "outputs": [],
      "stateMutability": "nonpayable",
      "type": "function"
    }
  ],
  "bytecode": "0x608060405234801561001057600080fd5b5061001a3361002c565b6000805460ff60a01b1916905561007c565b600080546001600160a01b038381166001600160a01b0319831681178455604051919092169283917f8be0079c531659141344cd1fd0a4f28419497f9722a3daafe3b4186f6b6457e09190a35050565b610fcd8061008b6000396000f3fe608060405234801561001057600080fd5b50600436106100ea5760003560e01c80635f8439e31161008c5780638da5cb5b116100665780638da5cb5b146101d8578063a5410a66146101f3578063d11d498b14610216578063f2fde38b1461022957600080fd5b80635f8439e3146101b5578063715018a6146101c85780638456cb59146101d057600080fd5b80633bec43e6116100c85780633bec43e61461014c5780633f4ba83a1461015f57806354b7636e146101675780635c975abb146101a357600080fd5b8063107046bd146100ef57806336fbad261461012057806338d1601114610137575b600080fd5b6101026100fd366004610b6d565b61023c565b60405161011799989796959493929190610c04565b60405180910390f35b61012960035481565b604051908152602001610117565b61014a610145366004610c75565b6103a1565b005b61014a61015a366004610d48565b6103f5565b61014a610567565b610193610175366004610c75565b6001600160a01b031660009081526002602052604090205460ff1690565b6040519015158152602001610117565b600054600160a01b900460ff16610193565b6101026101c3366004610b6d565b610579565b61014a6107b1565b61014a6107c3565b6000546040516001600160a01b039091168152602001610117565b610193610201366004610c75565b60026020526000908152604090205460ff1681565b61014a610224366004610db5565b6107d3565b61014a610237366004610c75565b610915565b60016020819052600091825260409091208054918101805461025d90610de9565b80601f016020809104026020016040519081016040528092919081815260200182805461028990610de9565b80156102d65780601f106102ab576101008083540402835291602001916102d6565b820191906000526020600020905b8154815290600101906020018083116102b957829003601f168201915b5050505050908060020154908060030180546102f190610de9565b80601f016020809104026020016040519081016040528092919081815260200182805461031d90610de9565b801561036a5780601f1061033f5761010080835404028352916020019161036a565b820191906000526020600020905b81548152906001019060200180831161034d57829003601f168201915b505050506004830154600584015460068501546007909501549394919390925060ff82169161010090046001600160a01b03169089565b6103a961098e565b6001600160a01b038116600081815260026020526040808220805460ff19166001179055517f65c84ee842eafc291d1272a6e3d10f8c454c4288e63f5db3f7be2b3012f321a99190a250565b6103fd6109e8565b600380546000918261040e83610e23565b91905055905060405180610120016040528082815260200185815260200184815260200183815260200160008152602001600081526020016000600381111561045957610459610bcc565b8152336020808301919091524260409283015260008481526001808352929020835181559083015190918201906104909082610e99565b5060408201516002820155606082015160038201906104af9082610e99565b506080820151600482015560a0820151600582015560c082015160068201805460ff191660018360038111156104e7576104e7610bcc565b021790555060e08201518160060160016101000a8154816001600160a01b0302191690836001600160a01b031602179055506101008201518160070155905050807fbe67d123666fdaa12bddfaf9f13056f83522df7149a1717d7ba91baf586cfcc88533604051610559929190610f59565b60405180910390a250505050565b61056f61098e565b610577610a35565b565b6000606060006060600080600080600080600160008c815260200190815260200160002060405180610120016040529081600082015481526020016001820180546105c390610de9565b80601f01602080910402602001604051908101604052809291908181526020018280546105ef90610de9565b801561063c5780601f106106115761010080835404028352916020019161063c565b820191906000526020600020905b81548152906001019060200180831161061f57829003601f168201915b505050505081526020016002820154815260200160038201805461065f90610de9565b80601f016020809104026020016040519081016040528092919081815260200182805461068b90610de9565b80156106d85780601f106106ad576101008083540402835291602001916106d8565b820191906000526020600020905b8154815290600101906020018083116106bb57829003601f168201915b50505091835250506004820154602082015260058201546040820152600682015460609091019060ff16600381111561071357610713610bcc565b600381111561072457610724610bcc565b81526020016006820160019054906101000a90046001600160a01b03166001600160a01b03166001600160a01b031681526020016007820154815250509050806000015181602001518260400151836060015184608001518560a001518660c001518760e00151886101000151995099509950995099509950995099509950509193959799909294969850565b6107b961098e565b6105776000610a8a565b6107cb61098e565b610577610ada565b60008281526001602052604090206006015461010090046001600160a01b0316331461083a5760405162461bcd60e51b81526020600482015260116024820152702737ba10383937b532b1ba1037bbb732b960791b60448201526064015b60405180910390fd5b600360008381526001602052604090206006015460ff16600381111561086257610862610bcc565b036108a35760405162461bcd60e51b8152602060048201526011602482015270141c9bda9958dd0818d85b98d95b1b1959607a1b6044820152606401610831565b60008281526001602081905260409091206006018054839260ff19909116908360038111156108d4576108d4610bcc565b0217905550817f8fb6fda973f304b2834c4147004045448416c05b253872373ac5b19f4a5b7a5d826040516109099190610f83565b60405180910390a25050565b61091d61098e565b6001600160a01b0381166109825760405162461bcd60e51b815260206004820152602660248201527f4f776e61626c653a206e6577206f776e657220697320746865207a65726f206160448201526564647265737360d01b6064820152608401610831565b61098b81610a8a565b50565b6000546001600160a01b031633146105775760405162461bcd60e51b815260206004820181905260248201527f4f776e61626c653a2063616c6c6572206973206e6f7420746865206f776e65726044820152606401610831565b600054600160a01b900460ff16156105775760405162461bcd60e51b815260206004820152601060248201526f14185d5cd8589b194e881c185d5cd95960821b6044820152606401610831565b610a3d610b1d565b6000805460ff60a01b191690557f5db9ee0a495bf2e6ff9c91a7834c1ba4fdd244a5e8aa4e537bd38aeae4b073aa335b6040516001600160a01b03909116815260200160405180910390a1565b600080546001600160a01b038381166001600160a01b0319831681178455604051919092169283917f8be0079c531659141344cd1fd0a4f28419497f9722a3daafe3b4186f6b6457e09190a35050565b610ae26109e8565b6000805460ff60a01b1916600160a01b1790557f62e78cea01bee320cd4e420270b5ea74000d11b0c9f74754ebdbfc544b05a258610a6d3390565b600054600160a01b900460ff166105775760405162461bcd60e51b815260206004820152601460248201527314185d5cd8589b194e881b9bdd081c185d5cd95960621b6044820152606401610831565b600060208284031215610b7f57600080fd5b5035919050565b6000815180845260005b81811015610bac57602081850181015186830182015201610b90565b506000602082860101526020601f19601f83011685010191505092915050565b634e487b7160e01b600052602160045260246000fd5b60048110610c0057634e487b7160e01b600052602160045260246000fd5b9052565b60006101208b8352806020840152610c1e8184018c610b86565b90508960408401528281036060840152610c38818a610b86565b9150508660808301528560a0830152610c5460c0830186610be2565b6001600160a01b039390931660e08201526101000152979650505050505050565b600060208284031215610c8757600080fd5b81356001600160a01b0381168114610c9e57600080fd5b9392505050565b634e487b7160e01b600052604160045260246000fd5b600082601f830112610ccc57600080fd5b813567ffffffffffffffff80821115610ce757610ce7610ca5565b604051601f8301601f19908116603f01168101908282118183101715610d0f57610d0f610ca5565b81604052838152866020858801011115610d2857600080fd5b836020870160208301376000602085830101528094505050505092915050565b600080600060608486031215610d5d57600080fd5b833567ffffffffffffffff80821115610d7557600080fd5b610d8187838801610cbb565b9450602086013593506040860135915080821115610d9e57600080fd5b50610dab86828701610cbb565b9150509250925092565b60008060408385031215610dc857600080fd5b82359150602083013560048110610dde57600080fd5b809150509250929050565b600181811c90821680610dfd57607f821691505b602082108103610e1d57634e487b7160e01b600052602260045260246000fd5b50919050565b600060018201610e4357634e487b7160e01b600052601160045260246000fd5b5060010190565b601f821115610e9457600081815260208120601f850160051c81016020861015610e715750805b601f850160051c820191505b81811015610e9057828155600101610e7d565b5050505b505050565b815167ffffffffffffffff811115610eb357610eb3610ca5565b610ec781610ec18454610de9565b84610e4a565b602080601f831160018114610efc5760008415610ee45750858301515b600019600386901b1c1916600185901b178555610e90565b600085815260208120601f198616915b82811015610f2b57888601518255948401946001909101908401610f0c565b5085821015610f495787850151600019600388901b60f8161c191681555b5050505050600190811b01905550565b604081526000610f6c6040830185610b86565b905060018060a01b03831660208301529392505050565b60208101610f918284610be2565b9291505056fea2646970667358221220d67ac8c45e846625d65d2706b04cc55dd3c3f7b6633f58eaff860648573bd3b664736f6c63430008140033",
  "linkReferences": {},
  "deployedLinkReferences": {}
}