{
  "_format": "hh-sol-artifact-1",
  "contractName": "AssetToken",
  "sourceName": "blockchain/contracts/AssetToken.sol",
  "abi": [
    {
      "inputs": [
        {
          "internalType": "string",
          "name": "name",
          "type": "string"
        },
        {
          "internalType": "string",
          "name": "symbol",
          "type": "string"
        }
      ],
      "stateMutability": "nonpayable",
      "type": "constructor"
    },
    {
      "anonymous": false,
      "inputs": [
        {
          "indexed": true,
          "internalType": "address",
          "name": "owner",
          "type": "address"
        },
        {
          "indexed": true,
          "internalType": "address",
          "name": "spender",
          "type": "address"
        },
        {
          "indexed": false,
          "internalType": "uint256",
          "name": "value",
          "type": "uint256"
        }
      ],
      "name": "Approval",
      "type": "event"
    },
    {
      "anonymous": false,
      "inputs": [
        {
          "indexed": true,
          "internalType": "address",
          "name": "account",
          "type": "address"
        },
        {
          "indexed": false,
          "internalType": "uint256",
          "name": "amount",
          "type": "uint256"
        }
      ],
      "name": "DividendClaimed",
      "type": "event"
    },
    {
      "anonymous": false,
      "inputs": [
        {
          "indexed": false,
          "internalType": "uint256",
          "name": "amount",
          "type": "uint256"
        }
      ],
      "name": "DividendDistributed",
      "type": "event"
    },
    {
      "anonymous": false,
      "inputs": [
        {
          "indexed": true,
          "internalType": "address",
          "name": "previousOwner",
          "type": "address"
        },
        {
          "indexed": true,
          "internalType": "address",
          "name": "newOwner",
          "type": "address"
        }
      ],
      "name": "OwnershipTransferred",
      "type": "event"
    },
    {
      "anonymous": false,
      "inputs": [
        {
          "indexed": false,
          "internalType": "address",
          "name": "account",
          "type": "address"
        }
      ],
      "name": "Paused",
      "type": "event"
    },
    {
      "anonymous": false,
      "inputs": [
        {
          "indexed": true,
          "internalType": "address",
          "name": "from",
          "type": "address"
        },
        {
          "indexed": true,
          "internalType": "address",
          "name": "to",
          "type": "address"
        },
        {
          "indexed": false,
          "internalType": "uint256",
          "name": "value",
          "type": "uint256"
        }
      ],
      "name": "Transfer",
      "type": "event"
    },
    {
      "anonymous": false,
      "inputs": [
        {
          "indexed": false,
          "internalType": "address",
          "name": "account",
          "type": "address"
        }
      ],
      "name": "Unpaused",
      "type": "event"
    },
    {
      "inputs": [
        {
          "internalType": "address",
          "name": "owner",
          "type": "address"
        },
        {
          "internalType": "address",
          "name": "spender",
          "type": "address"
        }
      ],
      "name": "allowance",
      "outputs": [
        {
          "internalType": "uint256",
          "name": "",
          "type": "uint256"
        }
      ],
      "stateMutability": "view",
      "type": "function"
    },
    {
      "inputs": [
        {
          "internalType": "address",
          "name": "spender",
          "type": "address"
        },
        {
          "internalType": "uint256",
          "name": "amount",
          "type": "uint256"
        }
      ],
      "name": "approve",
      "outputs": [
        {
          "internalType": "bool",
          "name": "",
          "type": "bool"
        }
      ],
      "stateMutability": "nonpayable",
      "type": "function"
    },
    {
      "inputs": [
        {
          "internalType": "address",
          "name": "account",
          "type": "address"
        }
      ],
      "name": "balanceOf",
      "outputs": [
        {
          "internalType": "uint256",
          "name": "",
          "type": "uint256"
        }
      ],
      "stateMutability": "view",
      "type": "function"
    },
    {
      "inputs": [
        {
          "internalType": "address",
          "name": "from",
          "type": "address"
        },
        {
          "internalType": "uint256",
          "name": "amount",
          "type": "uint256"
        }
      ],
      "name": "burn",
      "outputs": [],
      "stateMutability": "nonpayable",
      "type": "function"
    },
    {
      "inputs": [],
      "name": "claimDividends",
      "outputs": [],
      "stateMutability": "nonpayable",
      "type": "function"
    },
    {
      "inputs": [],
      "name": "decimals",
      "outputs": [
        {
          "internalType": "uint8",
          "name": "",
          "type": "uint8"
        }
      ],
      "stateMutability": "view",
      "type": "function"
    },
    {
      "inputs": [
        {
          "internalType": "address",
          "name": "spender",
          "type": "address"
        },
        {
          "internalType": "uint256",
          "name": "subtractedValue",
          "type": "uint256"
        }
      ],
      "name": "decreaseAllowance",
      "outputs": [
        {
          "internalType": "bool",
          "name": "",
          "type": "bool"
        }
      ],
      "stateMutability": "nonpayable",
      "type": "function"
    },
    {
      "inputs": [],
      "name": "distributeDividends",
      "outputs": [],
      "stateMutability": "payable",
      "type": "function"
    },
    {
      "inputs": [
        {
          "internalType": "address",
          "name": "account",
          "type": "address"
        }
      ],
      "name": "getClaimableDividends",
      "outputs": [
        {
          "internalType": "uint256",
          "name": "",
          "type": "uint256"
        }
      ],
      "stateMutability": "view",
      "type": "function"
    },
    {
      "inputs": [],
      "name": "getTotalDividends",
      "outputs": [
        {
          "internalType": "uint256",
          "name": "",
          "type": "uint256"
        }
      ],
      "stateMutability": "view",
      "type": "function"
    },
    {
      "inputs": [
        {
          "internalType": "address",
          "name": "spender",
          "type": "address"
        },
        {
          "internalType": "uint256",
          "name": "addedValue",
          "type": "uint256"
        }
      ],
      "name": "increaseAllowance",
      "outputs": [
        {
          "internalType": "bool",
          "name": "",
          "type": "bool"
        }
      ],
      "stateMutability": "nonpayable",
      "type": "function"
    },
    {
      "inputs": [
        {
          "internalType": "address",
          "name": "to",
          "type": "address"
        },
        {
          "internalType": "uint256",
          "name": "amount",
          "type": "uint256"
        }
      ],
      "name": "mint",
      "outputs": [],
      "stateMutability": "nonpayable",
      "type": "function"
    },
    {
      "inputs": [],
      "name": "minter",
      "outputs": [
        {
          "internalType": "address",
          "name": "",
          "type": "address"
        }
      ],
      "stateMutability": "view",
      "type": "function"
    },
    {
      "inputs": [],
      "name": "name",
      "outputs": [
        {
          "internalType": "string",
          "name": "",
          "type": "string"
        }
      ],
      "stateMutability": "view",
      "type": "function"
    },
    {
      "inputs": [],
      "name": "owner",
      "outputs": [
        {
          "internalType": "address",
          "name": "",
          "type": "address"
        }
      ],
      "stateMutability": "view",
      "type": "function"
    },
    {
      "inputs": [],
      "name": "pause",
      "outputs": [],
      "stateMutability": "nonpayable",
      "type": "function"
    },
    {
      "inputs": [],
      "name": "paused",
      "outputs": [
        {
          "internalType": "bool",
          "name": "",
          "type": "bool"
        }
      ],
      "stateMutability": "view",
      "type": "function"
    },
    {
      "inputs": [],
      "name": "renounceOwnership",
      "outputs": [],
      "stateMutability": "nonpayable",
      "type": "function"
    },
    {
      "inputs": [
        {
          "internalType": "address",
          "name": "_minter",
          "type": "address"
        }
      ],
      "name": "setMinter",
      "outputs": [],
      "stateMutability": "nonpayable",
      "type": "function"
    },
    {
      "inputs": [],
      "name": "symbol",
      "outputs": [
        {
          "internalType": "string",
          "name": "",
          "type": "string"
        }
      ],
      "stateMutability": "view",
      "type": "function"
    },
    {
      "inputs": [],
      "name": "totalSupply",
      "outputs": [
        {
          "internalType": "uint256",
          "name": "",
          "type": "uint256"
        }
      ],
      "stateMutability": "view",
      "type": "function"
    },
    {
      "inputs": [
        {
          "internalType": "address",
          "name": "to",
          "type": "address"
        },
        {
          "internalType": "uint256",
          "name": "amount",
          "type": "uint256"
        }
      ],
      "name": "transfer",
      "outputs": [
        {
          "internalType": "bool",
          "name": "",
          "type": "bool"
        }
      ],
      "stateMutability": "nonpayable",
      "type": "function"
    },
    {
      "inputs": [
        {
          "internalType": "address",
          "name": "from",
          "type": "address"
        },
        {
          "internalType": "address",
          "name": "to",
          "type": "address"
        },
        {
          "internalType": "uint256",
          "name": "amount",
          "type": "uint256"
        }
      ],
      "name": "transferFrom",
      "outputs": [
        {
          "internalType": "bool",
          "name": "",
          "type": "bool"
        }
      ],
      "stateMutability": "nonpayable",
      "type": "function"
    },
    {
      "inputs": [
        {
          "internalType": "address",
          "name": "newOwner",
          "type": "address"
        }
      ],
      "name": "transferOwnership",
      "outputs": [],
      "stateMutability": "nonpayable",
      "type": "function"
    },
    {
      "inputs": [],
      "name": "unpause",
      "outputs": [],
      "stateMutability": "nonpayable",
      "type": "function"
    }
  ],
  "bytecode": "0x60806040523480156200001157600080fd5b5060405162001835380380620018358339810160408190526200003491620001ab565b81816003620000448382620002a4565b506004620000538282620002a4565b505050620000706200006a6200009060201b60201c565b62000094565b6005805460ff60a01b19169055620000883362000094565b505062000370565b3390565b600580546001600160a01b038381166001600160a01b0319831681179093556040519116919082907f8be0079c531659141344cd1fd0a4f28419497f9722a3daafe3b4186f6b6457e090600090a35050565b634e487b7160e01b600052604160045260246000fd5b600082601f8301126200010e57600080fd5b81516001600160401b03808211156200012b576200012b620000e6565b604051601f8301601f19908116603f01168101908282118183101715620001565762000156620000e6565b816040528381526020925086838588010111156200017357600080fd5b600091505b8382101562000197578582018301518183018401529082019062000178565b600093810190920192909252949350505050565b60008060408385031215620001bf57600080fd5b82516001600160401b0380821115620001d757600080fd5b620001e586838701620000fc565b93506020850151915080821115620001fc57600080fd5b506200020b85828601620000fc565b9150509250929050565b600181811c908216806200022a57607f821691505b6020821081036200024b57634e487b7160e01b600052602260045260246000fd5b50919050565b601f8211156200029f57600081815260208120601f850160051c810160208610156200027a5750805b601f850160051c820191505b818110156200029b5782815560010162000286565b5050505b505050565b81516001600160401b03811115620002c057620002c0620000e6565b620002d881620002d1845462000215565b8462000251565b602080601f831160018114620003105760008415620002f75750858301515b600019600386901b1c1916600185901b1785556200029b565b600085815260208120601f198616915b82811015620003415788860151825594840194600190910190840162000320565b5085821015620003605787850151600019600388901b60f8161c191681555b5050505050600190811b01905550565b6114b580620003806000396000f3fe6080604052600436106101665760003560e01c806367ee5f09116100d157806395d89b411161008a578063a9059cbb11610064578063a9059cbb146103f4578063dd62ed3e14610414578063f2fde38b14610434578063fca3b5aa1461045457600080fd5b806395d89b411461039f5780639dc29fac146103b4578063a457c2d7146103d457600080fd5b806367ee5f09146102ec57806370a0823114610301578063715018a6146103375780638284ce3e1461034c5780638456cb591461036c5780638da5cb5b1461038157600080fd5b8063313ce56711610123578063313ce5671461024757806339509351146102635780633f4ba83a1461028357806340c10f19146102985780635c975abb146102b8578063668038e0146102d757600080fd5b806303c833021461016b57806306fdde031461017557806307546172146101a0578063095ea7b3146101d857806318160ddd1461020857806323b872dd14610227575b600080fd5b610173610474565b005b34801561018157600080fd5b5061018a61050e565b60405161019791906112ab565b60405180910390f35b3480156101ac57600080fd5b506006546101c0906001600160a01b031681565b6040516001600160a01b039091168152602001610197565b3480156101e457600080fd5b506101f86101f3366004611315565b6105a0565b6040519015158152602001610197565b34801561021457600080fd5b506002545b604051908152602001610197565b34801561023357600080fd5b506101f861024236600461133f565b6105ba565b34801561025357600080fd5b5060405160128152602001610197565b34801561026f57600080fd5b506101f861027e366004611315565b6105de565b34801561028f57600080fd5b50610173610600565b3480156102a457600080fd5b506101736102b3366004611315565b610612565b3480156102c457600080fd5b50600554600160a01b900460ff166101f8565b3480156102e357600080fd5b506101736106bc565b3480156102f857600080fd5b50600754610219565b34801561030d57600080fd5b5061021961031c36600461137b565b6001600160a01b031660009081526020819052604090205490565b34801561034357600080fd5b5061017361080e565b34801561035857600080fd5b5061021961036736600461137b565b610820565b34801561037857600080fd5b506101736108af565b34801561038d57600080fd5b506005546001600160a01b03166101c0565b3480156103ab57600080fd5b5061018a6108bf565b3480156103c057600080fd5b506101736103cf366004611315565b6108ce565b3480156103e057600080fd5b506101f86103ef366004611315565b610998565b34801561040057600080fd5b506101f861040f366004611315565b610a13565b34801561042057600080fd5b5061021961042f36600461139d565b610a21565b34801561044057600080fd5b5061017361044f36600461137b565b610a4c565b34801561046057600080fd5b5061017361046f36600461137b565b610ac5565b61047c610aef565b600034116104c15760405162461bcd60e51b815260206004820152600d60248201526c139bc81d985b1d59481cd95b9d609a1b60448201526064015b60405180910390fd5b34600760008282546104d391906113e6565b90915550506040513481527f421a325f20c894d513bb650b5eef0778619f93a3a7256d48c0e2523dbd005651906020015b60405180910390a1565b60606003805461051d906113f9565b80601f0160208091040260200160405190810160405280929190818152602001828054610549906113f9565b80156105965780601f1061056b57610100808354040283529160200191610596565b820191906000526020600020905b81548152906001019060200180831161057957829003601f168201915b5050505050905090565b6000336105ae818585610b3c565b60019150505b92915050565b6000336105c8858285610c61565b6105d3858585610cdb565b506001949350505050565b6000336105ae8185856105f18383610a21565b6105fb91906113e6565b610b3c565b610608610e8a565b610610610ee4565b565b6006546001600160a01b031633146106595760405162461bcd60e51b815260206004820152600a60248201526927b7363ca6b4b73a32b960b11b60448201526064016104b8565b610661610aef565b61066e6002600019611433565b8111156106ae5760405162461bcd60e51b815260206004820152600e60248201526d416d6f756e74546f6f4c6172676560901b60448201526064016104b8565b6106b88282610f34565b5050565b6106c4610aef565b60006106cf33610820565b9050600081116107165760405162461bcd60e51b81526020600482015260126024820152714e6f4469766964656e6473546f436c61696d60701b60448201526064016104b8565b600754336000908152600860209081526040808320939093556009905290812080548392906107469084906113e6565b9091555050604051600090339083908381818185875af1925050503d806000811461078d576040519150601f19603f3d011682016040523d82523d6000602084013e610792565b606091505b50509050806107d55760405162461bcd60e51b815260206004820152600f60248201526e151c985b9cd9995c8819985a5b1959608a1b60448201526064016104b8565b60405182815233907f5efa67896a23b651b741b525caacba039c00ca7853be3de8eb1f4269e8669c569060200160405180910390a25050565b610816610e8a565b6106106000610fff565b6001600160a01b0381166000908152602081905260408120548060000361084a5750600092915050565b600061085560025490565b905080600003610869575060009392505050565b6001600160a01b03841660009081526008602052604081205460075461088f9190611455565b90508161089c8285611468565b6108a69190611433565b95945050505050565b6108b7610e8a565b610610611051565b60606004805461051d906113f9565b6006546001600160a01b031633146109155760405162461bcd60e51b815260206004820152600a60248201526927b7363ca6b4b73a32b960b11b60448201526064016104b8565b61091d610aef565b6001600160a01b0382166000908152602081905260409020548111156109855760405162461bcd60e51b815260206004820152601860248201527f4552433230496e73756666696369656e7442616c616e6365000000000000000060448201526064016104b8565b61098e82611094565b6106b882826110e9565b600033816109a68286610a21565b905083811015610a065760405162461bcd60e51b815260206004820152602560248201527f45524332303a2064656372656173656420616c6c6f77616e63652062656c6f77604482015264207a65726f60d81b60648201526084016104b8565b6105d38286868403610b3c565b6000336105ae818585610cdb565b6001600160a01b03918216600090815260016020908152604080832093909416825291909152205490565b610a54610e8a565b6001600160a01b038116610ab95760405162461bcd60e51b815260206004820152602660248201527f4f776e61626c653a206e6577206f776e657220697320746865207a65726f206160448201526564647265737360d01b60648201526084016104b8565b610ac281610fff565b50565b610acd610e8a565b600680546001600160a01b0319166001600160a01b0392909216919091179055565b600554600160a01b900460ff16156106105760405162461bcd60e51b815260206004820152601060248201526f14185d5cd8589b194e881c185d5cd95960821b60448201526064016104b8565b6001600160a01b038316610b9e5760405162461bcd60e51b8152602060048201526024808201527f45524332303a20617070726f76652066726f6d20746865207a65726f206164646044820152637265737360e01b60648201526084016104b8565b6001600160a01b038216610bff5760405162461bcd60e51b815260206004820152602260248201527f45524332303a20617070726f766520746f20746865207a65726f206164647265604482015261737360f01b60648201526084016104b8565b6001600160a01b0383811660008181526001602090815260408083209487168084529482529182902085905590518481527f8c5be1e5ebec7d5bd14f71427d1e84f3dd0314c0f7b2291e5b200ac8c7c3b92591015b60405180910390a3505050565b6000610c6d8484610a21565b90506000198114610cd55781811015610cc85760405162461bcd60e51b815260206004820152601d60248201527f45524332303a20696e73756666696369656e7420616c6c6f77616e636500000060448201526064016104b8565b610cd58484848403610b3c565b50505050565b6001600160a01b038316610d3f5760405162461bcd60e51b815260206004820152602560248201527f45524332303a207472616e736665722066726f6d20746865207a65726f206164604482015264647265737360d81b60648201526084016104b8565b6001600160a01b038216610da15760405162461bcd60e51b815260206004820152602360248201527f45524332303a207472616e7366657220746f20746865207a65726f206164647260448201526265737360e81b60648201526084016104b8565b610dac838383611224565b6001600160a01b03831660009081526020819052604090205481811015610e245760405162461bcd60e51b815260206004820152602660248201527f45524332303a207472616e7366657220616d6f756e7420657863656564732062604482015265616c616e636560d01b60648201526084016104b8565b6001600160a01b03848116600081815260208181526040808320878703905593871680835291849020805487019055925185815290927fddf252ad1be2c89b69c2b068fc378daa952ba7f163c4a11628f55a4df523b3ef910160405180910390a3610cd5565b6005546001600160a01b031633146106105760405162461bcd60e51b815260206004820181905260248201527f4f776e61626c653a2063616c6c6572206973206e6f7420746865206f776e657260448201526064016104b8565b610eec61125b565b6005805460ff60a01b191690557f5db9ee0a495bf2e6ff9c91a7834c1ba4fdd244a5e8aa4e537bd38aeae4b073aa335b6040516001600160a01b039091168152602001610504565b6001600160a01b038216610f8a5760405162461bcd60e51b815260206004820152601f60248201527f45524332303a206d696e7420746f20746865207a65726f20616464726573730060448201526064016104b8565b610f9660008383611224565b8060026000828254610fa891906113e6565b90915550506001600160a01b038216600081815260208181526040808320805486019055518481527fddf252ad1be2c89b69c2b068fc378daa952ba7f163c4a11628f55a4df523b3ef910160405180910390a35050565b600580546001600160a01b038381166001600160a01b0319831681179093556040519116919082907f8be0079c531659141344cd1fd0a4f28419497f9722a3daafe3b4186f6b6457e090600090a35050565b611059610aef565b6005805460ff60a01b1916600160a01b1790557f62e78cea01bee320cd4e420270b5ea74000d11b0c9f74754ebdbfc544b05a258610f1c3390565b600061109f82610820565b905080156106b8576007546001600160a01b0383166000908152600860209081526040808320939093556009905290812080548392906110e09084906113e6565b90915550505050565b6001600160a01b0382166111495760405162461bcd60e51b815260206004820152602160248201527f45524332303a206275726e2066726f6d20746865207a65726f206164647265736044820152607360f81b60648201526084016104b8565b61115582600083611224565b6001600160a01b038216600090815260208190526040902054818110156111c95760405162461bcd60e51b815260206004820152602260248201527f45524332303a206275726e20616d6f756e7420657863656564732062616c616e604482015261636560f01b60648201526084016104b8565b6001600160a01b0383166000818152602081815260408083208686039055600280548790039055518581529192917fddf252ad1be2c89b69c2b068fc378daa952ba7f163c4a11628f55a4df523b3ef9101610c54565b505050565b6001600160a01b0383161580159061124457506001600160a01b03821615155b1561121f5761125283611094565b61121f82611094565b600554600160a01b900460ff166106105760405162461bcd60e51b815260206004820152601460248201527314185d5cd8589b194e881b9bdd081c185d5cd95960621b60448201526064016104b8565b600060208083528351808285015260005b818110156112d8578581018301518582016040015282016112bc565b506000604082860101526040601f19601f8301168501019250505092915050565b80356001600160a01b038116811461131057600080fd5b919050565b6000806040838503121561132857600080fd5b611331836112f9565b946020939093013593505050565b60008060006060848603121561135457600080fd5b61135d846112f9565b925061136b602085016112f9565b9150604084013590509250925092565b60006020828403121561138d57600080fd5b611396826112f9565b9392505050565b600080604083850312156113b057600080fd5b6113b9836112f9565b91506113c7602084016112f9565b90509250929050565b634e487b7160e01b600052601160045260246000fd5b808201808211156105b4576105b46113d0565b600181811c9082168061140d57607f821691505b60208210810361142d57634e487b7160e01b600052602260045260246000fd5b50919050565b60008261145057634e487b7160e01b600052601260045260246000fd5b500490565b818103818111156105b4576105b46113d0565b80820281158282048414176105b4576105b46113d056fea264697066735822122047a9a702f814e1dca9aeb94146fdcadd023cafe96e3a283f46bfddcd1f26fd9664736f6c63430008140033",
  "linkReferences": {},
  "deployedLinkReferences": {}
}