{
  "_format": "hh-sol-artifact-1",
  "contractName": "ProjectRegistry",
  "sourceName": "contracts/ProjectRegistry.sol",
  "abi": [
    {
      "inputs": [],
      "stateMutability": "nonpayable",
      "type": "constructor"
    },
    {
      "inputs": [],
      "name": "AlreadyVerified",
      "type": "error"
    },
    {
      "inputs": [],
      "name": "EmptyLocation",
      "type": "error"
    },
    {
      "inputs": [],
      "name": "EmptyName",
      "type": "error"
    },
    {
      "inputs": [],
      "name": "InvalidAddress",
      "type": "error"
    },
    {
      "inputs": [],
      "name": "InvalidStatus",
      "type": "error"
    },
    {
      "inputs": [],
      "name": "ProjectCompleted",
      "type": "error"
    },
    {
      "inputs": [],
      "name": "ProjectDoesNotExist",
      "type": "error"
    },
    {
      "inputs": [],
      "name": "ZeroCapacity",
      "type": "error"
    },
    {
      "anonymous": false,
      "inputs": [
        {
          "indexed": true,
          "internalType": "address",
          "name": "investor",
          "type": "address"
        }
      ],
      "name": "KYCVerified",
      "type": "event"
    },
    {
      "anonymous": false,
      "inputs": [
        {
          "indexed": true,
          "internalType": "address",
          "name": "previousOwner",
          "type": "address"
        },
        {
          "indexed": true,
          "internalType": "address",
          "name": "newOwner",
          "type": "address"
        }
      ],
      "name": "OwnershipTransferred",
      "type": "event"
    },
    {
      "anonymous": false,
      "inputs": [
        {
          "indexed": false,
          "internalType": "address",
          "name": "account",
          "type": "address"
        }
      ],
      "name": "Paused",
      "type": "event"
    },
    {
      "anonymous": false,
      "inputs": [
        {
          "indexed": true,
          "internalType": "uint256",
          "name": "projectId",
          "type": "uint256"
        },
        {
          "indexed": false,
          "internalType": "string",
          "name": "name",
          "type": "string"
        },
        {
          "indexed": false,
          "internalType": "address",
          "name": "owner",
          "type": "address"
        }
      ],
      "name": "ProjectRegistered",
      "type": "event"
    },
    {
      "anonymous": false,
      "inputs": [
        {
          "indexed": true,
          "internalType": "uint256",
          "name": "projectId",
          "type": "uint256"
        },
        {
          "indexed": false,
          "internalType": "enum ProjectRegistry.ProjectStatus",
          "name": "status",
          "type": "uint8"
        }
      ],
      "name": "ProjectStatusUpdated",
      "type": "event"
    },
    {
      "anonymous": false,
      "inputs": [
        {
          "indexed": false,
          "internalType": "address",
          "name": "account",
          "type": "address"
        }
      ],
      "name": "Unpaused",
      "type": "event"
    },
    {
      "inputs": [
        {
          "internalType": "uint256",
          "name": "projectId",
          "type": "uint256"
        }
      ],
      "name": "getProjectDetails",
      "outputs": [
        {
          "internalType": "uint256",
          "name": "id",
          "type": "uint256"
        },
        {
          "internalType": "string",
          "name": "name",
          "type": "string"
        },
        {
          "internalType": "uint256",
          "name": "capacity",
          "type": "uint256"
        },
        {
          "internalType": "string",
          "name": "location",
          "type": "string"
        },
        {
          "internalType": "uint256",
          "name": "totalInvestment",
          "type": "uint256"
        },
        {
          "internalType": "uint256",
          "name": "currentInvestment",
          "type": "uint256"
        },
        {
          "internalType": "enum ProjectRegistry.ProjectStatus",
          "name": "status",
          "type": "uint8"
        },
        {
          "internalType": "address",
          "name": "owner",
          "type": "address"
        },
        {
          "internalType": "uint256",
          "name": "createdAt",
          "type": "uint256"
        }
      ],
      "stateMutability": "view",
      "type": "function"
    },
    {
      "inputs": [
        {
          "internalType": "address",
          "name": "investor",
          "type": "address"
        }
      ],
      "name": "isKYCVerified",
      "outputs": [
        {
          "internalType": "bool",
          "name": "",
          "type": "bool"
        }
      ],
      "stateMutability": "view",
      "type": "function"
    },
    {
      "inputs": [
        {
          "internalType": "address",
          "name": "",
          "type": "address"
        }
      ],
      "name": "kycVerified",
      "outputs": [
        {
          "internalType": "bool",
          "name": "",
          "type": "bool"
        }
      ],
      "stateMutability": "view",
      "type": "function"
    },
    {
      "inputs": [],
      "name": "owner",
      "outputs": [
        {
          "internalType": "address",
          "name": "",
          "type": "address"
        }
      ],
      "stateMutability": "view",
      "type": "function"
    },
    {
      "inputs": [],
      "name": "pause",
      "outputs": [],
      "stateMutability": "nonpayable",
      "type": "function"
    },
    {
      "inputs": [],
      "name": "paused",
      "outputs": [
        {
          "internalType": "bool",
          "name": "",
          "type": "bool"
        }
      ],
      "stateMutability": "view",
      "type": "function"
    },
    {
      "inputs": [],
      "name": "projectCount",
      "outputs": [
        {
          "internalType": "uint256",
          "name": "",
          "type": "uint256"
        }
      ],
      "stateMutability": "view",
      "type": "function"
    },
    {
      "inputs": [
        {
          "internalType": "uint256",
          "name": "",
          "type": "uint256"
        }
      ],
      "name": "projects",
      "outputs": [
        {
          "internalType": "uint256",
          "name": "id",
          "type": "uint256"
        },
        {
          "internalType": "string",
          "name": "name",
          "type": "string"
        },
        {
          "internalType": "uint256",
          "name": "capacity",
          "type": "uint256"
        },
        {
          "internalType": "string",
          "name": "location",
          "type": "string"
        },
        {
          "internalType": "uint256",
          "name": "totalInvestment",
          "type": "uint256"
        },
        {
          "internalType": "uint256",
          "name": "currentInvestment",
          "type": "uint256"
        },
        {
          "internalType": "enum ProjectRegistry.ProjectStatus",
          "name": "status",
          "type": "uint8"
        },
        {
          "internalType": "address",
          "name": "owner",
          "type": "address"
        },
        {
          "internalType": "uint256",
          "name": "createdAt",
          "type": "uint256"
        }
      ],
      "stateMutability": "view",
      "type": "function"
    },
    {
      "inputs": [
        {
          "internalType": "string",
          "name": "name",
          "type": "string"
        },
        {
          "internalType": "uint256",
          "name": "capacity",
          "type": "uint256"
        },
        {
          "internalType": "string",
          "name": "location",
          "type": "string"
        }
      ],
      "name": "registerProject",
      "outputs": [],
      "stateMutability": "nonpayable",
      "type": "function"
    },
    {
      "inputs": [],
      "name": "renounceOwnership",
      "outputs": [],
      "stateMutability": "nonpayable",
      "type": "function"
    },
    {
      "inputs": [
        {
          "internalType": "address",
          "name": "newOwner",
          "type": "address"
        }
      ],
      "name": "transferOwnership",
      "outputs": [],
      "stateMutability": "nonpayable",
      "type": "function"
    },
    {
      "inputs": [],
      "name": "unpause",
      "outputs": [],
      "stateMutability": "nonpayable",
      "type": "function"
    },
    {
      "inputs": [
        {
          "internalType": "uint256",
          "name": "projectId",
          "type": "uint256"
        },
        {
          "internalType": "uint256",
          "name": "newStatus",
          "type": "uint256"
        }
      ],
      "name": "updateProjectStatus",
      "outputs": [],
      "stateMutability": "nonpayable",
      "type": "function"
    },
    {
      "inputs": [
        {
          "internalType": "address",
          "name": "investor",
          "type": "address"
        }
      ],
      "name": "verifyKYC",
      "outputs": [],
      "stateMutability": "nonpayable",
      "type": "function"
    }
  ],
  "bytecode": "0x608060405234801561001057600080fd5b5061001a3361002c565b6000805460ff60a01b1916905561007c565b600080546001600160a01b038381166001600160a01b0319831681178455604051919092169283917f8be0079c531659141344cd1fd0a4f28419497f9722a3daafe3b4186f6b6457e09190a35050565b6111488061008b6000396000f3fe608060405234801561001057600080fd5b50600436106100ea5760003560e01c80635c975abb1161008c5780638456cb59116100665780638456cb59146101e35780638da5cb5b146101eb578063a5410a6614610206578063f2fde38b1461022957600080fd5b80635c975abb146101b65780635f8439e3146101c8578063715018a6146101db57600080fd5b806338d16011116100c857806338d160111461014c5780633bec43e61461015f5780633f4ba83a1461017257806354b7636e1461017a57600080fd5b8063107046bd146100ef578063256be6b21461012057806336fbad2614610135575b600080fd5b6101026100fd366004610cfa565b61023c565b60405161011799989796959493929190610d91565b60405180910390f35b61013361012e366004610e02565b6103a1565b005b61013e60035481565b604051908152602001610117565b61013361015a366004610e24565b61058f565b61013361016d366004610ef7565b610644565b61013361081b565b6101a6610188366004610e24565b6001600160a01b031660009081526002602052604090205460ff1690565b6040519015158152602001610117565b600054600160a01b900460ff166101a6565b6101026101d6366004610cfa565b61082d565b610133610a80565b610133610a92565b6000546040516001600160a01b039091168152602001610117565b6101a6610214366004610e24565b60026020526000908152604090205460ff1681565b610133610237366004610e24565b610aa2565b60016020819052600091825260409091208054918101805461025d90610f64565b80601f016020809104026020016040519081016040528092919081815260200182805461028990610f64565b80156102d65780601f106102ab576101008083540402835291602001916102d6565b820191906000526020600020905b8154815290600101906020018083116102b957829003601f168201915b5050505050908060020154908060030180546102f190610f64565b80601f016020809104026020016040519081016040528092919081815260200182805461031d90610f64565b801561036a5780601f1061033f5761010080835404028352916020019161036a565b820191906000526020600020905b81548152906001019060200180831161034d57829003601f168201915b505050506004830154600584015460068501546007909501549394919390925060ff82169161010090046001600160a01b03169089565b60035482106103c3576040516338fde52b60e01b815260040160405180910390fd5b600481106103e4576040516307a92f1960e51b815260040160405180910390fd5b60008281526001602052604090206006015461010090046001600160a01b0316331461044b5760405162461bcd60e51b81526020600482015260116024820152702737ba10383937b532b1ba1037bbb732b960791b60448201526064015b60405180910390fd5b600360008381526001602052604090206006015460ff16600381111561047357610473610d59565b036104b45760405162461bcd60e51b8152602060048201526011602482015270141c9bda9958dd0818d85b98d95b1b1959607a1b6044820152606401610442565b600260008381526001602052604090206006015460ff1660038111156104dc576104dc610d59565b036104fa576040516371cc333960e11b815260040160405180910390fd5b80600381111561050c5761050c610d59565b60008381526001602081905260409091206006018054909160ff199091169083600381111561053d5761053d610d59565b0217905550817f8fb6fda973f304b2834c4147004045448416c05b253872373ac5b19f4a5b7a5d82600381111561057657610576610d59565b6040516105839190610f9e565b60405180910390a25050565b610597610b1b565b6001600160a01b0381166105be5760405163e6c4247b60e01b815260040160405180910390fd5b6001600160a01b03811660009081526002602052604090205460ff16156105f857604051630231faf760e31b815260040160405180910390fd5b6001600160a01b038116600081815260026020526040808220805460ff19166001179055517f65c84ee842eafc291d1272a6e3d10f8c454c4288e63f5db3f7be2b3012f321a99190a250565b61064c610b75565b825160000361066e57604051632ef1310560e01b815260040160405180910390fd5b805160000361069057604051632656eee560e01b815260040160405180910390fd5b816000036106b1576040516302f2d9e160e21b815260040160405180910390fd5b60038054600091826106c283610fb2565b91905055905060405180610120016040528082815260200185815260200184815260200183815260200160008152602001600081526020016000600381111561070d5761070d610d59565b8152336020808301919091524260409283015260008481526001808352929020835181559083015190918201906107449082611028565b5060408201516002820155606082015160038201906107639082611028565b506080820151600482015560a0820151600582015560c082015160068201805460ff1916600183600381111561079b5761079b610d59565b021790555060e08201518160060160016101000a8154816001600160a01b0302191690836001600160a01b031602179055506101008201518160070155905050807fbe67d123666fdaa12bddfaf9f13056f83522df7149a1717d7ba91baf586cfcc8853360405161080d9291906110e8565b60405180910390a250505050565b610823610b1b565b61082b610bc2565b565b600060606000606060008060008060006003548a1061085f576040516338fde52b60e01b815260040160405180910390fd5b60008a81526001602081815260408084208151610120810190925280548252928301805491939284019161089290610f64565b80601f01602080910402602001604051908101604052809291908181526020018280546108be90610f64565b801561090b5780601f106108e05761010080835404028352916020019161090b565b820191906000526020600020905b8154815290600101906020018083116108ee57829003601f168201915b505050505081526020016002820154815260200160038201805461092e90610f64565b80601f016020809104026020016040519081016040528092919081815260200182805461095a90610f64565b80156109a75780601f1061097c576101008083540402835291602001916109a7565b820191906000526020600020905b81548152906001019060200180831161098a57829003601f168201915b50505091835250506004820154602082015260058201546040820152600682015460609091019060ff1660038111156109e2576109e2610d59565b60038111156109f3576109f3610d59565b81526020016006820160019054906101000a90046001600160a01b03166001600160a01b03166001600160a01b031681526020016007820154815250509050806000015181602001518260400151836060015184608001518560a001518660c001518760e00151886101000151995099509950995099509950995099509950509193959799909294969850565b610a88610b1b565b61082b6000610c17565b610a9a610b1b565b61082b610c67565b610aaa610b1b565b6001600160a01b038116610b0f5760405162461bcd60e51b815260206004820152602660248201527f4f776e61626c653a206e6577206f776e657220697320746865207a65726f206160448201526564647265737360d01b6064820152608401610442565b610b1881610c17565b50565b6000546001600160a01b0316331461082b5760405162461bcd60e51b815260206004820181905260248201527f4f776e61626c653a2063616c6c6572206973206e6f7420746865206f776e65726044820152606401610442565b600054600160a01b900460ff161561082b5760405162461bcd60e51b815260206004820152601060248201526f14185d5cd8589b194e881c185d5cd95960821b6044820152606401610442565b610bca610caa565b6000805460ff60a01b191690557f5db9ee0a495bf2e6ff9c91a7834c1ba4fdd244a5e8aa4e537bd38aeae4b073aa335b6040516001600160a01b03909116815260200160405180910390a1565b600080546001600160a01b038381166001600160a01b0319831681178455604051919092169283917f8be0079c531659141344cd1fd0a4f28419497f9722a3daafe3b4186f6b6457e09190a35050565b610c6f610b75565b6000805460ff60a01b1916600160a01b1790557f62e78cea01bee320cd4e420270b5ea74000d11b0c9f74754ebdbfc544b05a258610bfa3390565b600054600160a01b900460ff1661082b5760405162461bcd60e51b815260206004820152601460248201527314185d5cd8589b194e881b9bdd081c185d5cd95960621b6044820152606401610442565b600060208284031215610d0c57600080fd5b5035919050565b6000815180845260005b81811015610d3957602081850181015186830182015201610d1d565b506000602082860101526020601f19601f83011685010191505092915050565b634e487b7160e01b600052602160045260246000fd5b60048110610d8d57634e487b7160e01b600052602160045260246000fd5b9052565b60006101208b8352806020840152610dab8184018c610d13565b90508960408401528281036060840152610dc5818a610d13565b9150508660808301528560a0830152610de160c0830186610d6f565b6001600160a01b039390931660e08201526101000152979650505050505050565b60008060408385031215610e1557600080fd5b50508035926020909101359150565b600060208284031215610e3657600080fd5b81356001600160a01b0381168114610e4d57600080fd5b9392505050565b634e487b7160e01b600052604160045260246000fd5b600082601f830112610e7b57600080fd5b813567ffffffffffffffff80821115610e9657610e96610e54565b604051601f8301601f19908116603f01168101908282118183101715610ebe57610ebe610e54565b81604052838152866020858801011115610ed757600080fd5b836020870160208301376000602085830101528094505050505092915050565b600080600060608486031215610f0c57600080fd5b833567ffffffffffffffff80821115610f2457600080fd5b610f3087838801610e6a565b9450602086013593506040860135915080821115610f4d57600080fd5b50610f5a86828701610e6a565b9150509250925092565b600181811c90821680610f7857607f821691505b602082108103610f9857634e487b7160e01b600052602260045260246000fd5b50919050565b60208101610fac8284610d6f565b92915050565b600060018201610fd257634e487b7160e01b600052601160045260246000fd5b5060010190565b601f82111561102357600081815260208120601f850160051c810160208610156110005750805b601f850160051c820191505b8181101561101f5782815560010161100c565b5050505b505050565b815167ffffffffffffffff81111561104257611042610e54565b611056816110508454610f64565b84610fd9565b602080601f83116001811461108b57600084156110735750858301515b600019600386901b1c1916600185901b17855561101f565b600085815260208120601f198616915b828110156110ba5788860151825594840194600190910190840161109b565b50858210156110d85787850151600019600388901b60f8161c191681555b5050505050600190811b01905550565b6040815260006110fb6040830185610d13565b905060018060a01b0383166020830152939250505056fea2646970667358221220e2858e4a55b4c4e2cfd372b664bfc352dbfe77fc444e1c0787bc5dd8dc538de764736f6c63430008140033",
  "linkReferences": {},
  "deployedLinkReferences": {}
}