{
  "_format": "hh-sol-artifact-1",
  "contractName": "ProjectRegistry",
  "sourceName": "contracts/ProjectRegistry.sol",
  "abi": [
    {
      "inputs": [],
      "name": "AlreadyVerified",
      "type": "error"
    },
    {
      "inputs": [],
      "name": "EmptyLocation",
      "type": "error"
    },
    {
      "inputs": [],
      "name": "EmptyName",
      "type": "error"
    },
    {
      "inputs": [],
      "name": "InvalidAddress",
      "type": "error"
    },
    {
      "inputs": [],
      "name": "InvalidInvestmentLimits",
      "type": "error"
    },
    {
      "inputs": [],
      "name": "InvalidStatus",
      "type": "error"
    },
    {
      "inputs": [],
      "name": "InvalidTokenAddress",
      "type": "error"
    },
    {
      "inputs": [],
      "name": "NotVerified",
      "type": "error"
    },
    {
      "inputs": [],
      "name": "ProjectCompleted",
      "type": "error"
    },
    {
      "inputs": [],
      "name": "ProjectDoesNotExist",
      "type": "error"
    },
    {
      "inputs": [],
      "name": "ZeroCapacity",
      "type": "error"
    },
    {
      "anonymous": false,
      "inputs": [
        {
          "indexed": true,
          "internalType": "address",
          "name": "investor",
          "type": "address"
        }
      ],
      "name": "KYCRevoked",
      "type": "event"
    },
    {
      "anonymous": false,
      "inputs": [
        {
          "indexed": true,
          "internalType": "address",
          "name": "investor",
          "type": "address"
        }
      ],
      "name": "KYCVerified",
      "type": "event"
    },
    {
      "anonymous": false,
      "inputs": [
        {
          "indexed": true,
          "internalType": "address",
          "name": "previousOwner",
          "type": "address"
        },
        {
          "indexed": true,
          "internalType": "address",
          "name": "newOwner",
          "type": "address"
        }
      ],
      "name": "OwnershipTransferred",
      "type": "event"
    },
    {
      "anonymous": false,
      "inputs": [
        {
          "indexed": false,
          "internalType": "address",
          "name": "account",
          "type": "address"
        }
      ],
      "name": "Paused",
      "type": "event"
    },
    {
      "anonymous": false,
      "inputs": [
        {
          "indexed": true,
          "internalType": "uint256",
          "name": "projectId",
          "type": "uint256"
        },
        {
          "indexed": false,
          "internalType": "string",
          "name": "name",
          "type": "string"
        },
        {
          "indexed": false,
          "internalType": "address",
          "name": "owner",
          "type": "address"
        }
      ],
      "name": "ProjectRegistered",
      "type": "event"
    },
    {
      "anonymous": false,
      "inputs": [
        {
          "indexed": true,
          "internalType": "uint256",
          "name": "projectId",
          "type": "uint256"
        },
        {
          "indexed": false,
          "internalType": "enum ProjectRegistry.ProjectStatus",
          "name": "status",
          "type": "uint8"
        }
      ],
      "name": "ProjectStatusUpdated",
      "type": "event"
    },
    {
      "anonymous": false,
      "inputs": [
        {
          "indexed": false,
          "internalType": "address",
          "name": "account",
          "type": "address"
        }
      ],
      "name": "Unpaused",
      "type": "event"
    },
    {
      "inputs": [
        {
          "internalType": "uint256",
          "name": "projectId",
          "type": "uint256"
        }
      ],
      "name": "getProjectDetails",
      "outputs": [
        {
          "components": [
            {
              "internalType": "uint256",
              "name": "id",
              "type": "uint256"
            },
            {
              "internalType": "string",
              "name": "name",
              "type": "string"
            },
            {
              "internalType": "string",
              "name": "description",
              "type": "string"
            },
            {
              "internalType": "address",
              "name": "owner",
              "type": "address"
            },
            {
              "internalType": "uint256",
              "name": "createdAt",
              "type": "uint256"
            },
            {
              "internalType": "enum ProjectRegistry.ProjectStatus",
              "name": "status",
              "type": "uint8"
            }
          ],
          "internalType": "struct ProjectRegistry.ProjectBase",
          "name": "base",
          "type": "tuple"
        },
        {
          "components": [
            {
              "internalType": "uint256",
              "name": "totalInvestment",
              "type": "uint256"
            },
            {
              "internalType": "uint256",
              "name": "currentInvestment",
              "type": "uint256"
            },
            {
              "internalType": "uint256",
              "name": "targetAmount",
              "type": "uint256"
            },
            {
              "internalType": "uint256",
              "name": "minInvestment",
              "type": "uint256"
            },
            {
              "internalType": "uint256",
              "name": "maxInvestment",
              "type": "uint256"
            }
          ],
          "internalType": "struct ProjectRegistry.ProjectFinancials",
          "name": "financials",
          "type": "tuple"
        },
        {
          "components": [
            {
              "internalType": "uint256",
              "name": "capacity",
              "type": "uint256"
            },
            {
              "internalType": "string",
              "name": "location",
              "type": "string"
            },
            {
              "internalType": "address",
              "name": "tokenAddress",
              "type": "address"
            }
          ],
          "internalType": "struct ProjectRegistry.ProjectTechnical",
          "name": "technical",
          "type": "tuple"
        }
      ],
      "stateMutability": "view",
      "type": "function"
    },
    {
      "inputs": [
        {
          "internalType": "uint256",
          "name": "projectId",
          "type": "uint256"
        }
      ],
      "name": "getProjectToken",
      "outputs": [
        {
          "internalType": "address",
          "name": "",
          "type": "address"
        }
      ],
      "stateMutability": "view",
      "type": "function"
    },
    {
      "inputs": [
        {
          "internalType": "address",
          "name": "investor",
          "type": "address"
        }
      ],
      "name": "isKYCVerified",
      "outputs": [
        {
          "internalType": "bool",
          "name": "",
          "type": "bool"
        }
      ],
      "stateMutability": "view",
      "type": "function"
    },
    {
      "inputs": [
        {
          "internalType": "address",
          "name": "",
          "type": "address"
        }
      ],
      "name": "kycVerified",
      "outputs": [
        {
          "internalType": "bool",
          "name": "",
          "type": "bool"
        }
      ],
      "stateMutability": "view",
      "type": "function"
    },
    {
      "inputs": [],
      "name": "owner",
      "outputs": [
        {
          "internalType": "address",
          "name": "",
          "type": "address"
        }
      ],
      "stateMutability": "view",
      "type": "function"
    },
    {
      "inputs": [],
      "name": "pause",
      "outputs": [],
      "stateMutability": "nonpayable",
      "type": "function"
    },
    {
      "inputs": [],
      "name": "paused",
      "outputs": [
        {
          "internalType": "bool",
          "name": "",
          "type": "bool"
        }
      ],
      "stateMutability": "view",
      "type": "function"
    },
    {
      "inputs": [],
      "name": "projectCount",
      "outputs": [
        {
          "internalType": "uint256",
          "name": "",
          "type": "uint256"
        }
      ],
      "stateMutability": "view",
      "type": "function"
    },
    {
      "inputs": [
        {
          "internalType": "uint256",
          "name": "",
          "type": "uint256"
        }
      ],
      "name": "projectsBase",
      "outputs": [
        {
          "internalType": "uint256",
          "name": "id",
          "type": "uint256"
        },
        {
          "internalType": "string",
          "name": "name",
          "type": "string"
        },
        {
          "internalType": "string",
          "name": "description",
          "type": "string"
        },
        {
          "internalType": "address",
          "name": "owner",
          "type": "address"
        },
        {
          "internalType": "uint256",
          "name": "createdAt",
          "type": "uint256"
        },
        {
          "internalType": "enum ProjectRegistry.ProjectStatus",
          "name": "status",
          "type": "uint8"
        }
      ],
      "stateMutability": "view",
      "type": "function"
    },
    {
      "inputs": [
        {
          "internalType": "uint256",
          "name": "",
          "type": "uint256"
        }
      ],
      "name": "projectsFinancials",
      "outputs": [
        {
          "internalType": "uint256",
          "name": "totalInvestment",
          "type": "uint256"
        },
        {
          "internalType": "uint256",
          "name": "currentInvestment",
          "type": "uint256"
        },
        {
          "internalType": "uint256",
          "name": "targetAmount",
          "type": "uint256"
        },
        {
          "internalType": "uint256",
          "name": "minInvestment",
          "type": "uint256"
        },
        {
          "internalType": "uint256",
          "name": "maxInvestment",
          "type": "uint256"
        }
      ],
      "stateMutability": "view",
      "type": "function"
    },
    {
      "inputs": [
        {
          "internalType": "uint256",
          "name": "",
          "type": "uint256"
        }
      ],
      "name": "projectsTechnical",
      "outputs": [
        {
          "internalType": "uint256",
          "name": "capacity",
          "type": "uint256"
        },
        {
          "internalType": "string",
          "name": "location",
          "type": "string"
        },
        {
          "internalType": "address",
          "name": "tokenAddress",
          "type": "address"
        }
      ],
      "stateMutability": "view",
      "type": "function"
    },
    {
      "inputs": [
        {
          "internalType": "string",
          "name": "name",
          "type": "string"
        },
        {
          "internalType": "string",
          "name": "description",
          "type": "string"
        },
        {
          "internalType": "uint256",
          "name": "targetAmount",
          "type": "uint256"
        },
        {
          "internalType": "uint256",
          "name": "minInvestment",
          "type": "uint256"
        },
        {
          "internalType": "uint256",
          "name": "maxInvestment",
          "type": "uint256"
        },
        {
          "internalType": "address",
          "name": "tokenAddress",
          "type": "address"
        }
      ],
      "name": "registerProject",
      "outputs": [],
      "stateMutability": "nonpayable",
      "type": "function"
    },
    {
      "inputs": [],
      "name": "renounceOwnership",
      "outputs": [],
      "stateMutability": "nonpayable",
      "type": "function"
    },
    {
      "inputs": [
        {
          "internalType": "address",
          "name": "investor",
          "type": "address"
        }
      ],
      "name": "revokeKYC",
      "outputs": [],
      "stateMutability": "nonpayable",
      "type": "function"
    },
    {
      "inputs": [
        {
          "internalType": "address",
          "name": "newOwner",
          "type": "address"
        }
      ],
      "name": "transferOwnership",
      "outputs": [],
      "stateMutability": "nonpayable",
      "type": "function"
    },
    {
      "inputs": [
        {
          "internalType": "uint256",
          "name": "projectId",
          "type": "uint256"
        },
        {
          "internalType": "address",
          "name": "newOwner",
          "type": "address"
        }
      ],
      "name": "transferProjectOwnership",
      "outputs": [],
      "stateMutability": "nonpayable",
      "type": "function"
    },
    {
      "inputs": [],
      "name": "unpause",
      "outputs": [],
      "stateMutability": "nonpayable",
      "type": "function"
    },
    {
      "inputs": [
        {
          "internalType": "uint256",
          "name": "projectId",
          "type": "uint256"
        },
        {
          "internalType": "uint256",
          "name": "newStatus",
          "type": "uint256"
        }
      ],
      "name": "updateProjectStatus",
      "outputs": [],
      "stateMutability": "nonpayable",
      "type": "function"
    },
    {
      "inputs": [
        {
          "internalType": "address",
          "name": "investor",
          "type": "address"
        }
      ],
      "name": "verifyKYC",
      "outputs": [],
      "stateMutability": "nonpayable",
      "type": "function"
    }
  ],
  "bytecode": "0x608060405234801561001057600080fd5b5061001a3361002c565b6000805460ff60a01b1916905561007c565b600080546001600160a01b038381166001600160a01b0319831681178455604051919092169283917f8be0079c531659141344cd1fd0a4f28419497f9722a3daafe3b4186f6b6457e09190a35050565b61180b8061008b6000396000f3fe608060405234801561001057600080fd5b50600436106101215760003560e01c8063715018a6116100ad578063a5410a6611610071578063a5410a66146102c7578063d57c6af2146102ea578063dfecbd8e1461030c578063f0a101371461031f578063f2fde38b1461033257600080fd5b8063715018a6146102085780637a1f2ebf146102105780638456cb59146102355780638da5cb5b1461023d57806397baf24f1461026257600080fd5b80633f4ba83a116100f45780633f4ba83a1461017d5780634fcbbb461461018557806354b7636e146101985780635c975abb146101d45780635f8439e3146101e657600080fd5b8063256be6b21461012657806336fbad261461013b57806338d160111461015757806339ba645b1461016a575b600080fd5b610139610134366004611256565b610345565b005b61014460055481565b6040519081526020015b60405180910390f35b610139610165366004611294565b6104b8565b610139610178366004611294565b61056d565b61013961061e565b6101396101933660046112ff565b610630565b6101c46101a6366004611294565b6001600160a01b031660009081526004602052604090205460ff1690565b604051901515815260200161014e565b600054600160a01b900460ff166101c4565b6101f96101f436600461139b565b610956565b60405161014e9392919061146e565b610139610c96565b61022361021e36600461139b565b610ca8565b60405161014e96959493929190611540565b610139610dfb565b6000546001600160a01b03165b6040516001600160a01b03909116815260200161014e565b61029f61027036600461139b565b600260208190526000918252604090912080546001820154928201546003830154600490930154919392909185565b604080519586526020860194909452928401919091526060830152608082015260a00161014e565b6101c46102d5366004611294565b60046020526000908152604090205460ff1681565b6102fd6102f836600461139b565b610e0b565b60405161014e9392919061159d565b61013961031a3660046115ce565b610ebf565b61024a61032d36600461139b565b610f67565b610139610340366004611294565b610faa565b6005548210610367576040516338fde52b60e01b815260040160405180910390fd5b60048110610388576040516307a92f1960e51b815260040160405180910390fd5b600082815260016020526040902060038101546001600160a01b031633146103c35760405163e6c4247b60e01b815260040160405180910390fd5b6003600582015460ff1660038111156103de576103de6113fa565b036103fc576040516371cc333960e11b815260040160405180910390fd5b6002600582015460ff166003811115610417576104176113fa565b03610435576040516371cc333960e11b815260040160405180910390fd5b816003811115610447576104476113fa565b60058201805460ff19166001836003811115610465576104656113fa565b0217905550827f8fb6fda973f304b2834c4147004045448416c05b253872373ac5b19f4a5b7a5d83600381111561049e5761049e6113fa565b6040516104ab91906115fa565b60405180910390a2505050565b6104c0611028565b6001600160a01b0381166104e75760405163e6c4247b60e01b815260040160405180910390fd5b6001600160a01b03811660009081526004602052604090205460ff161561052157604051630231faf760e31b815260040160405180910390fd5b6001600160a01b038116600081815260046020526040808220805460ff19166001179055517f65c84ee842eafc291d1272a6e3d10f8c454c4288e63f5db3f7be2b3012f321a99190a250565b610575611028565b6001600160a01b03811661059c5760405163e6c4247b60e01b815260040160405180910390fd5b6001600160a01b03811660009081526004602052604090205460ff166105d55760405163a95362b560e01b815260040160405180910390fd5b6001600160a01b038116600081815260046020526040808220805460ff19169055517ffb4ca6a2470de95e9f648557fae63380f22c4b760bd27b0571caf5977a30278a9190a250565b610626611028565b61062e611082565b565b6106386110d7565b600087900361065a57604051632ef1310560e01b815260040160405180910390fd5b600085900361067c57604051632ef1310560e01b815260040160405180910390fd5b8360000361069d576040516302f2d9e160e21b815260040160405180910390fd5b8215806106a957508282105b156106c75760405163561f8b5f60e11b815260040160405180910390fd5b6001600160a01b0381166106ee57604051630f58058360e11b815260040160405180910390fd5b60058054600091826106ff8361160e565b9190505590506040518060c001604052808281526020018a8a8080601f016020809104026020016040519081016040528093929190818152602001838380828437600092019190915250505090825250604080516020601f8b0181900481028201810190925289815291810191908a908a9081908401838280828437600092018290525093855250503360208401525042604083015260609091015260008281526001602081815260409092208351815591830151908201906107c290826116d4565b50604082015160028201906107d790826116d4565b506060820151600382810180546001600160a01b0319166001600160a01b03909316929092179091556080830151600483015560a08301516005830180549192909160ff1916906001908490811115610832576108326113fa565b0217905550506040805160a081018252600080825260208083018281528385018b815260608086018c8152608087018c81528a875260028087528988209851895594516001808a019190915593519488019490945551600380880191909155925160049096019590955585519485018652838552855180840187528481528584019081526001600160a01b038a168688015288855291909252939091208251815592519193508201906108e590826116d4565b5060409182015160029190910180546001600160a01b0319166001600160a01b039092169190911790555181907fbe67d123666fdaa12bddfaf9f13056f83522df7149a1717d7ba91baf586cfcc890610943908c908c903390611794565b60405180910390a2505050505050505050565b61095e611207565b6109906040518060a0016040528060008152602001600081526020016000815260200160008152602001600081525090565b6109bd6040518060600160405280600081526020016060815260200160006001600160a01b031681525090565b60055484106109df576040516338fde52b60e01b815260040160405180910390fd5b6000848152600160208181526040808420600283528185206003845294829020825160c081019093528154835293810180549195949386929084019190610a259061164b565b80601f0160208091040260200160405190810160405280929190818152602001828054610a519061164b565b8015610a9e5780601f10610a7357610100808354040283529160200191610a9e565b820191906000526020600020905b815481529060010190602001808311610a8157829003601f168201915b50505050508152602001600282018054610ab79061164b565b80601f0160208091040260200160405190810160405280929190818152602001828054610ae39061164b565b8015610b305780601f10610b0557610100808354040283529160200191610b30565b820191906000526020600020905b815481529060010190602001808311610b1357829003601f168201915b50505091835250506003828101546001600160a01b0316602083015260048301546040830152600583015460609092019160ff1690811115610b7457610b746113fa565b6003811115610b8557610b856113fa565b815250509250816040518060a00160405290816000820154815260200160018201548152602001600282015481526020016003820154815260200160048201548152505091508060405180606001604052908160008201548152602001600182018054610bf19061164b565b80601f0160208091040260200160405190810160405280929190818152602001828054610c1d9061164b565b8015610c6a5780601f10610c3f57610100808354040283529160200191610c6a565b820191906000526020600020905b815481529060010190602001808311610c4d57829003601f168201915b5050509183525050600291909101546001600160a01b0316602090910152929791965091945092505050565b610c9e611028565b61062e6000611124565b600160208190526000918252604090912080549181018054610cc99061164b565b80601f0160208091040260200160405190810160405280929190818152602001828054610cf59061164b565b8015610d425780601f10610d1757610100808354040283529160200191610d42565b820191906000526020600020905b815481529060010190602001808311610d2557829003601f168201915b505050505090806002018054610d579061164b565b80601f0160208091040260200160405190810160405280929190818152602001828054610d839061164b565b8015610dd05780601f10610da557610100808354040283529160200191610dd0565b820191906000526020600020905b815481529060010190602001808311610db357829003601f168201915b505050506003830154600484015460059094015492936001600160a01b039091169290915060ff1686565b610e03611028565b61062e611174565b60036020526000908152604090208054600182018054919291610e2d9061164b565b80601f0160208091040260200160405190810160405280929190818152602001828054610e599061164b565b8015610ea65780601f10610e7b57610100808354040283529160200191610ea6565b820191906000526020600020905b815481529060010190602001808311610e8957829003601f168201915b505050600290930154919250506001600160a01b031683565b6005548210610ee1576040516338fde52b60e01b815260040160405180910390fd5b6001600160a01b038116610f085760405163e6c4247b60e01b815260040160405180910390fd5b600082815260016020526040902060038101546001600160a01b03163314610f435760405163e6c4247b60e01b815260040160405180910390fd5b60030180546001600160a01b0319166001600160a01b039290921691909117905550565b60006005548210610f8b576040516338fde52b60e01b815260040160405180910390fd5b506000908152600360205260409020600201546001600160a01b031690565b610fb2611028565b6001600160a01b03811661101c5760405162461bcd60e51b815260206004820152602660248201527f4f776e61626c653a206e6577206f776e657220697320746865207a65726f206160448201526564647265737360d01b60648201526084015b60405180910390fd5b61102581611124565b50565b6000546001600160a01b0316331461062e5760405162461bcd60e51b815260206004820181905260248201527f4f776e61626c653a2063616c6c6572206973206e6f7420746865206f776e65726044820152606401611013565b61108a6111b7565b6000805460ff60a01b191690557f5db9ee0a495bf2e6ff9c91a7834c1ba4fdd244a5e8aa4e537bd38aeae4b073aa335b6040516001600160a01b03909116815260200160405180910390a1565b600054600160a01b900460ff161561062e5760405162461bcd60e51b815260206004820152601060248201526f14185d5cd8589b194e881c185d5cd95960821b6044820152606401611013565b600080546001600160a01b038381166001600160a01b0319831681178455604051919092169283917f8be0079c531659141344cd1fd0a4f28419497f9722a3daafe3b4186f6b6457e09190a35050565b61117c6110d7565b6000805460ff60a01b1916600160a01b1790557f62e78cea01bee320cd4e420270b5ea74000d11b0c9f74754ebdbfc544b05a2586110ba3390565b600054600160a01b900460ff1661062e5760405162461bcd60e51b815260206004820152601460248201527314185d5cd8589b194e881b9bdd081c185d5cd95960621b6044820152606401611013565b6040518060c0016040528060008152602001606081526020016060815260200160006001600160a01b031681526020016000815260200160006003811115611251576112516113fa565b905290565b6000806040838503121561126957600080fd5b50508035926020909101359150565b80356001600160a01b038116811461128f57600080fd5b919050565b6000602082840312156112a657600080fd5b6112af82611278565b9392505050565b60008083601f8401126112c857600080fd5b50813567ffffffffffffffff8111156112e057600080fd5b6020830191508360208285010111156112f857600080fd5b9250929050565b60008060008060008060008060c0898b03121561131b57600080fd5b883567ffffffffffffffff8082111561133357600080fd5b61133f8c838d016112b6565b909a50985060208b013591508082111561135857600080fd5b506113658b828c016112b6565b90975095505060408901359350606089013592506080890135915061138c60a08a01611278565b90509295985092959890939650565b6000602082840312156113ad57600080fd5b5035919050565b6000815180845260005b818110156113da576020818501810151868301820152016113be565b506000602082860101526020601f19601f83011685010191505092915050565b634e487b7160e01b600052602160045260246000fd5b6004811061142e57634e487b7160e01b600052602160045260246000fd5b9052565b80518252600060208201516060602085015261145160608501826113b4565b6040938401516001600160a01b0316949093019390935250919050565b60e08152835160e08201526000602085015160c06101008401526114966101a08401826113b4565b9050604086015160df19848303016101208501526114b482826113b4565b60608801516001600160a01b0316610140860152608088015161016086015260a088015190925090506114eb610180850182611410565b50611524602084018680518252602081015160208301526040810151604083015260608101516060830152608081015160808301525050565b82810360c08401526115368185611432565b9695505050505050565b86815260c06020820152600061155960c08301886113b4565b828103604084015261156b81886113b4565b6001600160a01b0387166060850152608084018690529150611592905060a0830184611410565b979650505050505050565b8381526060602082015260006115b660608301856113b4565b905060018060a01b0383166040830152949350505050565b600080604083850312156115e157600080fd5b823591506115f160208401611278565b90509250929050565b602081016116088284611410565b92915050565b60006001820161162e57634e487b7160e01b600052601160045260246000fd5b5060010190565b634e487b7160e01b600052604160045260246000fd5b600181811c9082168061165f57607f821691505b60208210810361167f57634e487b7160e01b600052602260045260246000fd5b50919050565b601f8211156116cf57600081815260208120601f850160051c810160208610156116ac5750805b601f850160051c820191505b818110156116cb578281556001016116b8565b5050505b505050565b815167ffffffffffffffff8111156116ee576116ee611635565b611702816116fc845461164b565b84611685565b602080601f831160018114611737576000841561171f5750858301515b600019600386901b1c1916600185901b1785556116cb565b600085815260208120601f198616915b8281101561176657888601518255948401946001909101908401611747565b50858210156117845787850151600019600388901b60f8161c191681555b5050505050600190811b01905550565b6040815282604082015282846060830137600060608483018101919091526001600160a01b03929092166020820152601f909201601f19169091010191905056fea264697066735822122004a68fff4f4b8e22b21f3346cf361f4474c836280928efe58a8833281fa39b5c64736f6c63430008140033",
  "linkReferences": {},
  "deployedLinkReferences": {}
}