{
  "_format": "hh-sol-artifact-1",
  "contractName": "ProjectRegistry",
  "sourceName": "contracts/ProjectRegistry.sol",
  "abi": [
    {
      "inputs": [],
      "name": "AlreadyVerified",
      "type": "error"
    },
    {
      "inputs": [],
      "name": "EmptyLocation",
      "type": "error"
    },
    {
      "inputs": [],
      "name": "EmptyName",
      "type": "error"
    },
    {
      "inputs": [],
      "name": "InvalidAddress",
      "type": "error"
    },
    {
      "inputs": [],
      "name": "InvalidInvestmentLimits",
      "type": "error"
    },
    {
      "inputs": [],
      "name": "InvalidStatus",
      "type": "error"
    },
    {
      "inputs": [],
      "name": "InvalidTokenAddress",
      "type": "error"
    },
    {
      "inputs": [],
      "name": "NotVerified",
      "type": "error"
    },
    {
      "inputs": [],
      "name": "ProjectCompleted",
      "type": "error"
    },
    {
      "inputs": [],
      "name": "ProjectDoesNotExist",
      "type": "error"
    },
    {
      "inputs": [],
      "name": "ZeroCapacity",
      "type": "error"
    },
    {
      "anonymous": false,
      "inputs": [
        {
          "indexed": true,
          "internalType": "address",
          "name": "investor",
          "type": "address"
        }
      ],
      "name": "KYCRevoked",
      "type": "event"
    },
    {
      "anonymous": false,
      "inputs": [
        {
          "indexed": true,
          "internalType": "address",
          "name": "investor",
          "type": "address"
        }
      ],
      "name": "KYCVerified",
      "type": "event"
    },
    {
      "anonymous": false,
      "inputs": [
        {
          "indexed": true,
          "internalType": "address",
          "name": "previousOwner",
          "type": "address"
        },
        {
          "indexed": true,
          "internalType": "address",
          "name": "newOwner",
          "type": "address"
        }
      ],
      "name": "OwnershipTransferred",
      "type": "event"
    },
    {
      "anonymous": false,
      "inputs": [
        {
          "indexed": false,
          "internalType": "address",
          "name": "account",
          "type": "address"
        }
      ],
      "name": "Paused",
      "type": "event"
    },
    {
      "anonymous": false,
      "inputs": [
        {
          "indexed": true,
          "internalType": "uint256",
          "name": "projectId",
          "type": "uint256"
        },
        {
          "indexed": false,
          "internalType": "string",
          "name": "name",
          "type": "string"
        },
        {
          "indexed": false,
          "internalType": "address",
          "name": "owner",
          "type": "address"
        }
      ],
      "name": "ProjectRegistered",
      "type": "event"
    },
    {
      "anonymous": false,
      "inputs": [
        {
          "indexed": true,
          "internalType": "uint256",
          "name": "projectId",
          "type": "uint256"
        },
        {
          "indexed": false,
          "internalType": "enum ProjectRegistry.ProjectStatus",
          "name": "status",
          "type": "uint8"
        }
      ],
      "name": "ProjectStatusUpdated",
      "type": "event"
    },
    {
      "anonymous": false,
      "inputs": [
        {
          "indexed": false,
          "internalType": "address",
          "name": "account",
          "type": "address"
        }
      ],
      "name": "Unpaused",
      "type": "event"
    },
    {
      "inputs": [
        {
          "internalType": "uint256",
          "name": "projectId",
          "type": "uint256"
        }
      ],
      "name": "getProjectDetails",
      "outputs": [
        {
          "components": [
            {
              "internalType": "uint256",
              "name": "id",
              "type": "uint256"
            },
            {
              "internalType": "string",
              "name": "name",
              "type": "string"
            },
            {
              "internalType": "string",
              "name": "description",
              "type": "string"
            },
            {
              "internalType": "address",
              "name": "owner",
              "type": "address"
            },
            {
              "internalType": "uint256",
              "name": "createdAt",
              "type": "uint256"
            },
            {
              "internalType": "enum ProjectRegistry.ProjectStatus",
              "name": "status",
              "type": "uint8"
            }
          ],
          "internalType": "struct ProjectRegistry.ProjectBase",
          "name": "base",
          "type": "tuple"
        },
        {
          "components": [
            {
              "internalType": "uint256",
              "name": "totalInvestment",
              "type": "uint256"
            },
            {
              "internalType": "uint256",
              "name": "currentInvestment",
              "type": "uint256"
            },
            {
              "internalType": "uint256",
              "name": "targetAmount",
              "type": "uint256"
            },
            {
              "internalType": "uint256",
              "name": "minInvestment",
              "type": "uint256"
            },
            {
              "internalType": "uint256",
              "name": "maxInvestment",
              "type": "uint256"
            }
          ],
          "internalType": "struct ProjectRegistry.ProjectFinancials",
          "name": "financials",
          "type": "tuple"
        },
        {
          "components": [
            {
              "internalType": "uint256",
              "name": "capacity",
              "type": "uint256"
            },
            {
              "internalType": "string",
              "name": "location",
              "type": "string"
            },
            {
              "internalType": "address",
              "name": "tokenAddress",
              "type": "address"
            }
          ],
          "internalType": "struct ProjectRegistry.ProjectTechnical",
          "name": "technical",
          "type": "tuple"
        }
      ],
      "stateMutability": "view",
      "type": "function"
    },
    {
      "inputs": [
        {
          "internalType": "uint256",
          "name": "projectId",
          "type": "uint256"
        }
      ],
      "name": "getProjectToken",
      "outputs": [
        {
          "internalType": "address",
          "name": "",
          "type": "address"
        }
      ],
      "stateMutability": "view",
      "type": "function"
    },
    {
      "inputs": [
        {
          "internalType": "address",
          "name": "investor",
          "type": "address"
        }
      ],
      "name": "isKYCVerified",
      "outputs": [
        {
          "internalType": "bool",
          "name": "",
          "type": "bool"
        }
      ],
      "stateMutability": "view",
      "type": "function"
    },
    {
      "inputs": [
        {
          "internalType": "address",
          "name": "",
          "type": "address"
        }
      ],
      "name": "kycVerified",
      "outputs": [
        {
          "internalType": "bool",
          "name": "",
          "type": "bool"
        }
      ],
      "stateMutability": "view",
      "type": "function"
    },
    {
      "inputs": [],
      "name": "owner",
      "outputs": [
        {
          "internalType": "address",
          "name": "",
          "type": "address"
        }
      ],
      "stateMutability": "view",
      "type": "function"
    },
    {
      "inputs": [],
      "name": "pause",
      "outputs": [],
      "stateMutability": "nonpayable",
      "type": "function"
    },
    {
      "inputs": [],
      "name": "paused",
      "outputs": [
        {
          "internalType": "bool",
          "name": "",
          "type": "bool"
        }
      ],
      "stateMutability": "view",
      "type": "function"
    },
    {
      "inputs": [],
      "name": "projectCount",
      "outputs": [
        {
          "internalType": "uint256",
          "name": "",
          "type": "uint256"
        }
      ],
      "stateMutability": "view",
      "type": "function"
    },
    {
      "inputs": [
        {
          "internalType": "uint256",
          "name": "",
          "type": "uint256"
        }
      ],
      "name": "projectsBase",
      "outputs": [
        {
          "internalType": "uint256",
          "name": "id",
          "type": "uint256"
        },
        {
          "internalType": "string",
          "name": "name",
          "type": "string"
        },
        {
          "internalType": "string",
          "name": "description",
          "type": "string"
        },
        {
          "internalType": "address",
          "name": "owner",
          "type": "address"
        },
        {
          "internalType": "uint256",
          "name": "createdAt",
          "type": "uint256"
        },
        {
          "internalType": "enum ProjectRegistry.ProjectStatus",
          "name": "status",
          "type": "uint8"
        }
      ],
      "stateMutability": "view",
      "type": "function"
    },
    {
      "inputs": [
        {
          "internalType": "uint256",
          "name": "",
          "type": "uint256"
        }
      ],
      "name": "projectsFinancials",
      "outputs": [
        {
          "internalType": "uint256",
          "name": "totalInvestment",
          "type": "uint256"
        },
        {
          "internalType": "uint256",
          "name": "currentInvestment",
          "type": "uint256"
        },
        {
          "internalType": "uint256",
          "name": "targetAmount",
          "type": "uint256"
        },
        {
          "internalType": "uint256",
          "name": "minInvestment",
          "type": "uint256"
        },
        {
          "internalType": "uint256",
          "name": "maxInvestment",
          "type": "uint256"
        }
      ],
      "stateMutability": "view",
      "type": "function"
    },
    {
      "inputs": [
        {
          "internalType": "uint256",
          "name": "",
          "type": "uint256"
        }
      ],
      "name": "projectsTechnical",
      "outputs": [
        {
          "internalType": "uint256",
          "name": "capacity",
          "type": "uint256"
        },
        {
          "internalType": "string",
          "name": "location",
          "type": "string"
        },
        {
          "internalType": "address",
          "name": "tokenAddress",
          "type": "address"
        }
      ],
      "stateMutability": "view",
      "type": "function"
    },
    {
      "inputs": [
        {
          "internalType": "string",
          "name": "name",
          "type": "string"
        },
        {
          "internalType": "string",
          "name": "description",
          "type": "string"
        },
        {
          "internalType": "uint256",
          "name": "targetAmount",
          "type": "uint256"
        },
        {
          "internalType": "uint256",
          "name": "minInvestment",
          "type": "uint256"
        },
        {
          "internalType": "uint256",
          "name": "maxInvestment",
          "type": "uint256"
        },
        {
          "internalType": "address",
          "name": "tokenAddress",
          "type": "address"
        }
      ],
      "name": "registerProject",
      "outputs": [],
      "stateMutability": "nonpayable",
      "type": "function"
    },
    {
      "inputs": [],
      "name": "renounceOwnership",
      "outputs": [],
      "stateMutability": "nonpayable",
      "type": "function"
    },
    {
      "inputs": [
        {
          "internalType": "address",
          "name": "investor",
          "type": "address"
        }
      ],
      "name": "revokeKYC",
      "outputs": [],
      "stateMutability": "nonpayable",
      "type": "function"
    },
    {
      "inputs": [
        {
          "internalType": "address",
          "name": "newOwner",
          "type": "address"
        }
      ],
      "name": "transferOwnership",
      "outputs": [],
      "stateMutability": "nonpayable",
      "type": "function"
    },
    {
      "inputs": [],
      "name": "unpause",
      "outputs": [],
      "stateMutability": "nonpayable",
      "type": "function"
    },
    {
      "inputs": [
        {
          "internalType": "uint256",
          "name": "projectId",
          "type": "uint256"
        },
        {
          "internalType": "uint256",
          "name": "newStatus",
          "type": "uint256"
        }
      ],
      "name": "updateProjectStatus",
      "outputs": [],
      "stateMutability": "nonpayable",
      "type": "function"
    },
    {
      "inputs": [
        {
          "internalType": "address",
          "name": "investor",
          "type": "address"
        }
      ],
      "name": "verifyKYC",
      "outputs": [],
      "stateMutability": "nonpayable",
      "type": "function"
    }
  ],
  "bytecode": "0x608060405234801561001057600080fd5b5061001a3361002c565b6000805460ff60a01b1916905561007c565b600080546001600160a01b038381166001600160a01b0319831681178455604051919092169283917f8be0079c531659141344cd1fd0a4f28419497f9722a3daafe3b4186f6b6457e09190a35050565b6117198061008b6000396000f3fe608060405234801561001057600080fd5b50600436106101165760003560e01c8063715018a6116100a257806397baf24f1161007157806397baf24f14610257578063a5410a66146102bc578063d57c6af2146102df578063f0a1013714610301578063f2fde38b1461031457600080fd5b8063715018a6146101fd5780637a1f2ebf146102055780638456cb591461022a5780638da5cb5b1461023257600080fd5b80633f4ba83a116100e95780633f4ba83a146101725780634fcbbb461461017a57806354b7636e1461018d5780635c975abb146101c95780635f8439e3146101db57600080fd5b8063256be6b21461011b57806336fbad261461013057806338d160111461014c57806339ba645b1461015f575b600080fd5b61012e610129366004611190565b610327565b005b61013960055481565b6040519081526020015b60405180910390f35b61012e61015a3660046111ce565b61049a565b61012e61016d3660046111ce565b61054f565b61012e610600565b61012e610188366004611239565b610612565b6101b961019b3660046111ce565b6001600160a01b031660009081526004602052604090205460ff1690565b6040519015158152602001610143565b600054600160a01b900460ff166101b9565b6101ee6101e93660046112d5565b610938565b604051610143939291906113a8565b61012e610c78565b6102186102133660046112d5565b610c8a565b6040516101439695949392919061147a565b61012e610ddd565b6000546001600160a01b03165b6040516001600160a01b039091168152602001610143565b6102946102653660046112d5565b600260208190526000918252604090912080546001820154928201546003830154600490930154919392909185565b604080519586526020860194909452928401919091526060830152608082015260a001610143565b6101b96102ca3660046111ce565b60046020526000908152604090205460ff1681565b6102f26102ed3660046112d5565b610ded565b604051610143939291906114d7565b61023f61030f3660046112d5565b610ea1565b61012e6103223660046111ce565b610ee4565b6005548210610349576040516338fde52b60e01b815260040160405180910390fd5b6004811061036a576040516307a92f1960e51b815260040160405180910390fd5b600082815260016020526040902060038101546001600160a01b031633146103a55760405163e6c4247b60e01b815260040160405180910390fd5b6003600582015460ff1660038111156103c0576103c0611334565b036103de576040516371cc333960e11b815260040160405180910390fd5b6002600582015460ff1660038111156103f9576103f9611334565b03610417576040516371cc333960e11b815260040160405180910390fd5b81600381111561042957610429611334565b60058201805460ff1916600183600381111561044757610447611334565b0217905550827f8fb6fda973f304b2834c4147004045448416c05b253872373ac5b19f4a5b7a5d83600381111561048057610480611334565b60405161048d9190611508565b60405180910390a2505050565b6104a2610f62565b6001600160a01b0381166104c95760405163e6c4247b60e01b815260040160405180910390fd5b6001600160a01b03811660009081526004602052604090205460ff161561050357604051630231faf760e31b815260040160405180910390fd5b6001600160a01b038116600081815260046020526040808220805460ff19166001179055517f65c84ee842eafc291d1272a6e3d10f8c454c4288e63f5db3f7be2b3012f321a99190a250565b610557610f62565b6001600160a01b03811661057e5760405163e6c4247b60e01b815260040160405180910390fd5b6001600160a01b03811660009081526004602052604090205460ff166105b75760405163a95362b560e01b815260040160405180910390fd5b6001600160a01b038116600081815260046020526040808220805460ff19169055517ffb4ca6a2470de95e9f648557fae63380f22c4b760bd27b0571caf5977a30278a9190a250565b610608610f62565b610610610fbc565b565b61061a611011565b600087900361063c57604051632ef1310560e01b815260040160405180910390fd5b600085900361065e57604051632ef1310560e01b815260040160405180910390fd5b8360000361067f576040516302f2d9e160e21b815260040160405180910390fd5b82158061068b57508282105b156106a95760405163561f8b5f60e11b815260040160405180910390fd5b6001600160a01b0381166106d057604051630f58058360e11b815260040160405180910390fd5b60058054600091826106e18361151c565b9190505590506040518060c001604052808281526020018a8a8080601f016020809104026020016040519081016040528093929190818152602001838380828437600092019190915250505090825250604080516020601f8b0181900481028201810190925289815291810191908a908a9081908401838280828437600092018290525093855250503360208401525042604083015260609091015260008281526001602081815260409092208351815591830151908201906107a490826115e2565b50604082015160028201906107b990826115e2565b506060820151600382810180546001600160a01b0319166001600160a01b03909316929092179091556080830151600483015560a08301516005830180549192909160ff191690600190849081111561081457610814611334565b0217905550506040805160a081018252600080825260208083018281528385018b815260608086018c8152608087018c81528a875260028087528988209851895594516001808a019190915593519488019490945551600380880191909155925160049096019590955585519485018652838552855180840187528481528584019081526001600160a01b038a168688015288855291909252939091208251815592519193508201906108c790826115e2565b5060409182015160029190910180546001600160a01b0319166001600160a01b039092169190911790555181907fbe67d123666fdaa12bddfaf9f13056f83522df7149a1717d7ba91baf586cfcc890610925908c908c9033906116a2565b60405180910390a2505050505050505050565b610940611141565b6109726040518060a0016040528060008152602001600081526020016000815260200160008152602001600081525090565b61099f6040518060600160405280600081526020016060815260200160006001600160a01b031681525090565b60055484106109c1576040516338fde52b60e01b815260040160405180910390fd5b6000848152600160208181526040808420600283528185206003845294829020825160c081019093528154835293810180549195949386929084019190610a0790611559565b80601f0160208091040260200160405190810160405280929190818152602001828054610a3390611559565b8015610a805780601f10610a5557610100808354040283529160200191610a80565b820191906000526020600020905b815481529060010190602001808311610a6357829003601f168201915b50505050508152602001600282018054610a9990611559565b80601f0160208091040260200160405190810160405280929190818152602001828054610ac590611559565b8015610b125780601f10610ae757610100808354040283529160200191610b12565b820191906000526020600020905b815481529060010190602001808311610af557829003601f168201915b50505091835250506003828101546001600160a01b0316602083015260048301546040830152600583015460609092019160ff1690811115610b5657610b56611334565b6003811115610b6757610b67611334565b815250509250816040518060a00160405290816000820154815260200160018201548152602001600282015481526020016003820154815260200160048201548152505091508060405180606001604052908160008201548152602001600182018054610bd390611559565b80601f0160208091040260200160405190810160405280929190818152602001828054610bff90611559565b8015610c4c5780601f10610c2157610100808354040283529160200191610c4c565b820191906000526020600020905b815481529060010190602001808311610c2f57829003601f168201915b5050509183525050600291909101546001600160a01b0316602090910152929791965091945092505050565b610c80610f62565b610610600061105e565b600160208190526000918252604090912080549181018054610cab90611559565b80601f0160208091040260200160405190810160405280929190818152602001828054610cd790611559565b8015610d245780601f10610cf957610100808354040283529160200191610d24565b820191906000526020600020905b815481529060010190602001808311610d0757829003601f168201915b505050505090806002018054610d3990611559565b80601f0160208091040260200160405190810160405280929190818152602001828054610d6590611559565b8015610db25780601f10610d8757610100808354040283529160200191610db2565b820191906000526020600020905b815481529060010190602001808311610d9557829003601f168201915b505050506003830154600484015460059094015492936001600160a01b039091169290915060ff1686565b610de5610f62565b6106106110ae565b60036020526000908152604090208054600182018054919291610e0f90611559565b80601f0160208091040260200160405190810160405280929190818152602001828054610e3b90611559565b8015610e885780601f10610e5d57610100808354040283529160200191610e88565b820191906000526020600020905b815481529060010190602001808311610e6b57829003601f168201915b505050600290930154919250506001600160a01b031683565b60006005548210610ec5576040516338fde52b60e01b815260040160405180910390fd5b506000908152600360205260409020600201546001600160a01b031690565b610eec610f62565b6001600160a01b038116610f565760405162461bcd60e51b815260206004820152602660248201527f4f776e61626c653a206e6577206f776e657220697320746865207a65726f206160448201526564647265737360d01b60648201526084015b60405180910390fd5b610f5f8161105e565b50565b6000546001600160a01b031633146106105760405162461bcd60e51b815260206004820181905260248201527f4f776e61626c653a2063616c6c6572206973206e6f7420746865206f776e65726044820152606401610f4d565b610fc46110f1565b6000805460ff60a01b191690557f5db9ee0a495bf2e6ff9c91a7834c1ba4fdd244a5e8aa4e537bd38aeae4b073aa335b6040516001600160a01b03909116815260200160405180910390a1565b600054600160a01b900460ff16156106105760405162461bcd60e51b815260206004820152601060248201526f14185d5cd8589b194e881c185d5cd95960821b6044820152606401610f4d565b600080546001600160a01b038381166001600160a01b0319831681178455604051919092169283917f8be0079c531659141344cd1fd0a4f28419497f9722a3daafe3b4186f6b6457e09190a35050565b6110b6611011565b6000805460ff60a01b1916600160a01b1790557f62e78cea01bee320cd4e420270b5ea74000d11b0c9f74754ebdbfc544b05a258610ff43390565b600054600160a01b900460ff166106105760405162461bcd60e51b815260206004820152601460248201527314185d5cd8589b194e881b9bdd081c185d5cd95960621b6044820152606401610f4d565b6040518060c0016040528060008152602001606081526020016060815260200160006001600160a01b03168152602001600081526020016000600381111561118b5761118b611334565b905290565b600080604083850312156111a357600080fd5b50508035926020909101359150565b80356001600160a01b03811681146111c957600080fd5b919050565b6000602082840312156111e057600080fd5b6111e9826111b2565b9392505050565b60008083601f84011261120257600080fd5b50813567ffffffffffffffff81111561121a57600080fd5b60208301915083602082850101111561123257600080fd5b9250929050565b60008060008060008060008060c0898b03121561125557600080fd5b883567ffffffffffffffff8082111561126d57600080fd5b6112798c838d016111f0565b909a50985060208b013591508082111561129257600080fd5b5061129f8b828c016111f0565b9097509550506040890135935060608901359250608089013591506112c660a08a016111b2565b90509295985092959890939650565b6000602082840312156112e757600080fd5b5035919050565b6000815180845260005b81811015611314576020818501810151868301820152016112f8565b506000602082860101526020601f19601f83011685010191505092915050565b634e487b7160e01b600052602160045260246000fd5b6004811061136857634e487b7160e01b600052602160045260246000fd5b9052565b80518252600060208201516060602085015261138b60608501826112ee565b6040938401516001600160a01b0316949093019390935250919050565b60e08152835160e08201526000602085015160c06101008401526113d06101a08401826112ee565b9050604086015160df19848303016101208501526113ee82826112ee565b60608801516001600160a01b0316610140860152608088015161016086015260a0880151909250905061142561018085018261134a565b5061145e602084018680518252602081015160208301526040810151604083015260608101516060830152608081015160808301525050565b82810360c0840152611470818561136c565b9695505050505050565b86815260c06020820152600061149360c08301886112ee565b82810360408401526114a581886112ee565b6001600160a01b03871660608501526080840186905291506114cc905060a083018461134a565b979650505050505050565b8381526060602082015260006114f060608301856112ee565b905060018060a01b0383166040830152949350505050565b60208101611516828461134a565b92915050565b60006001820161153c57634e487b7160e01b600052601160045260246000fd5b5060010190565b634e487b7160e01b600052604160045260246000fd5b600181811c9082168061156d57607f821691505b60208210810361158d57634e487b7160e01b600052602260045260246000fd5b50919050565b601f8211156115dd57600081815260208120601f850160051c810160208610156115ba5750805b601f850160051c820191505b818110156115d9578281556001016115c6565b5050505b505050565b815167ffffffffffffffff8111156115fc576115fc611543565b6116108161160a8454611559565b84611593565b602080601f831160018114611645576000841561162d5750858301515b600019600386901b1c1916600185901b1785556115d9565b600085815260208120601f198616915b8281101561167457888601518255948401946001909101908401611655565b50858210156116925787850151600019600388901b60f8161c191681555b5050505050600190811b01905550565b6040815282604082015282846060830137600060608483018101919091526001600160a01b03929092166020820152601f909201601f19169091010191905056fea264697066735822122044d37cb3ce06d03623c6589e0696d7ad7ca838f3ca86a4e7f50623ae2e010eb964736f6c63430008140033",
  "linkReferences": {},
  "deployedLinkReferences": {}
}