{
  "_format": "hh-sol-artifact-1",
  "contractName": "InvestmentManager",
  "sourceName": "blockchain/contracts/InvestmentManager.sol",
  "abi": [
    {
      "inputs": [
        {
          "internalType": "address",
          "name": "_assetToken",
          "type": "address"
        },
        {
          "internalType": "address",
          "name": "_projectRegistry",
          "type": "address"
        }
      ],
      "stateMutability": "nonpayable",
      "type": "constructor"
    },
    {
      "anonymous": false,
      "inputs": [
        {
          "indexed": true,
          "internalType": "uint256",
          "name": "projectId",
          "type": "uint256"
        },
        {
          "indexed": true,
          "internalType": "address",
          "name": "investor",
          "type": "address"
        },
        {
          "indexed": false,
          "internalType": "uint256",
          "name": "amount",
          "type": "uint256"
        },
        {
          "indexed": false,
          "internalType": "uint256",
          "name": "tokens",
          "type": "uint256"
        }
      ],
      "name": "InvestmentMade",
      "type": "event"
    },
    {
      "anonymous": false,
      "inputs": [
        {
          "indexed": true,
          "internalType": "uint256",
          "name": "projectId",
          "type": "uint256"
        },
        {
          "indexed": true,
          "internalType": "address",
          "name": "investor",
          "type": "address"
        },
        {
          "indexed": false,
          "internalType": "uint256",
          "name": "amount",
          "type": "uint256"
        }
      ],
      "name": "InvestmentWithdrawn",
      "type": "event"
    },
    {
      "anonymous": false,
      "inputs": [
        {
          "indexed": true,
          "internalType": "address",
          "name": "previousOwner",
          "type": "address"
        },
        {
          "indexed": true,
          "internalType": "address",
          "name": "newOwner",
          "type": "address"
        }
      ],
      "name": "OwnershipTransferred",
      "type": "event"
    },
    {
      "anonymous": false,
      "inputs": [
        {
          "indexed": false,
          "internalType": "address",
          "name": "account",
          "type": "address"
        }
      ],
      "name": "Paused",
      "type": "event"
    },
    {
      "anonymous": false,
      "inputs": [
        {
          "indexed": false,
          "internalType": "address",
          "name": "account",
          "type": "address"
        }
      ],
      "name": "Unpaused",
      "type": "event"
    },
    {
      "inputs": [],
      "name": "assetToken",
      "outputs": [
        {
          "internalType": "contract AssetToken",
          "name": "",
          "type": "address"
        }
      ],
      "stateMutability": "view",
      "type": "function"
    },
    {
      "inputs": [
        {
          "internalType": "uint256",
          "name": "projectId",
          "type": "uint256"
        },
        {
          "internalType": "address",
          "name": "investor",
          "type": "address"
        }
      ],
      "name": "getInvestmentDetails",
      "outputs": [
        {
          "internalType": "uint256",
          "name": "totalInvested",
          "type": "uint256"
        },
        {
          "internalType": "uint256",
          "name": "tokenBalance",
          "type": "uint256"
        },
        {
          "internalType": "uint256",
          "name": "lastInvestmentTime",
          "type": "uint256"
        }
      ],
      "stateMutability": "view",
      "type": "function"
    },
    {
      "inputs": [
        {
          "internalType": "uint256",
          "name": "projectId",
          "type": "uint256"
        },
        {
          "internalType": "uint256",
          "name": "amount",
          "type": "uint256"
        }
      ],
      "name": "invest",
      "outputs": [],
      "stateMutability": "nonpayable",
      "type": "function"
    },
    {
      "inputs": [
        {
          "internalType": "address",
          "name": "",
          "type": "address"
        },
        {
          "internalType": "uint256",
          "name": "",
          "type": "uint256"
        }
      ],
      "name": "investorProjectBalance",
      "outputs": [
        {
          "internalType": "uint256",
          "name": "",
          "type": "uint256"
        }
      ],
      "stateMutability": "view",
      "type": "function"
    },
    {
      "inputs": [],
      "name": "owner",
      "outputs": [
        {
          "internalType": "address",
          "name": "",
          "type": "address"
        }
      ],
      "stateMutability": "view",
      "type": "function"
    },
    {
      "inputs": [],
      "name": "pause",
      "outputs": [],
      "stateMutability": "nonpayable",
      "type": "function"
    },
    {
      "inputs": [],
      "name": "paused",
      "outputs": [
        {
          "internalType": "bool",
          "name": "",
          "type": "bool"
        }
      ],
      "stateMutability": "view",
      "type": "function"
    },
    {
      "inputs": [
        {
          "internalType": "uint256",
          "name": "",
          "type": "uint256"
        },
        {
          "internalType": "uint256",
          "name": "",
          "type": "uint256"
        }
      ],
      "name": "projectInvestments",
      "outputs": [
        {
          "internalType": "uint256",
          "name": "projectId",
          "type": "uint256"
        },
        {
          "internalType": "address",
          "name": "investor",
          "type": "address"
        },
        {
          "internalType": "uint256",
          "name": "amount",
          "type": "uint256"
        },
        {
          "internalType": "uint256",
          "name": "tokens",
          "type": "uint256"
        },
        {
          "internalType": "uint256",
          "name": "timestamp",
          "type": "uint256"
        }
      ],
      "stateMutability": "view",
      "type": "function"
    },
    {
      "inputs": [],
      "name": "projectRegistry",
      "outputs": [
        {
          "internalType": "contract ProjectRegistry",
          "name": "",
          "type": "address"
        }
      ],
      "stateMutability": "view",
      "type": "function"
    },
    {
      "inputs": [],
      "name": "renounceOwnership",
      "outputs": [],
      "stateMutability": "nonpayable",
      "type": "function"
    },
    {
      "inputs": [
        {
          "internalType": "address",
          "name": "newOwner",
          "type": "address"
        }
      ],
      "name": "transferOwnership",
      "outputs": [],
      "stateMutability": "nonpayable",
      "type": "function"
    },
    {
      "inputs": [],
      "name": "unpause",
      "outputs": [],
      "stateMutability": "nonpayable",
      "type": "function"
    },
    {
      "inputs": [
        {
          "internalType": "uint256",
          "name": "projectId",
          "type": "uint256"
        },
        {
          "internalType": "uint256",
          "name": "amount",
          "type": "uint256"
        }
      ],
      "name": "withdrawInvestment",
      "outputs": [],
      "stateMutability": "nonpayable",
      "type": "function"
    }
  ],
  "bytecode": "0x608060405234801561001057600080fd5b50604051610d72380380610d7283398101604081905261002f916100e2565b61003833610076565b6000805460ff60a01b19169055600180546001600160a01b039384166001600160a01b03199182161790915560028054929093169116179055610115565b600080546001600160a01b038381166001600160a01b0319831681178455604051919092169283917f8be0079c531659141344cd1fd0a4f28419497f9722a3daafe3b4186f6b6457e09190a35050565b80516001600160a01b03811681146100dd57600080fd5b919050565b600080604083850312156100f557600080fd5b6100fe836100c6565b915061010c602084016100c6565b90509250929050565b610c4e806101246000396000f3fe608060405234801561001057600080fd5b50600436106100cf5760003560e01c80635c975abb1161008c5780638da5cb5b116100665780638da5cb5b146101d2578063ba0149cf146101e3578063d87aa6431461021c578063f2fde38b1461022f57600080fd5b80635c975abb146101a5578063715018a6146101c25780638456cb59146101ca57600080fd5b806309b49c46146100d45780631083f761146100e957806325aac4f1146101195780633a1339cf146101475780633f4ba83a1461018a5780635a33d8dc14610192575b600080fd5b6100e76100e2366004610ad5565b610242565b005b6001546100fc906001600160a01b031681565b6040516001600160a01b0390911681526020015b60405180910390f35b61012c610127366004610b13565b6103cf565b60408051938452602084019290925290820152606001610110565b61015a610155366004610ad5565b61056f565b604080519586526001600160a01b039094166020860152928401919091526060830152608082015260a001610110565b6100e76105c7565b6002546100fc906001600160a01b031681565b600054600160a01b900460ff166040519015158152602001610110565b6100e76105d9565b6100e76105eb565b6000546001600160a01b03166100fc565b61020e6101f1366004610b3f565b600460209081526000928352604080842090915290825290205481565b604051908152602001610110565b6100e761022a366004610ad5565b6105fb565b6100e761023d366004610b69565b610875565b61024a6108ee565b6000811161029f5760405162461bcd60e51b815260206004820152601d60248201527f416d6f756e74206d7573742062652067726561746572207468616e203000000060448201526064015b60405180910390fd5b3360009081526004602090815260408083208584529091529020548111156103005760405162461bcd60e51b8152602060048201526014602482015273496e73756666696369656e742062616c616e636560601b6044820152606401610296565b600154604051632770a7eb60e21b8152336004820152602481018390526001600160a01b0390911690639dc29fac90604401600060405180830381600087803b15801561034c57600080fd5b505af1158015610360573d6000803e3d6000fd5b50503360009081526004602090815260408083208784529091528120805485945090925061038f908490610ba1565b9091555050604051818152339083907f05ca455a01213f8fad66148acbe3cdab7e54cde2914c9ec51f091a748ae829ef9060200160405180910390a35050565b60008060008060036000878152602001908152602001600020805480602002602001604051908101604052809291908181526020016000905b8282101561046f5760008481526020908190206040805160a08101825260058602909201805483526001808201546001600160a01b031684860152600282015492840192909252600381015460608401526004015460808301529083529092019101610408565b50505050905060008060005b835181101561053d57876001600160a01b03168482815181106104a0576104a0610bb4565b6020026020010151602001516001600160a01b03160361052b578381815181106104cc576104cc610bb4565b602002602001015160400151836104e39190610bca565b9250818482815181106104f8576104f8610bb4565b602002602001015160800151111561052b5783818151811061051c5761051c610bb4565b60200260200101516080015191505b8061053581610bdd565b91505061047b565b506001600160a01b03969096166000908152600460209081526040808320998352989052969096205495969350505050565b6003602052816000526040600020818154811061058b57600080fd5b6000918252602090912060059091020180546001820154600283015460038401546004909401549295506001600160a01b039091169350919085565b6105cf61093b565b6105d7610995565b565b6105e161093b565b6105d760006109ea565b6105f361093b565b6105d7610a3a565b6106036108ee565b600081116106535760405162461bcd60e51b815260206004820152601d60248201527f416d6f756e74206d7573742062652067726561746572207468616e20300000006044820152606401610296565b600254604051632a5bb1b760e11b81523360048201526001600160a01b03909116906354b7636e90602401602060405180830381865afa15801561069b573d6000803e3d6000fd5b505050506040513d601f19601f820116820180604052508101906106bf9190610bf6565b61070b5760405162461bcd60e51b815260206004820152601960248201527f496e766573746f72206e6f74204b5943207665726966696564000000000000006044820152606401610296565b60006107178383610a7d565b6000848152600360208181526040808420815160a081018352898152338185018181528285018b8152606084018a81524260808601908152865460018082018955978c52898c2096516005909102909601958655925195850180546001600160a01b0319166001600160a01b0390971696909617909555516002840155925195820195909555905160049182015592845291815281832087845290528120805492935083929091906107ca908490610bca565b90915550506001546040516340c10f1960e01b8152336004820152602481018390526001600160a01b03909116906340c10f1990604401600060405180830381600087803b15801561081b57600080fd5b505af115801561082f573d6000803e3d6000fd5b505060408051858152602081018590523393508692507ff31343540affa723d26848192c2f28ab76925951531440b6f2e082030394314f910160405180910390a3505050565b61087d61093b565b6001600160a01b0381166108e25760405162461bcd60e51b815260206004820152602660248201527f4f776e61626c653a206e6577206f776e657220697320746865207a65726f206160448201526564647265737360d01b6064820152608401610296565b6108eb816109ea565b50565b600054600160a01b900460ff16156105d75760405162461bcd60e51b815260206004820152601060248201526f14185d5cd8589b194e881c185d5cd95960821b6044820152606401610296565b6000546001600160a01b031633146105d75760405162461bcd60e51b815260206004820181905260248201527f4f776e61626c653a2063616c6c6572206973206e6f7420746865206f776e65726044820152606401610296565b61099d610a85565b6000805460ff60a01b191690557f5db9ee0a495bf2e6ff9c91a7834c1ba4fdd244a5e8aa4e537bd38aeae4b073aa335b6040516001600160a01b03909116815260200160405180910390a1565b600080546001600160a01b038381166001600160a01b0319831681178455604051919092169283917f8be0079c531659141344cd1fd0a4f28419497f9722a3daafe3b4186f6b6457e09190a35050565b610a426108ee565b6000805460ff60a01b1916600160a01b1790557f62e78cea01bee320cd4e420270b5ea74000d11b0c9f74754ebdbfc544b05a2586109cd3390565b805b92915050565b600054600160a01b900460ff166105d75760405162461bcd60e51b815260206004820152601460248201527314185d5cd8589b194e881b9bdd081c185d5cd95960621b6044820152606401610296565b60008060408385031215610ae857600080fd5b50508035926020909101359150565b80356001600160a01b0381168114610b0e57600080fd5b919050565b60008060408385031215610b2657600080fd5b82359150610b3660208401610af7565b90509250929050565b60008060408385031215610b5257600080fd5b610b5b83610af7565b946020939093013593505050565b600060208284031215610b7b57600080fd5b610b8482610af7565b9392505050565b634e487b7160e01b600052601160045260246000fd5b81810381811115610a7f57610a7f610b8b565b634e487b7160e01b600052603260045260246000fd5b80820180821115610a7f57610a7f610b8b565b600060018201610bef57610bef610b8b565b5060010190565b600060208284031215610c0857600080fd5b81518015158114610b8457600080fdfea264697066735822122027345d66e21eccccaaab7c386dbafc03ca42b2111f46141bd0a79ba5e7f52b0764736f6c63430008140033",
  "linkReferences": {},
  "deployedLinkReferences": {}
}