{
  "_format": "hh-sol-artifact-1",
  "contractName": "AssetToken",
  "sourceName": "contracts/AssetToken.sol",
  "abi": [
    {
      "inputs": [
        {
          "internalType": "string",
          "name": "name",
          "type": "string"
        },
        {
          "internalType": "string",
          "name": "symbol",
          "type": "string"
        }
      ],
      "stateMutability": "nonpayable",
      "type": "constructor"
    },
    {
      "inputs": [],
      "name": "InsufficientBalance",
      "type": "error"
    },
    {
      "inputs": [],
      "name": "NoDividendsToClaim",
      "type": "error"
    },
    {
      "inputs": [],
      "name": "OnlyMinter",
      "type": "error"
    },
    {
      "anonymous": false,
      "inputs": [
        {
          "indexed": true,
          "internalType": "address",
          "name": "owner",
          "type": "address"
        },
        {
          "indexed": true,
          "internalType": "address",
          "name": "spender",
          "type": "address"
        },
        {
          "indexed": false,
          "internalType": "uint256",
          "name": "value",
          "type": "uint256"
        }
      ],
      "name": "Approval",
      "type": "event"
    },
    {
      "anonymous": false,
      "inputs": [
        {
          "indexed": true,
          "internalType": "address",
          "name": "holder",
          "type": "address"
        },
        {
          "indexed": false,
          "internalType": "uint256",
          "name": "amount",
          "type": "uint256"
        }
      ],
      "name": "DividendsClaimed",
      "type": "event"
    },
    {
      "anonymous": false,
      "inputs": [
        {
          "indexed": false,
          "internalType": "uint256",
          "name": "amount",
          "type": "uint256"
        }
      ],
      "name": "DividendsDistributed",
      "type": "event"
    },
    {
      "anonymous": false,
      "inputs": [
        {
          "indexed": true,
          "internalType": "address",
          "name": "previousOwner",
          "type": "address"
        },
        {
          "indexed": true,
          "internalType": "address",
          "name": "newOwner",
          "type": "address"
        }
      ],
      "name": "OwnershipTransferred",
      "type": "event"
    },
    {
      "anonymous": false,
      "inputs": [
        {
          "indexed": false,
          "internalType": "address",
          "name": "account",
          "type": "address"
        }
      ],
      "name": "Paused",
      "type": "event"
    },
    {
      "anonymous": false,
      "inputs": [
        {
          "indexed": true,
          "internalType": "address",
          "name": "from",
          "type": "address"
        },
        {
          "indexed": true,
          "internalType": "address",
          "name": "to",
          "type": "address"
        },
        {
          "indexed": false,
          "internalType": "uint256",
          "name": "value",
          "type": "uint256"
        }
      ],
      "name": "Transfer",
      "type": "event"
    },
    {
      "anonymous": false,
      "inputs": [
        {
          "indexed": false,
          "internalType": "address",
          "name": "account",
          "type": "address"
        }
      ],
      "name": "Unpaused",
      "type": "event"
    },
    {
      "inputs": [
        {
          "internalType": "address",
          "name": "owner",
          "type": "address"
        },
        {
          "internalType": "address",
          "name": "spender",
          "type": "address"
        }
      ],
      "name": "allowance",
      "outputs": [
        {
          "internalType": "uint256",
          "name": "",
          "type": "uint256"
        }
      ],
      "stateMutability": "view",
      "type": "function"
    },
    {
      "inputs": [
        {
          "internalType": "address",
          "name": "spender",
          "type": "address"
        },
        {
          "internalType": "uint256",
          "name": "amount",
          "type": "uint256"
        }
      ],
      "name": "approve",
      "outputs": [
        {
          "internalType": "bool",
          "name": "",
          "type": "bool"
        }
      ],
      "stateMutability": "nonpayable",
      "type": "function"
    },
    {
      "inputs": [
        {
          "internalType": "address",
          "name": "account",
          "type": "address"
        }
      ],
      "name": "balanceOf",
      "outputs": [
        {
          "internalType": "uint256",
          "name": "",
          "type": "uint256"
        }
      ],
      "stateMutability": "view",
      "type": "function"
    },
    {
      "inputs": [
        {
          "internalType": "address",
          "name": "from",
          "type": "address"
        },
        {
          "internalType": "uint256",
          "name": "amount",
          "type": "uint256"
        }
      ],
      "name": "burn",
      "outputs": [],
      "stateMutability": "nonpayable",
      "type": "function"
    },
    {
      "inputs": [],
      "name": "claimDividends",
      "outputs": [],
      "stateMutability": "nonpayable",
      "type": "function"
    },
    {
      "inputs": [],
      "name": "decimals",
      "outputs": [
        {
          "internalType": "uint8",
          "name": "",
          "type": "uint8"
        }
      ],
      "stateMutability": "view",
      "type": "function"
    },
    {
      "inputs": [
        {
          "internalType": "address",
          "name": "spender",
          "type": "address"
        },
        {
          "internalType": "uint256",
          "name": "subtractedValue",
          "type": "uint256"
        }
      ],
      "name": "decreaseAllowance",
      "outputs": [
        {
          "internalType": "bool",
          "name": "",
          "type": "bool"
        }
      ],
      "stateMutability": "nonpayable",
      "type": "function"
    },
    {
      "inputs": [],
      "name": "distributeDividends",
      "outputs": [],
      "stateMutability": "payable",
      "type": "function"
    },
    {
      "inputs": [
        {
          "internalType": "address",
          "name": "account",
          "type": "address"
        }
      ],
      "name": "getClaimableDividends",
      "outputs": [
        {
          "internalType": "uint256",
          "name": "",
          "type": "uint256"
        }
      ],
      "stateMutability": "view",
      "type": "function"
    },
    {
      "inputs": [],
      "name": "getTotalDividends",
      "outputs": [
        {
          "internalType": "uint256",
          "name": "",
          "type": "uint256"
        }
      ],
      "stateMutability": "view",
      "type": "function"
    },
    {
      "inputs": [
        {
          "internalType": "address",
          "name": "spender",
          "type": "address"
        },
        {
          "internalType": "uint256",
          "name": "addedValue",
          "type": "uint256"
        }
      ],
      "name": "increaseAllowance",
      "outputs": [
        {
          "internalType": "bool",
          "name": "",
          "type": "bool"
        }
      ],
      "stateMutability": "nonpayable",
      "type": "function"
    },
    {
      "inputs": [
        {
          "internalType": "address",
          "name": "to",
          "type": "address"
        },
        {
          "internalType": "uint256",
          "name": "amount",
          "type": "uint256"
        }
      ],
      "name": "mint",
      "outputs": [],
      "stateMutability": "nonpayable",
      "type": "function"
    },
    {
      "inputs": [],
      "name": "minter",
      "outputs": [
        {
          "internalType": "address",
          "name": "",
          "type": "address"
        }
      ],
      "stateMutability": "view",
      "type": "function"
    },
    {
      "inputs": [],
      "name": "name",
      "outputs": [
        {
          "internalType": "string",
          "name": "",
          "type": "string"
        }
      ],
      "stateMutability": "view",
      "type": "function"
    },
    {
      "inputs": [],
      "name": "owner",
      "outputs": [
        {
          "internalType": "address",
          "name": "",
          "type": "address"
        }
      ],
      "stateMutability": "view",
      "type": "function"
    },
    {
      "inputs": [],
      "name": "pause",
      "outputs": [],
      "stateMutability": "nonpayable",
      "type": "function"
    },
    {
      "inputs": [],
      "name": "paused",
      "outputs": [
        {
          "internalType": "bool",
          "name": "",
          "type": "bool"
        }
      ],
      "stateMutability": "view",
      "type": "function"
    },
    {
      "inputs": [],
      "name": "renounceOwnership",
      "outputs": [],
      "stateMutability": "nonpayable",
      "type": "function"
    },
    {
      "inputs": [
        {
          "internalType": "address",
          "name": "minterAddress",
          "type": "address"
        }
      ],
      "name": "setMinter",
      "outputs": [],
      "stateMutability": "nonpayable",
      "type": "function"
    },
    {
      "inputs": [],
      "name": "symbol",
      "outputs": [
        {
          "internalType": "string",
          "name": "",
          "type": "string"
        }
      ],
      "stateMutability": "view",
      "type": "function"
    },
    {
      "inputs": [],
      "name": "totalSupply",
      "outputs": [
        {
          "internalType": "uint256",
          "name": "",
          "type": "uint256"
        }
      ],
      "stateMutability": "view",
      "type": "function"
    },
    {
      "inputs": [
        {
          "internalType": "address",
          "name": "to",
          "type": "address"
        },
        {
          "internalType": "uint256",
          "name": "amount",
          "type": "uint256"
        }
      ],
      "name": "transfer",
      "outputs": [
        {
          "internalType": "bool",
          "name": "",
          "type": "bool"
        }
      ],
      "stateMutability": "nonpayable",
      "type": "function"
    },
    {
      "inputs": [
        {
          "internalType": "address",
          "name": "from",
          "type": "address"
        },
        {
          "internalType": "address",
          "name": "to",
          "type": "address"
        },
        {
          "internalType": "uint256",
          "name": "amount",
          "type": "uint256"
        }
      ],
      "name": "transferFrom",
      "outputs": [
        {
          "internalType": "bool",
          "name": "",
          "type": "bool"
        }
      ],
      "stateMutability": "nonpayable",
      "type": "function"
    },
    {
      "inputs": [
        {
          "internalType": "address",
          "name": "newOwner",
          "type": "address"
        }
      ],
      "name": "transferOwnership",
      "outputs": [],
      "stateMutability": "nonpayable",
      "type": "function"
    },
    {
      "inputs": [],
      "name": "unpause",
      "outputs": [],
      "stateMutability": "nonpayable",
      "type": "function"
    },
    {
      "stateMutability": "payable",
      "type": "receive"
    }
  ],
  "bytecode": "0x60806040523480156200001157600080fd5b506040516200198b3803806200198b8339810160408190526200003491620001ab565b81816003620000448382620002a4565b506004620000538282620002a4565b505050620000706200006a6200009060201b60201c565b62000094565b6005805460ff60a01b19169055620000883362000094565b505062000370565b3390565b600580546001600160a01b038381166001600160a01b0319831681179093556040519116919082907f8be0079c531659141344cd1fd0a4f28419497f9722a3daafe3b4186f6b6457e090600090a35050565b634e487b7160e01b600052604160045260246000fd5b600082601f8301126200010e57600080fd5b81516001600160401b03808211156200012b576200012b620000e6565b604051601f8301601f19908116603f01168101908282118183101715620001565762000156620000e6565b816040528381526020925086838588010111156200017357600080fd5b600091505b8382101562000197578582018301518183018401529082019062000178565b600093810190920192909252949350505050565b60008060408385031215620001bf57600080fd5b82516001600160401b0380821115620001d757600080fd5b620001e586838701620000fc565b93506020850151915080821115620001fc57600080fd5b506200020b85828601620000fc565b9150509250929050565b600181811c908216806200022a57607f821691505b6020821081036200024b57634e487b7160e01b600052602260045260246000fd5b50919050565b601f8211156200029f57600081815260208120601f850160051c810160208610156200027a5750805b601f850160051c820191505b818110156200029b5782815560010162000286565b5050505b505050565b81516001600160401b03811115620002c057620002c0620000e6565b620002d881620002d1845462000215565b8462000251565b602080601f831160018114620003105760008415620002f75750858301515b600019600386901b1c1916600185901b1785556200029b565b600085815260208120601f198616915b82811015620003415788860151825594840194600190910190840162000320565b5085821015620003605787850151600019600388901b60f8161c191681555b5050505050600190811b01905550565b61160b80620003806000396000f3fe60806040526004361061016a5760003560e01c806367ee5f09116100d157806395d89b411161008a578063a9059cbb11610064578063a9059cbb14610415578063dd62ed3e14610435578063f2fde38b14610455578063fca3b5aa1461047557600080fd5b806395d89b41146103c05780639dc29fac146103d5578063a457c2d7146103f557600080fd5b806367ee5f09146102f757806370a082311461030c578063715018a6146103425780638284ce3e146103575780638456cb591461038d5780638da5cb5b146103a257600080fd5b8063313ce56711610123578063313ce56714610252578063395093511461026e5780633f4ba83a1461028e57806340c10f19146102a35780635c975abb146102c3578063668038e0146102e257600080fd5b806303c833021461017e57806306fdde031461018657806307546172146101b1578063095ea7b3146101e357806318160ddd1461021357806323b872dd1461023257600080fd5b3661017957610177610495565b005b600080fd5b610177610495565b34801561019257600080fd5b5061019b61065d565b6040516101a891906113d2565b60405180910390f35b3480156101bd57600080fd5b506006546001600160a01b03165b6040516001600160a01b0390911681526020016101a8565b3480156101ef57600080fd5b506102036101fe36600461143c565b6106ef565b60405190151581526020016101a8565b34801561021f57600080fd5b506002545b6040519081526020016101a8565b34801561023e57600080fd5b5061020361024d366004611466565b610709565b34801561025e57600080fd5b50604051601281526020016101a8565b34801561027a57600080fd5b5061020361028936600461143c565b61072d565b34801561029a57600080fd5b5061017761074f565b3480156102af57600080fd5b506101776102be36600461143c565b610761565b3480156102cf57600080fd5b50600554600160a01b900460ff16610203565b3480156102ee57600080fd5b50610177610826565b34801561030357600080fd5b50600754610224565b34801561031857600080fd5b506102246103273660046114a2565b6001600160a01b031660009081526020819052604090205490565b34801561034e57600080fd5b50610177610942565b34801561036357600080fd5b506102246103723660046114a2565b6001600160a01b031660009081526008602052604090205490565b34801561039957600080fd5b50610177610954565b3480156103ae57600080fd5b506005546001600160a01b03166101cb565b3480156103cc57600080fd5b5061019b610964565b3480156103e157600080fd5b506101776103f036600461143c565b610973565b34801561040157600080fd5b5061020361041036600461143c565b6109ef565b34801561042157600080fd5b5061020361043036600461143c565b610a6a565b34801561044157600080fd5b506102246104503660046114c4565b610a78565b34801561046157600080fd5b506101776104703660046114a2565b610aa3565b34801561048157600080fd5b506101776104903660046114a2565b610b1c565b61049d610b46565b600034116104e05760405162461bcd60e51b815260206004820152600b60248201526a139bc8115512081cd95b9d60aa1b60448201526064015b60405180910390fd5b60006104eb60025490565b1161052b5760405162461bcd60e51b815260206004820152601060248201526f139bc81d1bdad95b9cc81b5a5b9d195960821b60448201526064016104d7565b346007600082825461053d919061150d565b909155505060025460008161055a670de0b6b3a764000034611520565b6105649190611537565b905060005b600a54811015610625576000600a828154811061058857610588611559565b60009182526020822001546001600160a01b031691506105bd826001600160a01b031660009081526020819052604090205490565b9050801561061057670de0b6b3a76400006105d88286611520565b6105e29190611537565b6001600160a01b0383166000908152600860205260408120805490919061060a90849061150d565b90915550505b5050808061061d9061156f565b915050610569565b506040513481527f051019b59d3b24249903e46fd05b6def7f293fc3de54eca64b3d32743f27fc8e9060200160405180910390a15050565b60606003805461066c90611588565b80601f016020809104026020016040519081016040528092919081815260200182805461069890611588565b80156106e55780601f106106ba576101008083540402835291602001916106e5565b820191906000526020600020905b8154815290600101906020018083116106c857829003601f168201915b5050505050905090565b6000336106fd818585610b93565b60019150505b92915050565b600033610717858285610cb8565b610722858585610d32565b506001949350505050565b6000336106fd8185856107408383610a78565b61074a919061150d565b610b93565b610757610ee1565b61075f610f3b565b565b610769610b46565b6006546001600160a01b0316331461079457604051639cdc2ed560e01b815260040160405180910390fd5b61079e8282610f90565b6001600160a01b0382166000908152600b602052604090205460ff1661082257600a805460018082019092557fc65a7bb8d6351c1cf70c95a316cc6a92839c986682d98bc35f958f4883f9d2a80180546001600160a01b0319166001600160a01b0385169081179091556000908152600b60205260409020805460ff191690911790555b5050565b61082e610b46565b336000908152600860205260408120549081900361085f57604051636089d40160e01b815260040160405180910390fd5b3360008181526008602090815260408083208390556007546009909252808320919091555190919083908381818185875af1925050503d80600081146108c1576040519150601f19603f3d011682016040523d82523d6000602084013e6108c6565b606091505b50509050806109095760405162461bcd60e51b815260206004820152600f60248201526e151c985b9cd9995c8819985a5b1959608a1b60448201526064016104d7565b60405182815233907f16b8533c95f66ab8c192c98ddcf5031bcb3ee6f4022988bdadd57d3422da30739060200160405180910390a25050565b61094a610ee1565b61075f600061105b565b61095c610ee1565b61075f6110ad565b60606004805461066c90611588565b61097b610b46565b6006546001600160a01b031633146109a657604051639cdc2ed560e01b815260040160405180910390fd5b806109c6836001600160a01b031660009081526020819052604090205490565b10156109e557604051631e9acf1760e31b815260040160405180910390fd5b61082282826110f0565b600033816109fd8286610a78565b905083811015610a5d5760405162461bcd60e51b815260206004820152602560248201527f45524332303a2064656372656173656420616c6c6f77616e63652062656c6f77604482015264207a65726f60d81b60648201526084016104d7565b6107228286868403610b93565b6000336106fd818585610d32565b6001600160a01b03918216600090815260016020908152604080832093909416825291909152205490565b610aab610ee1565b6001600160a01b038116610b105760405162461bcd60e51b815260206004820152602660248201527f4f776e61626c653a206e6577206f776e657220697320746865207a65726f206160448201526564647265737360d01b60648201526084016104d7565b610b198161105b565b50565b610b24610ee1565b600680546001600160a01b0319166001600160a01b0392909216919091179055565b600554600160a01b900460ff161561075f5760405162461bcd60e51b815260206004820152601060248201526f14185d5cd8589b194e881c185d5cd95960821b60448201526064016104d7565b6001600160a01b038316610bf55760405162461bcd60e51b8152602060048201526024808201527f45524332303a20617070726f76652066726f6d20746865207a65726f206164646044820152637265737360e01b60648201526084016104d7565b6001600160a01b038216610c565760405162461bcd60e51b815260206004820152602260248201527f45524332303a20617070726f766520746f20746865207a65726f206164647265604482015261737360f01b60648201526084016104d7565b6001600160a01b0383811660008181526001602090815260408083209487168084529482529182902085905590518481527f8c5be1e5ebec7d5bd14f71427d1e84f3dd0314c0f7b2291e5b200ac8c7c3b92591015b60405180910390a3505050565b6000610cc48484610a78565b90506000198114610d2c5781811015610d1f5760405162461bcd60e51b815260206004820152601d60248201527f45524332303a20696e73756666696369656e7420616c6c6f77616e636500000060448201526064016104d7565b610d2c8484848403610b93565b50505050565b6001600160a01b038316610d965760405162461bcd60e51b815260206004820152602560248201527f45524332303a207472616e736665722066726f6d20746865207a65726f206164604482015264647265737360d81b60648201526084016104d7565b6001600160a01b038216610df85760405162461bcd60e51b815260206004820152602360248201527f45524332303a207472616e7366657220746f20746865207a65726f206164647260448201526265737360e81b60648201526084016104d7565b610e0383838361122b565b6001600160a01b03831660009081526020819052604090205481811015610e7b5760405162461bcd60e51b815260206004820152602660248201527f45524332303a207472616e7366657220616d6f756e7420657863656564732062604482015265616c616e636560d01b60648201526084016104d7565b6001600160a01b03848116600081815260208181526040808320878703905593871680835291849020805487019055925185815290927fddf252ad1be2c89b69c2b068fc378daa952ba7f163c4a11628f55a4df523b3ef910160405180910390a3610d2c565b6005546001600160a01b0316331461075f5760405162461bcd60e51b815260206004820181905260248201527f4f776e61626c653a2063616c6c6572206973206e6f7420746865206f776e657260448201526064016104d7565b610f43611382565b6005805460ff60a01b191690557f5db9ee0a495bf2e6ff9c91a7834c1ba4fdd244a5e8aa4e537bd38aeae4b073aa335b6040516001600160a01b03909116815260200160405180910390a1565b6001600160a01b038216610fe65760405162461bcd60e51b815260206004820152601f60248201527f45524332303a206d696e7420746f20746865207a65726f20616464726573730060448201526064016104d7565b610ff26000838361122b565b8060026000828254611004919061150d565b90915550506001600160a01b038216600081815260208181526040808320805486019055518481527fddf252ad1be2c89b69c2b068fc378daa952ba7f163c4a11628f55a4df523b3ef910160405180910390a35050565b600580546001600160a01b038381166001600160a01b0319831681179093556040519116919082907f8be0079c531659141344cd1fd0a4f28419497f9722a3daafe3b4186f6b6457e090600090a35050565b6110b5610b46565b6005805460ff60a01b1916600160a01b1790557f62e78cea01bee320cd4e420270b5ea74000d11b0c9f74754ebdbfc544b05a258610f733390565b6001600160a01b0382166111505760405162461bcd60e51b815260206004820152602160248201527f45524332303a206275726e2066726f6d20746865207a65726f206164647265736044820152607360f81b60648201526084016104d7565b61115c8260008361122b565b6001600160a01b038216600090815260208190526040902054818110156111d05760405162461bcd60e51b815260206004820152602260248201527f45524332303a206275726e20616d6f756e7420657863656564732062616c616e604482015261636560f01b60648201526084016104d7565b6001600160a01b0383166000818152602081815260408083208686039055600280548790039055518581529192917fddf252ad1be2c89b69c2b068fc378daa952ba7f163c4a11628f55a4df523b3ef9101610cab565b505050565b611233610b46565b6001600160a01b0383161580159061125357506001600160a01b03821615155b15611226576001600160a01b0382166000908152600b602052604090205460ff166112dc57600a805460018082019092557fc65a7bb8d6351c1cf70c95a316cc6a92839c986682d98bc35f958f4883f9d2a80180546001600160a01b0319166001600160a01b0385169081179091556000908152600b60205260409020805460ff191690911790555b6001600160a01b03831660009081526020819052604090205415611226576001600160a01b0383166000908152600860209081526040808320549183905282205490919061132a8484611520565b6113349190611537565b905061134081836115c2565b6001600160a01b03808716600090815260086020526040808220939093559086168152908120805483929061137690849061150d565b90915550505050505050565b600554600160a01b900460ff1661075f5760405162461bcd60e51b815260206004820152601460248201527314185d5cd8589b194e881b9bdd081c185d5cd95960621b60448201526064016104d7565b600060208083528351808285015260005b818110156113ff578581018301518582016040015282016113e3565b506000604082860101526040601f19601f8301168501019250505092915050565b80356001600160a01b038116811461143757600080fd5b919050565b6000806040838503121561144f57600080fd5b61145883611420565b946020939093013593505050565b60008060006060848603121561147b57600080fd5b61148484611420565b925061149260208501611420565b9150604084013590509250925092565b6000602082840312156114b457600080fd5b6114bd82611420565b9392505050565b600080604083850312156114d757600080fd5b6114e083611420565b91506114ee60208401611420565b90509250929050565b634e487b7160e01b600052601160045260246000fd5b80820180821115610703576107036114f7565b8082028115828204841417610703576107036114f7565b60008261155457634e487b7160e01b600052601260045260246000fd5b500490565b634e487b7160e01b600052603260045260246000fd5b600060018201611581576115816114f7565b5060010190565b600181811c9082168061159c57607f821691505b6020821081036115bc57634e487b7160e01b600052602260045260246000fd5b50919050565b81810381811115610703576107036114f756fea26469706673582212203609ce1f7fedea75a674a86e9324efe1e3ef777ab23938a3265e98ae241492fa64736f6c63430008140033",
  "linkReferences": {},
  "deployedLinkReferences": {}
}