{
  "_format": "hh-sol-artifact-1",
  "contractName": "InvestmentManager",
  "sourceName": "contracts/InvestmentManager.sol",
  "abi": [
    {
      "inputs": [
        {
          "internalType": "address",
          "name": "_assetToken",
          "type": "address"
        },
        {
          "internalType": "address",
          "name": "_projectRegistry",
          "type": "address"
        }
      ],
      "stateMutability": "nonpayable",
      "type": "constructor"
    },
    {
      "anonymous": false,
      "inputs": [
        {
          "indexed": true,
          "internalType": "uint256",
          "name": "projectId",
          "type": "uint256"
        },
        {
          "indexed": true,
          "internalType": "address",
          "name": "investor",
          "type": "address"
        },
        {
          "indexed": false,
          "internalType": "uint256",
          "name": "amount",
          "type": "uint256"
        },
        {
          "indexed": false,
          "internalType": "uint256",
          "name": "tokens",
          "type": "uint256"
        }
      ],
      "name": "InvestmentMade",
      "type": "event"
    },
    {
      "anonymous": false,
      "inputs": [
        {
          "indexed": true,
          "internalType": "uint256",
          "name": "projectId",
          "type": "uint256"
        },
        {
          "indexed": true,
          "internalType": "address",
          "name": "investor",
          "type": "address"
        },
        {
          "indexed": false,
          "internalType": "uint256",
          "name": "amount",
          "type": "uint256"
        }
      ],
      "name": "InvestmentWithdrawn",
      "type": "event"
    },
    {
      "anonymous": false,
      "inputs": [
        {
          "indexed": true,
          "internalType": "address",
          "name": "previousOwner",
          "type": "address"
        },
        {
          "indexed": true,
          "internalType": "address",
          "name": "newOwner",
          "type": "address"
        }
      ],
      "name": "OwnershipTransferred",
      "type": "event"
    },
    {
      "anonymous": false,
      "inputs": [
        {
          "indexed": false,
          "internalType": "address",
          "name": "account",
          "type": "address"
        }
      ],
      "name": "Paused",
      "type": "event"
    },
    {
      "anonymous": false,
      "inputs": [
        {
          "indexed": false,
          "internalType": "address",
          "name": "account",
          "type": "address"
        }
      ],
      "name": "Unpaused",
      "type": "event"
    },
    {
      "inputs": [],
      "name": "assetToken",
      "outputs": [
        {
          "internalType": "contract AssetToken",
          "name": "",
          "type": "address"
        }
      ],
      "stateMutability": "view",
      "type": "function"
    },
    {
      "inputs": [
        {
          "internalType": "uint256",
          "name": "projectId",
          "type": "uint256"
        },
        {
          "internalType": "address",
          "name": "investor",
          "type": "address"
        }
      ],
      "name": "getInvestmentDetails",
      "outputs": [
        {
          "internalType": "uint256",
          "name": "totalInvested",
          "type": "uint256"
        },
        {
          "internalType": "uint256",
          "name": "tokenBalance",
          "type": "uint256"
        },
        {
          "internalType": "uint256",
          "name": "lastInvestmentTime",
          "type": "uint256"
        }
      ],
      "stateMutability": "view",
      "type": "function"
    },
    {
      "inputs": [
        {
          "internalType": "uint256",
          "name": "projectId",
          "type": "uint256"
        },
        {
          "internalType": "uint256",
          "name": "amount",
          "type": "uint256"
        }
      ],
      "name": "invest",
      "outputs": [],
      "stateMutability": "nonpayable",
      "type": "function"
    },
    {
      "inputs": [
        {
          "internalType": "address",
          "name": "",
          "type": "address"
        },
        {
          "internalType": "uint256",
          "name": "",
          "type": "uint256"
        }
      ],
      "name": "investorProjectBalance",
      "outputs": [
        {
          "internalType": "uint256",
          "name": "",
          "type": "uint256"
        }
      ],
      "stateMutability": "view",
      "type": "function"
    },
    {
      "inputs": [
        {
          "internalType": "uint256",
          "name": "projectId",
          "type": "uint256"
        }
      ],
      "name": "makeInvestment",
      "outputs": [],
      "stateMutability": "payable",
      "type": "function"
    },
    {
      "inputs": [],
      "name": "owner",
      "outputs": [
        {
          "internalType": "address",
          "name": "",
          "type": "address"
        }
      ],
      "stateMutability": "view",
      "type": "function"
    },
    {
      "inputs": [],
      "name": "pause",
      "outputs": [],
      "stateMutability": "nonpayable",
      "type": "function"
    },
    {
      "inputs": [],
      "name": "paused",
      "outputs": [
        {
          "internalType": "bool",
          "name": "",
          "type": "bool"
        }
      ],
      "stateMutability": "view",
      "type": "function"
    },
    {
      "inputs": [
        {
          "internalType": "uint256",
          "name": "",
          "type": "uint256"
        },
        {
          "internalType": "uint256",
          "name": "",
          "type": "uint256"
        }
      ],
      "name": "projectInvestments",
      "outputs": [
        {
          "internalType": "uint256",
          "name": "projectId",
          "type": "uint256"
        },
        {
          "internalType": "address",
          "name": "investor",
          "type": "address"
        },
        {
          "internalType": "uint256",
          "name": "amount",
          "type": "uint256"
        },
        {
          "internalType": "uint256",
          "name": "tokens",
          "type": "uint256"
        },
        {
          "internalType": "uint256",
          "name": "timestamp",
          "type": "uint256"
        }
      ],
      "stateMutability": "view",
      "type": "function"
    },
    {
      "inputs": [],
      "name": "projectRegistry",
      "outputs": [
        {
          "internalType": "contract ProjectRegistry",
          "name": "",
          "type": "address"
        }
      ],
      "stateMutability": "view",
      "type": "function"
    },
    {
      "inputs": [],
      "name": "renounceOwnership",
      "outputs": [],
      "stateMutability": "nonpayable",
      "type": "function"
    },
    {
      "inputs": [
        {
          "internalType": "address",
          "name": "newOwner",
          "type": "address"
        }
      ],
      "name": "transferOwnership",
      "outputs": [],
      "stateMutability": "nonpayable",
      "type": "function"
    },
    {
      "inputs": [],
      "name": "unpause",
      "outputs": [],
      "stateMutability": "nonpayable",
      "type": "function"
    },
    {
      "inputs": [
        {
          "internalType": "uint256",
          "name": "projectId",
          "type": "uint256"
        },
        {
          "internalType": "uint256",
          "name": "amount",
          "type": "uint256"
        }
      ],
      "name": "withdrawInvestment",
      "outputs": [],
      "stateMutability": "nonpayable",
      "type": "function"
    }
  ],
  "bytecode": "0x60806040523480156200001157600080fd5b5060405162001545380380620015458339810160408190526200003491620000eb565b6200003f336200007e565b6000805460ff60a01b19169055600180546001600160a01b039384166001600160a01b0319918216179091556002805492909316911617905562000123565b600080546001600160a01b038381166001600160a01b0319831681178455604051919092169283917f8be0079c531659141344cd1fd0a4f28419497f9722a3daafe3b4186f6b6457e09190a35050565b80516001600160a01b0381168114620000e657600080fd5b919050565b60008060408385031215620000ff57600080fd5b6200010a83620000ce565b91506200011a60208401620000ce565b90509250929050565b61141280620001336000396000f3fe6080604052600436106100dd5760003560e01c8063715018a61161007f578063ba0149cf11610059578063ba0149cf14610273578063ba3eefc5146102b9578063d87aa643146102cc578063f2fde38b146102ec57600080fd5b8063715018a61461022b5780638456cb59146102405780638da5cb5b1461025557600080fd5b80633a1339cf116100bb5780633a1339cf1461017c5780633f4ba83a146101cc5780635a33d8dc146101e15780635c975abb1461020157600080fd5b806309b49c46146100e25780631083f7611461010457806325aac4f114610141575b600080fd5b3480156100ee57600080fd5b506101026100fd3660046110ab565b61030c565b005b34801561011057600080fd5b50600154610124906001600160a01b031681565b6040516001600160a01b0390911681526020015b60405180910390f35b34801561014d57600080fd5b5061016161015c3660046110e2565b61053e565b60408051938452602084019290925290820152606001610138565b34801561018857600080fd5b5061019c6101973660046110ab565b6106de565b604080519586526001600160a01b039094166020860152928401919091526060830152608082015260a001610138565b3480156101d857600080fd5b50610102610736565b3480156101ed57600080fd5b50600254610124906001600160a01b031681565b34801561020d57600080fd5b50600054600160a01b900460ff166040519015158152602001610138565b34801561023757600080fd5b50610102610748565b34801561024c57600080fd5b5061010261075a565b34801561026157600080fd5b506000546001600160a01b0316610124565b34801561027f57600080fd5b506102ab61028e366004611112565b600460209081526000928352604080842090915290825290205481565b604051908152602001610138565b6101026102c736600461113e565b61076a565b3480156102d857600080fd5b506101026102e73660046110ab565b610ae7565b3480156102f857600080fd5b50610102610307366004611157565b610e53565b610314610ecc565b600081116103695760405162461bcd60e51b815260206004820152601d60248201527f416d6f756e74206d7573742062652067726561746572207468616e203000000060448201526064015b60405180910390fd5b600254604051635f8439e360e01b8152600481018490526000916001600160a01b031690635f8439e390602401600060405180830381865afa1580156103b3573d6000803e3d6000fd5b505050506040513d6000823e601f3d908101601f191682016040526103db9190810190611247565b509750506001600160a01b038716955061040d9450505050505760405162461bcd60e51b815260040161036090611303565b33600090815260046020908152604080832086845290915290205482111561046e5760405162461bcd60e51b8152602060048201526014602482015273496e73756666696369656e742062616c616e636560601b6044820152606401610360565b600154604051632770a7eb60e21b8152336004820152602481018490526001600160a01b0390911690639dc29fac90604401600060405180830381600087803b1580156104ba57600080fd5b505af11580156104ce573d6000803e3d6000fd5b5050336000908152600460209081526040808320888452909152812080548694509092506104fd908490611349565b9091555050604051828152339084907f05ca455a01213f8fad66148acbe3cdab7e54cde2914c9ec51f091a748ae829ef9060200160405180910390a3505050565b60008060008060036000878152602001908152602001600020805480602002602001604051908101604052809291908181526020016000905b828210156105de5760008481526020908190206040805160a08101825260058602909201805483526001808201546001600160a01b031684860152600282015492840192909252600381015460608401526004015460808301529083529092019101610577565b50505050905060008060005b83518110156106ac57876001600160a01b031684828151811061060f5761060f611362565b6020026020010151602001516001600160a01b03160361069a5783818151811061063b5761063b611362565b602002602001015160400151836106529190611378565b92508184828151811061066757610667611362565b602002602001015160800151111561069a5783818151811061068b5761068b611362565b60200260200101516080015191505b806106a48161138b565b9150506105ea565b506001600160a01b03969096166000908152600460209081526040808320998352989052969096205495969350505050565b600360205281600052604060002081815481106106fa57600080fd5b6000918252602090912060059091020180546001820154600283015460038401546004909401549295506001600160a01b039091169350919085565b61073e610f19565b610746610f73565b565b610750610f19565b6107466000610fc8565b610762610f19565b610746611018565b610772610ecc565b600034116107d35760405162461bcd60e51b815260206004820152602860248201527f496e766573746d656e7420616d6f756e74206d75737420626520677265617465604482015267072207468616e20360c41b6064820152608401610360565b600254604051635f8439e360e01b81526004810183905260009182916001600160a01b0390911690635f8439e390602401600060405180830381865afa158015610821573d6000803e3d6000fd5b505050506040513d6000823e601f3d908101601f191682016040526108499190810190611247565b509098509650506001600160a01b038616945061087d93505050505760405162461bcd60e51b815260040161036090611303565b6001826003811115610891576108916113a4565b146108d65760405162461bcd60e51b815260206004820152601560248201527450726f6a656374206973206e6f742061637469766560581b6044820152606401610360565b600254604051632a5bb1b760e11b81523360048201526001600160a01b03909116906354b7636e90602401602060405180830381865afa15801561091e573d6000803e3d6000fd5b505050506040513d601f19601f8201168201806040525081019061094291906113ba565b61098a5760405162461bcd60e51b8152602060048201526019602482015278125b9d995cdd1bdc881b9bdd0812d650c81d995c9a599a5959603a1b6044820152606401610360565b6000838152600360208181526040808420815160a0810183528881523381850181815234838601818152606085018281524260808701908152875460018082018a55988d528a8d2097516005909102909701968755935196860180546001600160a01b0319166001600160a01b039098169790971790965551600285015593519683019690965594516004918201559385529282528084208785529091528220805491928392610a3b908490611378565b90915550506001546040516340c10f1960e01b8152336004820152602481018390526001600160a01b03909116906340c10f1990604401600060405180830381600087803b158015610a8c57600080fd5b505af1158015610aa0573d6000803e3d6000fd5b505060408051348152602081018590523393508792507ff31343540affa723d26848192c2f28ab76925951531440b6f2e082030394314f910160405180910390a350505050565b610aef610ecc565b60008111610b3f5760405162461bcd60e51b815260206004820152601d60248201527f416d6f756e74206d7573742062652067726561746572207468616e20300000006044820152606401610360565b600254604051632a5bb1b760e11b81523360048201526001600160a01b03909116906354b7636e90602401602060405180830381865afa158015610b87573d6000803e3d6000fd5b505050506040513d601f19601f82011682018060405250810190610bab91906113ba565b610bf35760405162461bcd60e51b8152602060048201526019602482015278125b9d995cdd1bdc881b9bdd0812d650c81d995c9a599a5959603a1b6044820152606401610360565b600254604051635f8439e360e01b81526004810184905260009182916001600160a01b0390911690635f8439e390602401600060405180830381865afa158015610c41573d6000803e3d6000fd5b505050506040513d6000823e601f3d908101601f19168201604052610c699190810190611247565b509098509650506001600160a01b0386169450610c9d93505050505760405162461bcd60e51b815260040161036090611303565b6001826003811115610cb157610cb16113a4565b14610cf65760405162461bcd60e51b815260206004820152601560248201527450726f6a656374206973206e6f742061637469766560581b6044820152606401610360565b6000848152600360208181526040808420815160a081018352898152338185018181528285018b8152606084018c81524260808601908152865460018082018955978c52898c2096516005909102909601958655925195850180546001600160a01b0319166001600160a01b039097169690961790955551600284015592519582019590955590516004918201559284529181528183208784529052812080548592839291610da6908490611378565b90915550506001546040516340c10f1960e01b8152336004820152602481018390526001600160a01b03909116906340c10f1990604401600060405180830381600087803b158015610df757600080fd5b505af1158015610e0b573d6000803e3d6000fd5b505060408051878152602081018590523393508892507ff31343540affa723d26848192c2f28ab76925951531440b6f2e082030394314f910160405180910390a35050505050565b610e5b610f19565b6001600160a01b038116610ec05760405162461bcd60e51b815260206004820152602660248201527f4f776e61626c653a206e6577206f776e657220697320746865207a65726f206160448201526564647265737360d01b6064820152608401610360565b610ec981610fc8565b50565b600054600160a01b900460ff16156107465760405162461bcd60e51b815260206004820152601060248201526f14185d5cd8589b194e881c185d5cd95960821b6044820152606401610360565b6000546001600160a01b031633146107465760405162461bcd60e51b815260206004820181905260248201527f4f776e61626c653a2063616c6c6572206973206e6f7420746865206f776e65726044820152606401610360565b610f7b61105b565b6000805460ff60a01b191690557f5db9ee0a495bf2e6ff9c91a7834c1ba4fdd244a5e8aa4e537bd38aeae4b073aa335b6040516001600160a01b03909116815260200160405180910390a1565b600080546001600160a01b038381166001600160a01b0319831681178455604051919092169283917f8be0079c531659141344cd1fd0a4f28419497f9722a3daafe3b4186f6b6457e09190a35050565b611020610ecc565b6000805460ff60a01b1916600160a01b1790557f62e78cea01bee320cd4e420270b5ea74000d11b0c9f74754ebdbfc544b05a258610fab3390565b600054600160a01b900460ff166107465760405162461bcd60e51b815260206004820152601460248201527314185d5cd8589b194e881b9bdd081c185d5cd95960621b6044820152606401610360565b600080604083850312156110be57600080fd5b50508035926020909101359150565b6001600160a01b0381168114610ec957600080fd5b600080604083850312156110f557600080fd5b823591506020830135611107816110cd565b809150509250929050565b6000806040838503121561112557600080fd5b8235611130816110cd565b946020939093013593505050565b60006020828403121561115057600080fd5b5035919050565b60006020828403121561116957600080fd5b8135611174816110cd565b9392505050565b634e487b7160e01b600052604160045260246000fd5b600082601f8301126111a257600080fd5b815167ffffffffffffffff808211156111bd576111bd61117b565b604051601f8301601f19908116603f011681019082821181831017156111e5576111e561117b565b8160405283815260209250868385880101111561120157600080fd5b600091505b838210156112235785820183015181830184015290820190611206565b600093810190920192909252949350505050565b8051611242816110cd565b919050565b60008060008060008060008060006101208a8c03121561126657600080fd5b8951985060208a015167ffffffffffffffff8082111561128557600080fd5b6112918d838e01611191565b995060408c0151985060608c01519150808211156112ae57600080fd5b506112bb8c828d01611191565b96505060808a0151945060a08a0151935060c08a0151600481106112de57600080fd5b92506112ec60e08b01611237565b91506101008a015190509295985092959850929598565b602080825260169082015275141c9bda9958dd08191bd95cc81b9bdd08195e1a5cdd60521b604082015260600190565b634e487b7160e01b600052601160045260246000fd5b8181038181111561135c5761135c611333565b92915050565b634e487b7160e01b600052603260045260246000fd5b8082018082111561135c5761135c611333565b60006001820161139d5761139d611333565b5060010190565b634e487b7160e01b600052602160045260246000fd5b6000602082840312156113cc57600080fd5b8151801515811461117457600080fdfea26469706673582212200d13b049fc73fe8c9b68aeae73f37158a9aef767dc2caccedc0eff4eb696632364736f6c63430008140033",
  "linkReferences": {},
  "deployedLinkReferences": {}
}