{
  "_format": "hh-sol-artifact-1",
  "contractName": "InvestmentManager",
  "sourceName": "contracts/InvestmentManager.sol",
  "abi": [
    {
      "inputs": [
        {
          "internalType": "address",
          "name": "_assetToken",
          "type": "address"
        },
        {
          "internalType": "address",
          "name": "_projectRegistry",
          "type": "address"
        }
      ],
      "stateMutability": "nonpayable",
      "type": "constructor"
    },
    {
      "inputs": [],
      "name": "AmountAboveMaximum",
      "type": "error"
    },
    {
      "inputs": [],
      "name": "AmountBelowMinimum",
      "type": "error"
    },
    {
      "inputs": [],
      "name": "InsufficientBalance",
      "type": "error"
    },
    {
      "inputs": [],
      "name": "InvalidAmount",
      "type": "error"
    },
    {
      "inputs": [],
      "name": "InvestorNotVerified",
      "type": "error"
    },
    {
      "inputs": [],
      "name": "ProjectNotActive",
      "type": "error"
    },
    {
      "inputs": [],
      "name": "ProjectNotFound",
      "type": "error"
    },
    {
      "anonymous": false,
      "inputs": [
        {
          "indexed": true,
          "internalType": "uint256",
          "name": "projectId",
          "type": "uint256"
        },
        {
          "indexed": true,
          "internalType": "address",
          "name": "investor",
          "type": "address"
        },
        {
          "indexed": false,
          "internalType": "uint256",
          "name": "amount",
          "type": "uint256"
        },
        {
          "indexed": false,
          "internalType": "uint256",
          "name": "tokens",
          "type": "uint256"
        }
      ],
      "name": "InvestmentMade",
      "type": "event"
    },
    {
      "anonymous": false,
      "inputs": [
        {
          "indexed": true,
          "internalType": "uint256",
          "name": "projectId",
          "type": "uint256"
        },
        {
          "indexed": true,
          "internalType": "address",
          "name": "investor",
          "type": "address"
        },
        {
          "indexed": false,
          "internalType": "uint256",
          "name": "amount",
          "type": "uint256"
        }
      ],
      "name": "InvestmentWithdrawn",
      "type": "event"
    },
    {
      "anonymous": false,
      "inputs": [
        {
          "indexed": true,
          "internalType": "address",
          "name": "previousOwner",
          "type": "address"
        },
        {
          "indexed": true,
          "internalType": "address",
          "name": "newOwner",
          "type": "address"
        }
      ],
      "name": "OwnershipTransferred",
      "type": "event"
    },
    {
      "anonymous": false,
      "inputs": [
        {
          "indexed": false,
          "internalType": "address",
          "name": "account",
          "type": "address"
        }
      ],
      "name": "Paused",
      "type": "event"
    },
    {
      "anonymous": false,
      "inputs": [
        {
          "indexed": false,
          "internalType": "address",
          "name": "account",
          "type": "address"
        }
      ],
      "name": "Unpaused",
      "type": "event"
    },
    {
      "inputs": [],
      "name": "assetToken",
      "outputs": [
        {
          "internalType": "contract AssetToken",
          "name": "",
          "type": "address"
        }
      ],
      "stateMutability": "view",
      "type": "function"
    },
    {
      "inputs": [
        {
          "internalType": "uint256",
          "name": "projectId",
          "type": "uint256"
        },
        {
          "internalType": "address",
          "name": "investor",
          "type": "address"
        }
      ],
      "name": "getInvestmentDetails",
      "outputs": [
        {
          "internalType": "uint256",
          "name": "totalInvestedAmount",
          "type": "uint256"
        },
        {
          "internalType": "uint256",
          "name": "tokenBalance",
          "type": "uint256"
        },
        {
          "internalType": "uint256",
          "name": "lastInvestmentTime",
          "type": "uint256"
        }
      ],
      "stateMutability": "view",
      "type": "function"
    },
    {
      "inputs": [
        {
          "internalType": "address",
          "name": "",
          "type": "address"
        },
        {
          "internalType": "uint256",
          "name": "",
          "type": "uint256"
        }
      ],
      "name": "investorProjectBalance",
      "outputs": [
        {
          "internalType": "uint256",
          "name": "",
          "type": "uint256"
        }
      ],
      "stateMutability": "view",
      "type": "function"
    },
    {
      "inputs": [
        {
          "internalType": "uint256",
          "name": "projectId",
          "type": "uint256"
        }
      ],
      "name": "makeInvestment",
      "outputs": [],
      "stateMutability": "payable",
      "type": "function"
    },
    {
      "inputs": [],
      "name": "owner",
      "outputs": [
        {
          "internalType": "address",
          "name": "",
          "type": "address"
        }
      ],
      "stateMutability": "view",
      "type": "function"
    },
    {
      "inputs": [],
      "name": "pause",
      "outputs": [],
      "stateMutability": "nonpayable",
      "type": "function"
    },
    {
      "inputs": [],
      "name": "paused",
      "outputs": [
        {
          "internalType": "bool",
          "name": "",
          "type": "bool"
        }
      ],
      "stateMutability": "view",
      "type": "function"
    },
    {
      "inputs": [
        {
          "internalType": "uint256",
          "name": "",
          "type": "uint256"
        },
        {
          "internalType": "uint256",
          "name": "",
          "type": "uint256"
        }
      ],
      "name": "projectInvestments",
      "outputs": [
        {
          "internalType": "uint256",
          "name": "projectId",
          "type": "uint256"
        },
        {
          "internalType": "address",
          "name": "investor",
          "type": "address"
        },
        {
          "internalType": "uint256",
          "name": "amount",
          "type": "uint256"
        },
        {
          "internalType": "uint256",
          "name": "tokens",
          "type": "uint256"
        },
        {
          "internalType": "uint256",
          "name": "timestamp",
          "type": "uint256"
        }
      ],
      "stateMutability": "view",
      "type": "function"
    },
    {
      "inputs": [],
      "name": "projectRegistry",
      "outputs": [
        {
          "internalType": "contract ProjectRegistry",
          "name": "",
          "type": "address"
        }
      ],
      "stateMutability": "view",
      "type": "function"
    },
    {
      "inputs": [],
      "name": "renounceOwnership",
      "outputs": [],
      "stateMutability": "nonpayable",
      "type": "function"
    },
    {
      "inputs": [
        {
          "internalType": "address",
          "name": "",
          "type": "address"
        },
        {
          "internalType": "uint256",
          "name": "",
          "type": "uint256"
        }
      ],
      "name": "totalInvested",
      "outputs": [
        {
          "internalType": "uint256",
          "name": "",
          "type": "uint256"
        }
      ],
      "stateMutability": "view",
      "type": "function"
    },
    {
      "inputs": [
        {
          "internalType": "address",
          "name": "newOwner",
          "type": "address"
        }
      ],
      "name": "transferOwnership",
      "outputs": [],
      "stateMutability": "nonpayable",
      "type": "function"
    },
    {
      "inputs": [],
      "name": "unpause",
      "outputs": [],
      "stateMutability": "nonpayable",
      "type": "function"
    },
    {
      "inputs": [
        {
          "internalType": "uint256",
          "name": "projectId",
          "type": "uint256"
        },
        {
          "internalType": "uint256",
          "name": "amount",
          "type": "uint256"
        }
      ],
      "name": "withdrawInvestment",
      "outputs": [],
      "stateMutability": "nonpayable",
      "type": "function"
    }
  ],
  "bytecode": "0x608060405234801561001057600080fd5b5060405161135b38038061135b83398101604081905261002f916100e6565b6100383361007a565b6000805460ff60a01b1916905560018055600280546001600160a01b039384166001600160a01b03199182161790915560038054929093169116179055610119565b600080546001600160a01b038381166001600160a01b0319831681178455604051919092169283917f8be0079c531659141344cd1fd0a4f28419497f9722a3daafe3b4186f6b6457e09190a35050565b80516001600160a01b03811681146100e157600080fd5b919050565b600080604083850312156100f957600080fd5b610102836100ca565b9150610110602084016100ca565b90509250929050565b611233806101286000396000f3fe6080604052600436106100dd5760003560e01c8063715018a61161007f578063ba0149cf11610059578063ba0149cf14610273578063ba3eefc5146102b9578063d1b5577c146102cc578063f2fde38b1461030457600080fd5b8063715018a61461022b5780638456cb59146102405780638da5cb5b1461025557600080fd5b80633a1339cf116100bb5780633a1339cf1461017c5780633f4ba83a146101cc5780635a33d8dc146101e15780635c975abb1461020157600080fd5b806309b49c46146100e25780631083f7611461010457806325aac4f114610141575b600080fd5b3480156100ee57600080fd5b506101026100fd366004610d80565b610324565b005b34801561011057600080fd5b50600254610124906001600160a01b031681565b6040516001600160a01b0390911681526020015b60405180910390f35b34801561014d57600080fd5b5061016161015c366004610db7565b61053f565b60408051938452602084019290925290820152606001610138565b34801561018857600080fd5b5061019c610197366004610d80565b6106c9565b604080519586526001600160a01b039094166020860152928401919091526060830152608082015260a001610138565b3480156101d857600080fd5b50610102610721565b3480156101ed57600080fd5b50600354610124906001600160a01b031681565b34801561020d57600080fd5b50600054600160a01b900460ff166040519015158152602001610138565b34801561023757600080fd5b50610102610733565b34801561024c57600080fd5b50610102610745565b34801561026157600080fd5b506000546001600160a01b0316610124565b34801561027f57600080fd5b506102ab61028e366004610de7565b600560209081526000928352604080842090915290825290205481565b604051908152602001610138565b6101026102c7366004610e13565b610755565b3480156102d857600080fd5b506102ab6102e7366004610de7565b600660209081526000928352604080842090915290825290205481565b34801561031057600080fd5b5061010261031f366004610e2c565b610acd565b61032c610b48565b610334610b95565b806000036103555760405163162908e360e11b815260040160405180910390fd5b600354604051635f8439e360e01b81526004810184905260009182916001600160a01b0390911690635f8439e390602401600060405180830381865afa1580156103a3573d6000803e3d6000fd5b505050506040513d6000823e601f3d908101601f191682016040526103cb9190810190611057565b60608301519294509250506001600160a01b03166103fc57604051632627b46560e11b815260040160405180910390fd5b33600090815260056020908152604080832087845290915290205483111561043757604051631e9acf1760e31b815260040160405180910390fd5b3360009081526005602090815260408083208784529091528120805485929061046190849061116a565b90915550503360009081526006602090815260408083208784529091528120805485929061049090849061116a565b9091555050600254604051632770a7eb60e21b8152336004820152602481018590526001600160a01b0390911690639dc29fac90604401600060405180830381600087803b1580156104e157600080fd5b505af11580156104f5573d6000803e3d6000fd5b50506040518581523392508691507f05ca455a01213f8fad66148acbe3cdab7e54cde2914c9ec51f091a748ae829ef9060200160405180910390a3505061053b60018055565b5050565b60008060008060046000878152602001908152602001600020805480602002602001604051908101604052809291908181526020016000905b828210156105df5760008481526020908190206040805160a08101825260058602909201805483526001808201546001600160a01b031684860152600282015492840192909252600381015460608401526004015460808301529083529092019101610578565b5050505090506000805b825181101561068457866001600160a01b031683828151811061060e5761060e611183565b6020026020010151602001516001600160a01b031614801561064c57508183828151811061063e5761063e611183565b602002602001015160800151115b156106725782818151811061066357610663611183565b60200260200101516080015191505b8061067c81611199565b9150506105e9565b506001600160a01b039590951660008181526006602090815260408083208a845282528083205493835260058252808320998352989052969096205495969350505050565b600460205281600052604060002081815481106106e557600080fd5b6000918252602090912060059091020180546001820154600283015460038401546004909401549295506001600160a01b039091169350919085565b610729610bee565b610731610c48565b565b61073b610bee565b6107316000610c9d565b61074d610bee565b610731610ced565b61075d610b48565b610765610b95565b346000036107865760405163162908e360e11b815260040160405180910390fd5b600354604051632a5bb1b760e11b81523360048201526001600160a01b03909116906354b7636e90602401602060405180830381865afa1580156107ce573d6000803e3d6000fd5b505050506040513d601f19601f820116820180604052508101906107f291906111b2565b61080f5760405163eda5389560e01b815260040160405180910390fd5b600354604051635f8439e360e01b815260048101839052600091829182916001600160a01b031690635f8439e390602401600060405180830381865afa15801561085d573d6000803e3d6000fd5b505050506040513d6000823e601f3d908101601f191682016040526108859190810190611057565b606083015192955090935091506001600160a01b03166108b857604051632627b46560e11b815260040160405180910390fd5b60018360a0015160038111156108d0576108d06111d4565b146108ee57604051637701967760e01b815260040160405180910390fd5b816060015134101561091357604051632fcd1a0f60e01b815260040160405180910390fd5b81608001513411156109385760405163ea5d71ed60e01b815260040160405180910390fd5b6000848152600460208181526040808420815160a0810183528981523381850181815234838601818152606085018281524260808701908152875460018082018a55988d528a8d2097516005918202909801978855945197870180546001600160a01b0319166001600160a01b03909916989098179097559051600286015551600385015593519290960191909155855292825280842088855290915282208054919283926109e89084906111ea565b909155505033600090815260066020908152604080832088845290915281208054349290610a179084906111ea565b90915550506002546040516340c10f1960e01b8152336004820152602481018390526001600160a01b03909116906340c10f1990604401600060405180830381600087803b158015610a6857600080fd5b505af1158015610a7c573d6000803e3d6000fd5b505060408051348152602081018590523393508892507ff31343540affa723d26848192c2f28ab76925951531440b6f2e082030394314f910160405180910390a350505050610aca60018055565b50565b610ad5610bee565b6001600160a01b038116610b3f5760405162461bcd60e51b815260206004820152602660248201527f4f776e61626c653a206e6577206f776e657220697320746865207a65726f206160448201526564647265737360d01b60648201526084015b60405180910390fd5b610aca81610c9d565b600054600160a01b900460ff16156107315760405162461bcd60e51b815260206004820152601060248201526f14185d5cd8589b194e881c185d5cd95960821b6044820152606401610b36565b600260015403610be75760405162461bcd60e51b815260206004820152601f60248201527f5265656e7472616e637947756172643a207265656e7472616e742063616c6c006044820152606401610b36565b6002600155565b6000546001600160a01b031633146107315760405162461bcd60e51b815260206004820181905260248201527f4f776e61626c653a2063616c6c6572206973206e6f7420746865206f776e65726044820152606401610b36565b610c50610d30565b6000805460ff60a01b191690557f5db9ee0a495bf2e6ff9c91a7834c1ba4fdd244a5e8aa4e537bd38aeae4b073aa335b6040516001600160a01b03909116815260200160405180910390a1565b600080546001600160a01b038381166001600160a01b0319831681178455604051919092169283917f8be0079c531659141344cd1fd0a4f28419497f9722a3daafe3b4186f6b6457e09190a35050565b610cf5610b48565b6000805460ff60a01b1916600160a01b1790557f62e78cea01bee320cd4e420270b5ea74000d11b0c9f74754ebdbfc544b05a258610c803390565b600054600160a01b900460ff166107315760405162461bcd60e51b815260206004820152601460248201527314185d5cd8589b194e881b9bdd081c185d5cd95960621b6044820152606401610b36565b60008060408385031215610d9357600080fd5b50508035926020909101359150565b6001600160a01b0381168114610aca57600080fd5b60008060408385031215610dca57600080fd5b823591506020830135610ddc81610da2565b809150509250929050565b60008060408385031215610dfa57600080fd5b8235610e0581610da2565b946020939093013593505050565b600060208284031215610e2557600080fd5b5035919050565b600060208284031215610e3e57600080fd5b8135610e4981610da2565b9392505050565b634e487b7160e01b600052604160045260246000fd5b60405160c0810167ffffffffffffffff81118282101715610e8957610e89610e50565b60405290565b604051601f8201601f1916810167ffffffffffffffff81118282101715610eb857610eb8610e50565b604052919050565b600082601f830112610ed157600080fd5b815167ffffffffffffffff811115610eeb57610eeb610e50565b6020610eff601f8301601f19168201610e8f565b8281528582848701011115610f1357600080fd5b60005b83811015610f31578581018301518282018401528201610f16565b506000928101909101919091529392505050565b8051610f5081610da2565b919050565b805160048110610f5057600080fd5b600060a08284031215610f7657600080fd5b60405160a0810181811067ffffffffffffffff82111715610f9957610f99610e50565b806040525080915082518152602083015160208201526040830151604082015260608301516060820152608083015160808201525092915050565b600060608284031215610fe657600080fd5b6040516060810167ffffffffffffffff828210818311171561100a5761100a610e50565b8160405282935084518352602085015191508082111561102957600080fd5b5061103685828601610ec0565b602083015250604083015161104a81610da2565b6040919091015292915050565b600080600060e0848603121561106c57600080fd5b835167ffffffffffffffff8082111561108457600080fd5b9085019060c0828803121561109857600080fd5b6110a0610e66565b825181526020830151828111156110b657600080fd5b6110c289828601610ec0565b6020830152506040830151828111156110da57600080fd5b6110e689828601610ec0565b6040830152506110f860608401610f45565b60608201526080830151608082015261111360a08401610f55565b60a082015294506111278760208801610f64565b935060c086015191508082111561113d57600080fd5b5061114a86828701610fd4565b9150509250925092565b634e487b7160e01b600052601160045260246000fd5b8181038181111561117d5761117d611154565b92915050565b634e487b7160e01b600052603260045260246000fd5b6000600182016111ab576111ab611154565b5060010190565b6000602082840312156111c457600080fd5b81518015158114610e4957600080fd5b634e487b7160e01b600052602160045260246000fd5b8082018082111561117d5761117d61115456fea2646970667358221220afb5038a660f55100ce40a545f7486cf0b01af0c504d8f401a3c6d3da51722f164736f6c63430008140033",
  "linkReferences": {},
  "deployedLinkReferences": {}
}